{
  "_format": "hh-sol-artifact-1",
  "contractName": "LotteryFactory",
  "sourceName": "contracts/LotteryFactory.sol",
  "abi": [
    {
      "inputs": [],
      "stateMutability": "nonpayable",
      "type": "constructor"
    },
    {
      "inputs": [],
      "name": "AlreadyRevealed",
      "type": "error"
    },
    {
      "inputs": [],
      "name": "EnforcedPause",
      "type": "error"
    },
    {
      "inputs": [],
      "name": "ExpectedPause",
      "type": "error"
    },
    {
      "inputs": [],
      "name": "InvalidAddress",
      "type": "error"
    },
    {
      "inputs": [],
      "name": "InvalidAmount",
      "type": "error"
    },
    {
      "inputs": [],
      "name": "InvalidNumber",
      "type": "error"
    },
    {
      "inputs": [],
      "name": "InvalidOwner",
      "type": "error"
    },
    {
      "inputs": [],
      "name": "InvalidRoom",
      "type": "error"
    },
    {
      "inputs": [],
      "name": "InvalidState",
      "type": "error"
    },
    {
      "inputs": [],
      "name": "InvalidTicket",
      "type": "error"
    },
    {
      "inputs": [],
      "name": "InvalidVerification",
      "type": "error"
    },
    {
      "inputs": [
        {
          "internalType": "address",
          "name": "owner",
          "type": "address"
        }
      ],
      "name": "OwnableInvalidOwner",
      "type": "error"
    },
    {
      "inputs": [
        {
          "internalType": "address",
          "name": "account",
          "type": "address"
        }
      ],
      "name": "OwnableUnauthorizedAccount",
      "type": "error"
    },
    {
      "inputs": [],
      "name": "ReentrancyGuardReentrantCall",
      "type": "error"
    },
    {
      "inputs": [],
      "name": "TransferFailed",
      "type": "error"
    },
    {
      "anonymous": false,
      "inputs": [
        {
          "indexed": true,
          "internalType": "address",
          "name": "oldCollector",
          "type": "address"
        },
        {
          "indexed": true,
          "internalType": "address",
          "name": "newCollector",
          "type": "address"
        }
      ],
      "name": "FeeCollectorUpdated",
      "type": "event"
    },
    {
      "anonymous": false,
      "inputs": [
        {
          "indexed": true,
          "internalType": "address",
          "name": "previousOwner",
          "type": "address"
        },
        {
          "indexed": true,
          "internalType": "address",
          "name": "newOwner",
          "type": "address"
        }
      ],
      "name": "OwnershipTransferred",
      "type": "event"
    },
    {
      "anonymous": false,
      "inputs": [
        {
          "indexed": false,
          "internalType": "address",
          "name": "account",
          "type": "address"
        }
      ],
      "name": "Paused",
      "type": "event"
    },
    {
      "anonymous": false,
      "inputs": [
        {
          "indexed": true,
          "internalType": "uint256",
          "name": "roomId",
          "type": "uint256"
        },
        {
          "indexed": true,
          "internalType": "address",
          "name": "winner",
          "type": "address"
        },
        {
          "indexed": false,
          "internalType": "uint256",
          "name": "amount",
          "type": "uint256"
        },
        {
          "indexed": false,
          "internalType": "uint256",
          "name": "ticketId",
          "type": "uint256"
        }
      ],
      "name": "PrizeClaimed",
      "type": "event"
    },
    {
      "anonymous": false,
      "inputs": [
        {
          "indexed": true,
          "internalType": "uint256",
          "name": "roomId",
          "type": "uint256"
        },
        {
          "indexed": false,
          "internalType": "string",
          "name": "name",
          "type": "string"
        },
        {
          "indexed": false,
          "internalType": "uint256",
          "name": "entryFee",
          "type": "uint256"
        },
        {
          "indexed": false,
          "internalType": "uint256",
          "name": "drawTime",
          "type": "uint256"
        },
        {
          "indexed": true,
          "internalType": "address",
          "name": "owner",
          "type": "address"
        }
      ],
      "name": "RoomCreated",
      "type": "event"
    },
    {
      "anonymous": false,
      "inputs": [
        {
          "indexed": true,
          "internalType": "uint256",
          "name": "roomId",
          "type": "uint256"
        },
        {
          "indexed": false,
          "internalType": "enum LotteryFactory.RoomState",
          "name": "newState",
          "type": "uint8"
        }
      ],
      "name": "RoomStateUpdated",
      "type": "event"
    },
    {
      "anonymous": false,
      "inputs": [
        {
          "indexed": true,
          "internalType": "uint256",
          "name": "roomId",
          "type": "uint256"
        },
        {
          "indexed": true,
          "internalType": "address",
          "name": "player",
          "type": "address"
        },
        {
          "indexed": false,
          "internalType": "uint8",
          "name": "number",
          "type": "uint8"
        },
        {
          "indexed": false,
          "internalType": "uint256",
          "name": "ticketId",
          "type": "uint256"
        }
      ],
      "name": "TicketPurchased",
      "type": "event"
    },
    {
      "anonymous": false,
      "inputs": [
        {
          "indexed": false,
          "internalType": "address",
          "name": "account",
          "type": "address"
        }
      ],
      "name": "Unpaused",
      "type": "event"
    },
    {
      "anonymous": false,
      "inputs": [
        {
          "indexed": true,
          "internalType": "uint256",
          "name": "roomId",
          "type": "uint256"
        },
        {
          "indexed": false,
          "internalType": "uint8",
          "name": "winningNumber",
          "type": "uint8"
        }
      ],
      "name": "WinningNumberRevealed",
      "type": "event"
    },
    {
      "inputs": [],
      "name": "PLATFORM_FEE",
      "outputs": [
        {
          "internalType": "uint256",
          "name": "",
          "type": "uint256"
        }
      ],
      "stateMutability": "view",
      "type": "function"
    },
    {
      "inputs": [
        {
          "internalType": "uint256",
          "name": "",
          "type": "uint256"
        }
      ],
      "name": "activeRoomIds",
      "outputs": [
        {
          "internalType": "uint256",
          "name": "",
          "type": "uint256"
        }
      ],
      "stateMutability": "view",
      "type": "function"
    },
    {
      "inputs": [
        {
          "internalType": "uint256",
          "name": "roomId",
          "type": "uint256"
        },
        {
          "internalType": "uint8",
          "name": "number",
          "type": "uint8"
        }
      ],
      "name": "buyTicket",
      "outputs": [],
      "stateMutability": "payable",
      "type": "function"
    },
    {
      "inputs": [
        {
          "internalType": "uint256",
          "name": "roomId",
          "type": "uint256"
        },
        {
          "internalType": "uint256",
          "name": "ticketId",
          "type": "uint256"
        }
      ],
      "name": "claimPrize",
      "outputs": [],
      "stateMutability": "nonpayable",
      "type": "function"
    },
    {
      "inputs": [
        {
          "internalType": "string",
          "name": "name",
          "type": "string"
        },
        {
          "internalType": "string",
          "name": "description",
          "type": "string"
        },
        {
          "internalType": "uint256",
          "name": "entryFee",
          "type": "uint256"
        },
        {
          "internalType": "uint256",
          "name": "drawTime",
          "type": "uint256"
        },
        {
          "internalType": "bytes32",
          "name": "encryptedWinningNumber",
          "type": "bytes32"
        },
        {
          "internalType": "bytes32",
          "name": "publicKey",
          "type": "bytes32"
        }
      ],
      "name": "createRoom",
      "outputs": [],
      "stateMutability": "nonpayable",
      "type": "function"
    },
    {
      "inputs": [],
      "name": "emergencyPause",
      "outputs": [],
      "stateMutability": "nonpayable",
      "type": "function"
    },
    {
      "inputs": [
        {
          "internalType": "uint256",
          "name": "amount",
          "type": "uint256"
        }
      ],
      "name": "emergencyWithdraw",
      "outputs": [],
      "stateMutability": "nonpayable",
      "type": "function"
    },
    {
      "inputs": [],
      "name": "feeCollector",
      "outputs": [
        {
          "internalType": "address",
          "name": "",
          "type": "address"
        }
      ],
      "stateMutability": "view",
      "type": "function"
    },
    {
      "inputs": [
        {
          "internalType": "uint256",
          "name": "roomId",
          "type": "uint256"
        }
      ],
      "name": "getPrizePool",
      "outputs": [
        {
          "internalType": "uint256",
          "name": "",
          "type": "uint256"
        }
      ],
      "stateMutability": "view",
      "type": "function"
    },
    {
      "inputs": [
        {
          "internalType": "uint256",
          "name": "roomId",
          "type": "uint256"
        }
      ],
      "name": "getRoomDetails",
      "outputs": [
        {
          "components": [
            {
              "internalType": "uint256",
              "name": "id",
              "type": "uint256"
            },
            {
              "internalType": "string",
              "name": "name",
              "type": "string"
            },
            {
              "internalType": "string",
              "name": "description",
              "type": "string"
            },
            {
              "internalType": "uint256",
              "name": "entryFee",
              "type": "uint256"
            },
            {
              "internalType": "uint256",
              "name": "drawTime",
              "type": "uint256"
            },
            {
              "internalType": "uint256",
              "name": "prizePool",
              "type": "uint256"
            },
            {
              "internalType": "uint256",
              "name": "playerCount",
              "type": "uint256"
            },
            {
              "internalType": "address",
              "name": "owner",
              "type": "address"
            },
            {
              "internalType": "bytes32",
              "name": "encryptedWinningNumber",
              "type": "bytes32"
            },
            {
              "internalType": "bytes32",
              "name": "publicKey",
              "type": "bytes32"
            },
            {
              "internalType": "uint8",
              "name": "winningNumber",
              "type": "uint8"
            },
            {
              "internalType": "bool",
              "name": "revealed",
              "type": "bool"
            },
            {
              "internalType": "enum LotteryFactory.RoomState",
              "name": "state",
              "type": "uint8"
            }
          ],
          "internalType": "struct LotteryFactory.Room",
          "name": "",
          "type": "tuple"
        }
      ],
      "stateMutability": "view",
      "type": "function"
    },
    {
      "inputs": [
        {
          "internalType": "uint256",
          "name": "roomId",
          "type": "uint256"
        },
        {
          "internalType": "address",
          "name": "player",
          "type": "address"
        }
      ],
      "name": "getTicketsForAddress",
      "outputs": [
        {
          "components": [
            {
              "internalType": "uint256",
              "name": "id",
              "type": "uint256"
            },
            {
              "internalType": "uint256",
              "name": "roomId",
              "type": "uint256"
            },
            {
              "internalType": "address",
              "name": "player",
              "type": "address"
            },
            {
              "internalType": "uint8",
              "name": "number",
              "type": "uint8"
            },
            {
              "internalType": "bool",
              "name": "claimed",
              "type": "bool"
            }
          ],
          "internalType": "struct LotteryFactory.Ticket[]",
          "name": "",
          "type": "tuple[]"
        }
      ],
      "stateMutability": "view",
      "type": "function"
    },
    {
      "inputs": [
        {
          "internalType": "uint256",
          "name": "roomId",
          "type": "uint256"
        }
      ],
      "name": "getWinningNumber",
      "outputs": [
        {
          "internalType": "uint8",
          "name": "",
          "type": "uint8"
        }
      ],
      "stateMutability": "view",
      "type": "function"
    },
    {
      "inputs": [],
      "name": "isPaused",
      "outputs": [
        {
          "internalType": "bool",
          "name": "",
          "type": "bool"
        }
      ],
      "stateMutability": "view",
      "type": "function"
    },
    {
      "inputs": [],
      "name": "listActiveRooms",
      "outputs": [
        {
          "internalType": "uint256[]",
          "name": "",
          "type": "uint256[]"
        }
      ],
      "stateMutability": "view",
      "type": "function"
    },
    {
      "inputs": [],
      "name": "owner",
      "outputs": [
        {
          "internalType": "address",
          "name": "",
          "type": "address"
        }
      ],
      "stateMutability": "view",
      "type": "function"
    },
    {
      "inputs": [],
      "name": "paused",
      "outputs": [
        {
          "internalType": "bool",
          "name": "",
          "type": "bool"
        }
      ],
      "stateMutability": "view",
      "type": "function"
    },
    {
      "inputs": [
        {
          "internalType": "uint256",
          "name": "",
          "type": "uint256"
        },
        {
          "internalType": "address",
          "name": "",
          "type": "address"
        },
        {
          "internalType": "uint256",
          "name": "",
          "type": "uint256"
        }
      ],
      "name": "playerTickets",
      "outputs": [
        {
          "internalType": "uint256",
          "name": "id",
          "type": "uint256"
        },
        {
          "internalType": "uint256",
          "name": "roomId",
          "type": "uint256"
        },
        {
          "internalType": "address",
          "name": "player",
          "type": "address"
        },
        {
          "internalType": "uint8",
          "name": "number",
          "type": "uint8"
        },
        {
          "internalType": "bool",
          "name": "claimed",
          "type": "bool"
        }
      ],
      "stateMutability": "view",
      "type": "function"
    },
    {
      "inputs": [],
      "name": "renounceOwnership",
      "outputs": [],
      "stateMutability": "nonpayable",
      "type": "function"
    },
    {
      "inputs": [],
      "name": "resumeOperations",
      "outputs": [],
      "stateMutability": "nonpayable",
      "type": "function"
    },
    {
      "inputs": [
        {
          "internalType": "uint256",
          "name": "roomId",
          "type": "uint256"
        },
        {
          "internalType": "bytes32",
          "name": "privateKey",
          "type": "bytes32"
        },
        {
          "internalType": "uint8",
          "name": "winningNumber",
          "type": "uint8"
        }
      ],
      "name": "revealWinningNumber",
      "outputs": [],
      "stateMutability": "nonpayable",
      "type": "function"
    },
    {
      "inputs": [],
      "name": "roomCount",
      "outputs": [
        {
          "internalType": "uint256",
          "name": "",
          "type": "uint256"
        }
      ],
      "stateMutability": "view",
      "type": "function"
    },
    {
      "inputs": [
        {
          "internalType": "uint256",
          "name": "",
          "type": "uint256"
        }
      ],
      "name": "roomOwners",
      "outputs": [
        {
          "internalType": "address",
          "name": "",
          "type": "address"
        }
      ],
      "stateMutability": "view",
      "type": "function"
    },
    {
      "inputs": [
        {
          "internalType": "uint256",
          "name": "",
          "type": "uint256"
        },
        {
          "internalType": "uint256",
          "name": "",
          "type": "uint256"
        }
      ],
      "name": "roomTickets",
      "outputs": [
        {
          "internalType": "uint256",
          "name": "id",
          "type": "uint256"
        },
        {
          "internalType": "uint256",
          "name": "roomId",
          "type": "uint256"
        },
        {
          "internalType": "address",
          "name": "player",
          "type": "address"
        },
        {
          "internalType": "uint8",
          "name": "number",
          "type": "uint8"
        },
        {
          "internalType": "bool",
          "name": "claimed",
          "type": "bool"
        }
      ],
      "stateMutability": "view",
      "type": "function"
    },
    {
      "inputs": [
        {
          "internalType": "uint256",
          "name": "",
          "type": "uint256"
        }
      ],
      "name": "rooms",
      "outputs": [
        {
          "internalType": "uint256",
          "name": "id",
          "type": "uint256"
        },
        {
          "internalType": "string",
          "name": "name",
          "type": "string"
        },
        {
          "internalType": "string",
          "name": "description",
          "type": "string"
        },
        {
          "internalType": "uint256",
          "name": "entryFee",
          "type": "uint256"
        },
        {
          "internalType": "uint256",
          "name": "drawTime",
          "type": "uint256"
        },
        {
          "internalType": "uint256",
          "name": "prizePool",
          "type": "uint256"
        },
        {
          "internalType": "uint256",
          "name": "playerCount",
          "type": "uint256"
        },
        {
          "internalType": "address",
          "name": "owner",
          "type": "address"
        },
        {
          "internalType": "bytes32",
          "name": "encryptedWinningNumber",
          "type": "bytes32"
        },
        {
          "internalType": "bytes32",
          "name": "publicKey",
          "type": "bytes32"
        },
        {
          "internalType": "uint8",
          "name": "winningNumber",
          "type": "uint8"
        },
        {
          "internalType": "bool",
          "name": "revealed",
          "type": "bool"
        },
        {
          "internalType": "enum LotteryFactory.RoomState",
          "name": "state",
          "type": "uint8"
        }
      ],
      "stateMutability": "view",
      "type": "function"
    },
    {
      "inputs": [
        {
          "internalType": "address",
          "name": "newFeeCollector",
          "type": "address"
        }
      ],
      "name": "setFeeCollector",
      "outputs": [],
      "stateMutability": "nonpayable",
      "type": "function"
    },
    {
      "inputs": [
        {
          "internalType": "address",
          "name": "newOwner",
          "type": "address"
        }
      ],
      "name": "transferOwnership",
      "outputs": [],
      "stateMutability": "nonpayable",
      "type": "function"
    },
    {
      "inputs": [
        {
          "internalType": "uint256",
          "name": "roomId",
          "type": "uint256"
        }
      ],
      "name": "updateRoomState",
      "outputs": [],
      "stateMutability": "nonpayable",
      "type": "function"
    }
  ],
  "bytecode": "0x608060405234801561001057600080fd5b50338061003757604051631e4fbdf760e01b81526000600482015260240160405180910390fd5b6100408161005c565b5060018055600980546001600160a01b031916331790556100ac565b600080546001600160a01b038381166001600160a01b0319831681178455604051919092169283917f8be0079c531659141344cd1fd0a4f28419497f9722a3daafe3b4186f6b6457e09190a35050565b61258780620000bc6000396000f3fe60806040526004361061019c5760003560e01c806374ecf4b5116100ec578063c415b95c1161008a578063ea8dc8d011610064578063ea8dc8d014610504578063eded766c14610517578063f2fde38b14610537578063fef59b951461055757600080fd5b8063c415b95c14610474578063dc7fe6a514610494578063df93a4e3146104ee57600080fd5b80638da5cb5b116100c65780638da5cb5b1461040c578063a42dce801461042a578063a6e1d0161461044a578063b187bd261461045f57600080fd5b806374ecf4b51461039a5780637822be4a146103cc5780637b154140146103ec57600080fd5b806334fbc9a1116101595780635c975abb116101335780635c975abb146103145780636326c7f7146103385780636912cbb014610358578063715018a61461038557600080fd5b806334fbc9a1146102ca57806351858e27146102df5780635312ea8e146102f457600080fd5b80630777ed82146101a157806308d0bb98146101c35780630ca057be146102165780631bae0ac814610236578063227072651461026f578063294550de1461029d575b600080fd5b3480156101ad57600080fd5b506101c16101bc366004611d9c565b610579565b005b3480156101cf57600080fd5b506101f96101de366004611d9c565b6004602052600090815260409020546001600160a01b031681565b6040516001600160a01b0390911681526020015b60405180910390f35b34801561022257600080fd5b506101c1610231366004611dcb565b610759565b34801561024257600080fd5b50610256610251366004611d9c565b610897565b60405161020d9d9c9b9a99989796959493929190611e7e565b34801561027b57600080fd5b5061028f61028a366004611d9c565b610a1d565b60405190815260200161020d565b3480156102a957600080fd5b506102bd6102b8366004611d9c565b610a3e565b60405161020d9190611f1b565b3480156102d657600080fd5b5061028f600581565b3480156102eb57600080fd5b506101c1610cc2565b34801561030057600080fd5b506101c161030f366004611d9c565b610cd4565b34801561032057600080fd5b5060025460ff165b604051901515815260200161020d565b34801561034457600080fd5b506101c16103533660046120ab565b610d71565b34801561036457600080fd5b50610378610373366004612149565b610edc565b60405161020d9190612175565b34801561039157600080fd5b506101c1610fbe565b3480156103a657600080fd5b506103ba6103b5366004611d9c565b610fd0565b60405160ff909116815260200161020d565b3480156103d857600080fd5b5061028f6103e7366004611d9c565b611038565b3480156103f857600080fd5b506101c16104073660046121f1565b611071565b34801561041857600080fd5b506000546001600160a01b03166101f9565b34801561043657600080fd5b506101c1610445366004612213565b611501565b34801561045657600080fd5b506101c1611582565b34801561046b57600080fd5b50610328611592565b34801561048057600080fd5b506009546101f9906001600160a01b031681565b3480156104a057600080fd5b506104b46104af366004612235565b6115a5565b6040805195865260208601949094526001600160a01b039092169284019290925260ff90911660608301521515608082015260a00161020d565b3480156104fa57600080fd5b5061028f60075481565b6101c161051236600461226a565b611613565b34801561052357600080fd5b506104b46105323660046121f1565b611a97565b34801561054357600080fd5b506101c1610552366004612213565b611af8565b34801561056357600080fd5b5061056c611b36565b60405161020d919061228d565b60075481106105a35760405162461bcd60e51b815260040161059a906122d1565b60405180910390fd5b600081815260036020526040812090600a82015462010000900460ff1660038111156105d1576105d1611e46565b1480156105e2575080600401544210155b1561062457600a8101805462ff000019166201000017905560405182906000805160206125328339815191529061061b906001906122fa565b60405180910390a25b6001600a82015462010000900460ff16600381111561064557610645611e46565b1480156106635750600481015461065f906212750061231e565b4210155b1561075557600a8101805462ff000019166203000017905560405182906000805160206125328339815191529061069c906003906122fa565b60405180910390a260005b6008548110156107535782600882815481106106c5576106c5612331565b90600052602060002001540361074b57600880546106e590600190612347565b815481106106f5576106f5612331565b90600052602060002001546008828154811061071357610713612331565b60009182526020909120015560088054806107305761073061235a565b60019003818190600052602060002001600090559055610753565b6001016106a7565b505b5050565b610761611b8e565b60075483106107825760405162461bcd60e51b815260040161059a906122d1565b600083815260036020526040902060078101546001600160a01b031633146107bd576040516349e27cff60e01b815260040160405180910390fd5b600a810154610100900460ff16156107e85760405163a89ac15160e01b815260040160405180910390fd5b6107f3848484611bb2565b610810576040516304bc4ab760e31b815260040160405180910390fd5b600a810180546202000062ff00001961010060ff871661ffff19909416841717161790915560405190815284907feb0146dfb75e8d1654ba62f518fac9aa05fef2cdf57d1dae5282eb3ce257c98f9060200160405180910390a283600080516020612532833981519152600260405161088991906122fa565b60405180910390a250505050565b600360205260009081526040902080546001820180549192916108b990612370565b80601f01602080910402602001604051908101604052809291908181526020018280546108e590612370565b80156109325780601f1061090757610100808354040283529160200191610932565b820191906000526020600020905b81548152906001019060200180831161091557829003601f168201915b50505050509080600201805461094790612370565b80601f016020809104026020016040519081016040528092919081815260200182805461097390612370565b80156109c05780601f10610995576101008083540402835291602001916109c0565b820191906000526020600020905b8154815290600101906020018083116109a357829003601f168201915b50505060038401546004850154600586015460068701546007880154600889015460098a0154600a909a01549899959894975092955090936001600160a01b039091169260ff80821691610100810482169162010000909104168d565b60088181548110610a2d57600080fd5b600091825260209091200154905081565b610aac604080516101a08101825260008082526060602083018190529282018390529181018290526080810182905260a0810182905260c0810182905260e0810182905261010081018290526101208101829052610140810182905261016081018290529061018082015290565b6007548210610acd5760405162461bcd60e51b815260040161059a906122d1565b60036000838152602001908152602001600020604051806101a001604052908160008201548152602001600182018054610b0690612370565b80601f0160208091040260200160405190810160405280929190818152602001828054610b3290612370565b8015610b7f5780601f10610b5457610100808354040283529160200191610b7f565b820191906000526020600020905b815481529060010190602001808311610b6257829003601f168201915b50505050508152602001600282018054610b9890612370565b80601f0160208091040260200160405190810160405280929190818152602001828054610bc490612370565b8015610c115780601f10610be657610100808354040283529160200191610c11565b820191906000526020600020905b815481529060010190602001808311610bf457829003601f168201915b5050509183525050600382810154602083015260048301546040830152600583015460608301526006830154608083015260078301546001600160a01b031660a0830152600883015460c0830152600983015460e0830152600a83015460ff8082166101008086019190915282048116151561012085015261014090930192620100009091041690811115610ca857610ca8611e46565b6003811115610cb957610cb9611e46565b90525092915050565b610cca611c3f565b610cd2611c6c565b565b610cdc611c3f565b47811115610cfd5760405163162908e360e11b815260040160405180910390fd5b600080546040516001600160a01b039091169083908381818185875af1925050503d8060008114610d4a576040519150601f19603f3d011682016040523d82523d6000602084013e610d4f565b606091505b5050905080610755576040516312171d8360e31b815260040160405180910390fd5b610d79611b8e565b83600003610d9a5760405163162908e360e11b815260040160405180910390fd5b6007546000818152600360205260409020818155600101610dbb88826123fa565b506000818152600360205260409020600201610dd787826123fa565b50600081815260036020818152604080842092830189905560048084018990556005840185905560068401859055600784018054336001600160a01b0319918216811790925560088087018b9055600987018a9055600a909601805462ffff0019169055919093528185208054909116831790558254600181018455929093527ff3f7a9fe364faab93b216da50a3214154f22a0a2b415b23a84c8169e8b636ee3909101839055905182907f7881671893dfe704dd6a454d81b4be972b60a6fa6ffcbf34b4f833e0b0367a1590610eb3908b908a908a906124ba565b60405180910390a3600160076000828254610ece919061231e565b909155505050505050505050565b60606007548310610eff5760405162461bcd60e51b815260040161059a906122d1565b60008381526005602090815260408083206001600160a01b0386168452825280832080548251818502810185019093528083529193909284015b82821015610fb15760008481526020908190206040805160a0810182526003860290920180548352600180820154848601526002909101546001600160a01b0381169284019290925260ff600160a01b830481166060850152600160a81b909204909116151560808301529083529092019101610f39565b5050505090505b92915050565b610fc6611c3f565b610cd26000611cc6565b60006007548210610ff35760405162461bcd60e51b815260040161059a906122d1565b6000828152600360205260409020600a810154610100900460ff1661102b5760405163baf3f0f760e01b815260040160405180910390fd5b600a015460ff1692915050565b6000600754821061105b5760405162461bcd60e51b815260040161059a906122d1565b5060009081526003602052604090206005015490565b611079611d16565b611081611b8e565b60075482106110a25760405162461bcd60e51b815260040161059a906122d1565b600082815260036020908152604080832060069092529091205482106110db576040516319a1b6d960e21b815260040160405180910390fd5b60008381526006602052604081208054849081106110fb576110fb612331565b600091825260209091206002600390920201908101549091506001600160a01b0316331461113c576040516349e27cff60e01b815260040160405180910390fd5b600a8201546002820154600160a01b900460ff908116911614611172576040516319a1b6d960e21b815260040160405180910390fd5b6002810154600160a81b900460ff161561119f576040516319a1b6d960e21b815260040160405180910390fd5b600084815260056020908152604080832033845290915281208054600192906111ca576111ca612331565b600091825260208220600260039092020181018054931515600160a81b90810260ff60a81b1995861617909155908401805490931617909155805b60008681526006602052604090205481101561127f57600a8401546000878152600660205260409020805460ff909216918390811061124657611246612331565b6000918252602090912060039091020160020154600160a01b900460ff16036112775781611273816124df565b9250505b600101611205565b50600081846005015461129291906124f8565b604051909150600090339083908381818185875af1925050503d80600081146112d7576040519150601f19603f3d011682016040523d82523d6000602084013e6112dc565b606091505b50509050806112fe576040516312171d8360e31b815260040160405180910390fd5b6040805183815260208101889052339189917f64da964e036dd66a7be792791f60a47ec5378950b9d12795de3f453aa3940eb0910160405180910390a3600160005b6000898152600660205260409020548110156113fe57600a87015460008a8152600660205260409020805460ff909216918390811061138157611381612331565b6000918252602090912060039091020160020154600160a01b900460ff161480156113e8575060008981526006602052604090208054829081106113c7576113c7612331565b906000526020600020906003020160020160159054906101000a900460ff16155b156113f657600091506113fe565b600101611340565b5080156114f257600a8601805462ff0000191662030000179055604051889060008051602061253283398151915290611439906003906122fa565b60405180910390a260005b6008548110156114f057886008828154811061146257611462612331565b9060005260206000200154036114e8576008805461148290600190612347565b8154811061149257611492612331565b9060005260206000200154600882815481106114b0576114b0612331565b60009182526020909120015560088054806114cd576114cd61235a565b600190038181906000526020600020016000905590556114f0565b600101611444565b505b50505050505061075560018055565b611509611c3f565b6001600160a01b0381166115305760405163e6c4247b60e01b815260040160405180910390fd5b600980546001600160a01b038381166001600160a01b0319831681179093556040519116919082907f5d16ad41baeb009cd23eb8f6c7cde5c2e0cd5acf4a33926ab488875c37c37f3890600090a35050565b61158a611c3f565b610cd2611d40565b60006115a060025460ff1690565b905090565b600560205282600052604060002060205281600052604060002081815481106115cd57600080fd5b60009182526020909120600390910201805460018201546002909201549094509092506001600160a01b038116915060ff600160a01b8204811691600160a81b90041685565b61161b611d16565b611623611b8e565b60075482106116445760405162461bcd60e51b815260040161059a906122d1565b600082815260036020526040812090600a82015462010000900460ff16600381111561167257611672611e46565b1461170f576004810154611689906212750061231e565b42106116d057600a8101805462ff00001916620300001790556040518390600080516020612532833981519152906116c3906003906122fa565b60405180910390a261170f565b8060040154421061170f57600a8101805462ff00001916620100001790556040518390600080516020612532833981519152906116c3906001906122fa565b60638260ff161115611734576040516374cbd35f60e01b815260040160405180910390fd5b806003015434146117585760405163162908e360e11b815260040160405180910390fd5b60006103e861176860053461251a565b61177291906124f8565b905060006117808234612347565b6009546040519192506000916001600160a01b039091169084908381818185875af1925050503d80600081146117d2576040519150601f19603f3d011682016040523d82523d6000602084013e6117d7565b606091505b50509050806117f9576040516312171d8360e31b815260040160405180910390fd5b60006006600088815260200190815260200160002080549050905060006040518060a00160405280838152602001898152602001336001600160a01b031681526020018860ff168152602001600015158152509050600560008981526020019081526020016000206000336001600160a01b03166001600160a01b03168152602001908152602001600020819080600181540180825580915050600190039060005260206000209060030201600090919091909150600082015181600001556020820151816001015560408201518160020160006101000a8154816001600160a01b0302191690836001600160a01b0316021790555060608201518160020160146101000a81548160ff021916908360ff16021790555060808201518160020160156101000a81548160ff021916908315150217905550505060066000898152602001908152602001600020819080600181540180825580915050600190039060005260206000209060030201600090919091909150600082015181600001556020820151816001015560408201518160020160006101000a8154816001600160a01b0302191690836001600160a01b0316021790555060608201518160020160146101000a81548160ff021916908360ff16021790555060808201518160020160156101000a81548160ff021916908315150217905550505083866005016000828254611a07919061231e565b90915550506000888152600560209081526040808320338452909152902054600103611a48576001866006016000828254611a42919061231e565b90915550505b6040805160ff891681526020810184905233918a917ffd0a74cd9439908a3aecc74e2d38c760ae56b4df3da24c9723da70b461d3a35d910160405180910390a350505050505061075560018055565b60066020528160005260406000208181548110611ab357600080fd5b60009182526020909120600390910201805460018201546002909201549093509091506001600160a01b0381169060ff600160a01b8204811691600160a81b90041685565b611b00611c3f565b6001600160a01b038116611b2a57604051631e4fbdf760e01b81526000600482015260240161059a565b611b3381611cc6565b50565b60606008805480602002602001604051908101604052809291908181526020018280548015611b8457602002820191906000526020600020905b815481526020019060010190808311611b70575b5050505050905090565b60025460ff1615610cd25760405163d93c066560e01b815260040160405180910390fd5b60008381526003602090815260408083206007810154825160f887901b6001600160f81b03191681860152602181018890526041810189905260609190911b6bffffffffffffffffffffffff1916606182015282518082036055018152607590910190925281519190920120600882015481148015611c35575060638460ff1611155b9695505050505050565b6000546001600160a01b03163314610cd25760405163118cdaa760e01b815233600482015260240161059a565b611c74611b8e565b6002805460ff191660011790557f62e78cea01bee320cd4e420270b5ea74000d11b0c9f74754ebdbfc544b05a258611ca93390565b6040516001600160a01b03909116815260200160405180910390a1565b600080546001600160a01b038381166001600160a01b0319831681178455604051919092169283917f8be0079c531659141344cd1fd0a4f28419497f9722a3daafe3b4186f6b6457e09190a35050565b600260015403611d3957604051633ee5aeb560e01b815260040160405180910390fd5b6002600155565b611d48611d79565b6002805460ff191690557f5db9ee0a495bf2e6ff9c91a7834c1ba4fdd244a5e8aa4e537bd38aeae4b073aa33611ca9565b60025460ff16610cd257604051638dfc202b60e01b815260040160405180910390fd5b600060208284031215611dae57600080fd5b5035919050565b803560ff81168114611dc657600080fd5b919050565b600080600060608486031215611de057600080fd5b8335925060208401359150611df760408501611db5565b90509250925092565b6000815180845260005b81811015611e2657602081850181015186830182015201611e0a565b506000602082860101526020601f19601f83011685010191505092915050565b634e487b7160e01b600052602160045260246000fd5b60048110611e7a57634e487b7160e01b600052602160045260246000fd5b9052565b8d81526101a060208201526000611e996101a083018f611e00565b8281036040840152611eab818f611e00565b9150508b60608301528a60808301528960a08301528860c083015260018060a01b03881660e0830152866101008301528561012083015260ff8516610140830152611efb61016083018515159052565b611f09610180830184611e5c565b9e9d5050505050505050505050505050565b6020815281516020820152600060208301516101a0806040850152611f446101c0850183611e00565b91506040850151601f19858403016060860152611f618382611e00565b92505060608501516080850152608085015160a085015260a085015160c085015260c085015160e085015260e0850151610100611fa8818701836001600160a01b03169052565b86015161012086810191909152860151610140808701919091528601519050610160611fd88187018360ff169052565b8601519050610180611fed8682018315159052565b8601519050611ffe85830182611e5c565b5090949350505050565b634e487b7160e01b600052604160045260246000fd5b600082601f83011261202f57600080fd5b813567ffffffffffffffff8082111561204a5761204a612008565b604051601f8301601f19908116603f0116810190828211818310171561207257612072612008565b8160405283815286602085880101111561208b57600080fd5b836020870160208301376000602085830101528094505050505092915050565b60008060008060008060c087890312156120c457600080fd5b863567ffffffffffffffff808211156120dc57600080fd5b6120e88a838b0161201e565b975060208901359150808211156120fe57600080fd5b5061210b89828a0161201e565b96999698505050506040850135946060810135946080820135945060a09091013592509050565b80356001600160a01b0381168114611dc657600080fd5b6000806040838503121561215c57600080fd5b8235915061216c60208401612132565b90509250929050565b602080825282518282018190526000919060409081850190868401855b828110156121e4578151805185528681015187860152858101516001600160a01b03168686015260608082015160ff169086015260809081015115159085015260a09093019290850190600101612192565b5091979650505050505050565b6000806040838503121561220457600080fd5b50508035926020909101359150565b60006020828403121561222557600080fd5b61222e82612132565b9392505050565b60008060006060848603121561224a57600080fd5b8335925061225a60208501612132565b9150604084013590509250925092565b6000806040838503121561227d57600080fd5b8235915061216c60208401611db5565b6020808252825182820181905260009190848201906040850190845b818110156122c5578351835292840192918401916001016122a9565b50909695505050505050565b6020808252600f908201526e125b9d985b1a59081c9bdbdb481251608a1b604082015260600190565b60208101610fb88284611e5c565b634e487b7160e01b600052601160045260246000fd5b80820180821115610fb857610fb8612308565b634e487b7160e01b600052603260045260246000fd5b81810381811115610fb857610fb8612308565b634e487b7160e01b600052603160045260246000fd5b600181811c9082168061238457607f821691505b6020821081036123a457634e487b7160e01b600052602260045260246000fd5b50919050565b601f821115610753576000816000526020600020601f850160051c810160208610156123d35750805b601f850160051c820191505b818110156123f2578281556001016123df565b505050505050565b815167ffffffffffffffff81111561241457612414612008565b612428816124228454612370565b846123aa565b602080601f83116001811461245d57600084156124455750858301515b600019600386901b1c1916600185901b1785556123f2565b600085815260208120601f198616915b8281101561248c5788860151825594840194600190910190840161246d565b50858210156124aa5787850151600019600388901b60f8161c191681555b5050505050600190811b01905550565b6060815260006124cd6060830186611e00565b60208301949094525060400152919050565b6000600182016124f1576124f1612308565b5060010190565b60008261251557634e487b7160e01b600052601260045260246000fd5b500490565b8082028115828204841417610fb857610fb861230856feec4a5af795d1b60310dae1adcc8f6cb3dfe5cf777473b21fe1c58169655e4133a2646970667358221220f4c174273e2864b93c2cf9d23fcf9a45c90eb595dd58e68f40eceb28da36b84764736f6c63430008180033",
  "linkReferences": {},
  "deployedLinkReferences": {}
}