{
  "_format": "hh-sol-artifact-1",
  "contractName": "LotteryFactory",
  "sourceName": "contracts/LotteryFactory.sol",
  "abi": [
    {
      "inputs": [
        {
          "internalType": "address",
          "name": "_cUSDToken",
          "type": "address"
        }
      ],
      "stateMutability": "nonpayable",
      "type": "constructor"
    },
    {
      "inputs": [],
      "name": "AlreadyRevealed",
      "type": "error"
    },
    {
      "inputs": [],
      "name": "BuyTicketAfterDrawTime",
      "type": "error"
    },
    {
      "inputs": [],
      "name": "EnforcedPause",
      "type": "error"
    },
    {
      "inputs": [],
      "name": "ExpectedPause",
      "type": "error"
    },
    {
      "inputs": [],
      "name": "GracePeriodNotPassed",
      "type": "error"
    },
    {
      "inputs": [],
      "name": "InsufficientAllowance",
      "type": "error"
    },
    {
      "inputs": [],
      "name": "InvalidAddress",
      "type": "error"
    },
    {
      "inputs": [],
      "name": "InvalidAmount",
      "type": "error"
    },
    {
      "inputs": [],
      "name": "InvalidNumber",
      "type": "error"
    },
    {
      "inputs": [],
      "name": "InvalidOwner",
      "type": "error"
    },
    {
      "inputs": [],
      "name": "InvalidRoom",
      "type": "error"
    },
    {
      "inputs": [],
      "name": "InvalidState",
      "type": "error"
    },
    {
      "inputs": [],
      "name": "InvalidTicket",
      "type": "error"
    },
    {
      "inputs": [],
      "name": "InvalidVerification",
      "type": "error"
    },
    {
      "inputs": [
        {
          "internalType": "address",
          "name": "owner",
          "type": "address"
        }
      ],
      "name": "OwnableInvalidOwner",
      "type": "error"
    },
    {
      "inputs": [
        {
          "internalType": "address",
          "name": "account",
          "type": "address"
        }
      ],
      "name": "OwnableUnauthorizedAccount",
      "type": "error"
    },
    {
      "inputs": [],
      "name": "ReentrancyGuardReentrantCall",
      "type": "error"
    },
    {
      "inputs": [],
      "name": "RoomNotResettable",
      "type": "error"
    },
    {
      "inputs": [],
      "name": "TransferFailed",
      "type": "error"
    },
    {
      "anonymous": false,
      "inputs": [
        {
          "indexed": true,
          "internalType": "address",
          "name": "owner",
          "type": "address"
        },
        {
          "indexed": false,
          "internalType": "uint256",
          "name": "amount",
          "type": "uint256"
        }
      ],
      "name": "FeesWithdrawn",
      "type": "event"
    },
    {
      "anonymous": false,
      "inputs": [
        {
          "indexed": true,
          "internalType": "address",
          "name": "previousOwner",
          "type": "address"
        },
        {
          "indexed": true,
          "internalType": "address",
          "name": "newOwner",
          "type": "address"
        }
      ],
      "name": "OwnershipTransferred",
      "type": "event"
    },
    {
      "anonymous": false,
      "inputs": [
        {
          "indexed": false,
          "internalType": "address",
          "name": "account",
          "type": "address"
        }
      ],
      "name": "Paused",
      "type": "event"
    },
    {
      "anonymous": false,
      "inputs": [
        {
          "indexed": true,
          "internalType": "uint256",
          "name": "fromRoomId",
          "type": "uint256"
        },
        {
          "indexed": true,
          "internalType": "uint256",
          "name": "toRoomId",
          "type": "uint256"
        },
        {
          "indexed": false,
          "internalType": "uint256",
          "name": "amount",
          "type": "uint256"
        }
      ],
      "name": "PrizeCarriedOver",
      "type": "event"
    },
    {
      "anonymous": false,
      "inputs": [
        {
          "indexed": true,
          "internalType": "uint256",
          "name": "roomId",
          "type": "uint256"
        },
        {
          "indexed": true,
          "internalType": "address",
          "name": "winner",
          "type": "address"
        },
        {
          "indexed": false,
          "internalType": "uint256",
          "name": "amount",
          "type": "uint256"
        },
        {
          "indexed": false,
          "internalType": "uint256",
          "name": "ticketId",
          "type": "uint256"
        },
        {
          "indexed": false,
          "internalType": "uint256",
          "name": "roundNumber",
          "type": "uint256"
        }
      ],
      "name": "PrizeClaimed",
      "type": "event"
    },
    {
      "anonymous": false,
      "inputs": [
        {
          "indexed": true,
          "internalType": "uint256",
          "name": "roomId",
          "type": "uint256"
        },
        {
          "indexed": false,
          "internalType": "string",
          "name": "name",
          "type": "string"
        },
        {
          "indexed": false,
          "internalType": "uint256",
          "name": "entryFee",
          "type": "uint256"
        },
        {
          "indexed": false,
          "internalType": "uint256",
          "name": "drawTime",
          "type": "uint256"
        },
        {
          "indexed": true,
          "internalType": "address",
          "name": "owner",
          "type": "address"
        }
      ],
      "name": "RoomCreated",
      "type": "event"
    },
    {
      "anonymous": false,
      "inputs": [
        {
          "indexed": true,
          "internalType": "uint256",
          "name": "roomId",
          "type": "uint256"
        },
        {
          "indexed": false,
          "internalType": "uint256",
          "name": "newRoundNumber",
          "type": "uint256"
        },
        {
          "indexed": false,
          "internalType": "uint256",
          "name": "newDrawTime",
          "type": "uint256"
        }
      ],
      "name": "RoomReset",
      "type": "event"
    },
    {
      "anonymous": false,
      "inputs": [
        {
          "indexed": true,
          "internalType": "uint256",
          "name": "roomId",
          "type": "uint256"
        },
        {
          "indexed": false,
          "internalType": "enum LotteryFactory.RoomState",
          "name": "newState",
          "type": "uint8"
        },
        {
          "indexed": false,
          "internalType": "uint256",
          "name": "roundNumber",
          "type": "uint256"
        }
      ],
      "name": "RoomStateUpdated",
      "type": "event"
    },
    {
      "anonymous": false,
      "inputs": [
        {
          "indexed": true,
          "internalType": "uint256",
          "name": "roomId",
          "type": "uint256"
        },
        {
          "indexed": true,
          "internalType": "address",
          "name": "player",
          "type": "address"
        },
        {
          "indexed": false,
          "internalType": "uint8",
          "name": "number",
          "type": "uint8"
        },
        {
          "indexed": false,
          "internalType": "uint256",
          "name": "ticketId",
          "type": "uint256"
        },
        {
          "indexed": false,
          "internalType": "uint256",
          "name": "roundNumber",
          "type": "uint256"
        }
      ],
      "name": "TicketPurchased",
      "type": "event"
    },
    {
      "anonymous": false,
      "inputs": [
        {
          "indexed": true,
          "internalType": "uint256",
          "name": "roomId",
          "type": "uint256"
        },
        {
          "indexed": true,
          "internalType": "uint256",
          "name": "ticketId",
          "type": "uint256"
        },
        {
          "indexed": false,
          "internalType": "bool",
          "name": "win",
          "type": "bool"
        },
        {
          "indexed": false,
          "internalType": "uint256",
          "name": "roundNumber",
          "type": "uint256"
        }
      ],
      "name": "TicketWinStatusUpdated",
      "type": "event"
    },
    {
      "anonymous": false,
      "inputs": [
        {
          "indexed": false,
          "internalType": "address",
          "name": "account",
          "type": "address"
        }
      ],
      "name": "Unpaused",
      "type": "event"
    },
    {
      "anonymous": false,
      "inputs": [
        {
          "indexed": true,
          "internalType": "uint256",
          "name": "roomId",
          "type": "uint256"
        },
        {
          "indexed": false,
          "internalType": "uint8",
          "name": "winningNumber",
          "type": "uint8"
        },
        {
          "indexed": false,
          "internalType": "uint256",
          "name": "roundNumber",
          "type": "uint256"
        }
      ],
      "name": "WinningNumberRevealed",
      "type": "event"
    },
    {
      "inputs": [],
      "name": "GRACE_PERIOD",
      "outputs": [
        {
          "internalType": "uint256",
          "name": "",
          "type": "uint256"
        }
      ],
      "stateMutability": "view",
      "type": "function"
    },
    {
      "inputs": [],
      "name": "PLATFORM_FEE",
      "outputs": [
        {
          "internalType": "uint256",
          "name": "",
          "type": "uint256"
        }
      ],
      "stateMutability": "view",
      "type": "function"
    },
    {
      "inputs": [
        {
          "internalType": "uint256",
          "name": "",
          "type": "uint256"
        }
      ],
      "name": "activeRoomIds",
      "outputs": [
        {
          "internalType": "uint256",
          "name": "",
          "type": "uint256"
        }
      ],
      "stateMutability": "view",
      "type": "function"
    },
    {
      "inputs": [
        {
          "internalType": "uint256",
          "name": "roomId",
          "type": "uint256"
        },
        {
          "internalType": "uint8",
          "name": "number",
          "type": "uint8"
        }
      ],
      "name": "buyTicket",
      "outputs": [],
      "stateMutability": "nonpayable",
      "type": "function"
    },
    {
      "inputs": [],
      "name": "cUSDToken",
      "outputs": [
        {
          "internalType": "contract IERC20",
          "name": "",
          "type": "address"
        }
      ],
      "stateMutability": "view",
      "type": "function"
    },
    {
      "inputs": [
        {
          "internalType": "uint256",
          "name": "roomId",
          "type": "uint256"
        },
        {
          "internalType": "uint256",
          "name": "ticketId",
          "type": "uint256"
        }
      ],
      "name": "claimPrize",
      "outputs": [],
      "stateMutability": "nonpayable",
      "type": "function"
    },
    {
      "inputs": [],
      "name": "collectedFees",
      "outputs": [
        {
          "internalType": "uint256",
          "name": "",
          "type": "uint256"
        }
      ],
      "stateMutability": "view",
      "type": "function"
    },
    {
      "inputs": [
        {
          "internalType": "string",
          "name": "name",
          "type": "string"
        },
        {
          "internalType": "string",
          "name": "description",
          "type": "string"
        },
        {
          "internalType": "uint256",
          "name": "entryFee",
          "type": "uint256"
        },
        {
          "internalType": "uint256",
          "name": "drawTime",
          "type": "uint256"
        },
        {
          "internalType": "bytes32",
          "name": "encryptedWinningNumber",
          "type": "bytes32"
        }
      ],
      "name": "createRoom",
      "outputs": [],
      "stateMutability": "nonpayable",
      "type": "function"
    },
    {
      "inputs": [],
      "name": "emergencyPause",
      "outputs": [],
      "stateMutability": "nonpayable",
      "type": "function"
    },
    {
      "inputs": [
        {
          "internalType": "uint256",
          "name": "amount",
          "type": "uint256"
        }
      ],
      "name": "emergencyWithdrawTokens",
      "outputs": [],
      "stateMutability": "nonpayable",
      "type": "function"
    },
    {
      "inputs": [
        {
          "internalType": "uint256",
          "name": "roomId",
          "type": "uint256"
        }
      ],
      "name": "forceCloseRoom",
      "outputs": [],
      "stateMutability": "nonpayable",
      "type": "function"
    },
    {
      "inputs": [
        {
          "internalType": "uint256",
          "name": "roomId",
          "type": "uint256"
        }
      ],
      "name": "getCarryOverAmount",
      "outputs": [
        {
          "internalType": "uint256",
          "name": "",
          "type": "uint256"
        }
      ],
      "stateMutability": "view",
      "type": "function"
    },
    {
      "inputs": [
        {
          "internalType": "uint256",
          "name": "roomId",
          "type": "uint256"
        }
      ],
      "name": "getCurrentRound",
      "outputs": [
        {
          "internalType": "uint256",
          "name": "",
          "type": "uint256"
        }
      ],
      "stateMutability": "view",
      "type": "function"
    },
    {
      "inputs": [
        {
          "internalType": "uint256",
          "name": "roomId",
          "type": "uint256"
        }
      ],
      "name": "getCurrentRoundPlayerCount",
      "outputs": [
        {
          "internalType": "uint256",
          "name": "",
          "type": "uint256"
        }
      ],
      "stateMutability": "view",
      "type": "function"
    },
    {
      "inputs": [
        {
          "internalType": "address",
          "name": "player",
          "type": "address"
        }
      ],
      "name": "getPlayerCompleteStats",
      "outputs": [
        {
          "internalType": "uint256",
          "name": "totalTickets",
          "type": "uint256"
        },
        {
          "internalType": "uint256",
          "name": "totalWins",
          "type": "uint256"
        },
        {
          "internalType": "uint256",
          "name": "totalClaimed",
          "type": "uint256"
        }
      ],
      "stateMutability": "view",
      "type": "function"
    },
    {
      "inputs": [
        {
          "internalType": "uint256",
          "name": "roomId",
          "type": "uint256"
        },
        {
          "internalType": "uint256",
          "name": "roundNumber",
          "type": "uint256"
        }
      ],
      "name": "getPlayerCount",
      "outputs": [
        {
          "internalType": "uint256",
          "name": "",
          "type": "uint256"
        }
      ],
      "stateMutability": "view",
      "type": "function"
    },
    {
      "inputs": [
        {
          "internalType": "uint256",
          "name": "roomId",
          "type": "uint256"
        },
        {
          "internalType": "address",
          "name": "player",
          "type": "address"
        }
      ],
      "name": "getPlayerRoomStats",
      "outputs": [
        {
          "internalType": "uint256",
          "name": "tickets",
          "type": "uint256"
        },
        {
          "internalType": "uint256",
          "name": "wins",
          "type": "uint256"
        }
      ],
      "stateMutability": "view",
      "type": "function"
    },
    {
      "inputs": [
        {
          "internalType": "uint256",
          "name": "roomId",
          "type": "uint256"
        },
        {
          "internalType": "address",
          "name": "player",
          "type": "address"
        }
      ],
      "name": "getPlayerWinRate",
      "outputs": [
        {
          "internalType": "uint256",
          "name": "",
          "type": "uint256"
        }
      ],
      "stateMutability": "view",
      "type": "function"
    },
    {
      "inputs": [
        {
          "internalType": "uint256",
          "name": "roomId",
          "type": "uint256"
        }
      ],
      "name": "getPrizePool",
      "outputs": [
        {
          "internalType": "uint256",
          "name": "",
          "type": "uint256"
        }
      ],
      "stateMutability": "view",
      "type": "function"
    },
    {
      "inputs": [
        {
          "internalType": "uint256",
          "name": "roomId",
          "type": "uint256"
        }
      ],
      "name": "getRoomDetails",
      "outputs": [
        {
          "components": [
            {
              "internalType": "uint256",
              "name": "id",
              "type": "uint256"
            },
            {
              "internalType": "string",
              "name": "name",
              "type": "string"
            },
            {
              "internalType": "string",
              "name": "description",
              "type": "string"
            },
            {
              "internalType": "uint256",
              "name": "entryFee",
              "type": "uint256"
            },
            {
              "internalType": "uint256",
              "name": "drawTime",
              "type": "uint256"
            },
            {
              "internalType": "uint256",
              "name": "prizePool",
              "type": "uint256"
            },
            {
              "internalType": "bytes32",
              "name": "encryptedWinningNumber",
              "type": "bytes32"
            },
            {
              "internalType": "uint8",
              "name": "winningNumber",
              "type": "uint8"
            },
            {
              "internalType": "bool",
              "name": "revealed",
              "type": "bool"
            },
            {
              "internalType": "enum LotteryFactory.RoomState",
              "name": "state",
              "type": "uint8"
            },
            {
              "internalType": "uint256",
              "name": "carryOverAmount",
              "type": "uint256"
            },
            {
              "internalType": "uint256",
              "name": "roundNumber",
              "type": "uint256"
            },
            {
              "internalType": "bool",
              "name": "feesCollected",
              "type": "bool"
            },
            {
              "internalType": "uint256",
              "name": "revealTime",
              "type": "uint256"
            }
          ],
          "internalType": "struct LotteryFactory.Room",
          "name": "",
          "type": "tuple"
        }
      ],
      "stateMutability": "view",
      "type": "function"
    },
    {
      "inputs": [
        {
          "internalType": "uint256",
          "name": "roomId",
          "type": "uint256"
        },
        {
          "internalType": "address",
          "name": "player",
          "type": "address"
        }
      ],
      "name": "getTicketsForAddress",
      "outputs": [
        {
          "components": [
            {
              "internalType": "uint256",
              "name": "id",
              "type": "uint256"
            },
            {
              "internalType": "uint256",
              "name": "roomId",
              "type": "uint256"
            },
            {
              "internalType": "address",
              "name": "player",
              "type": "address"
            },
            {
              "internalType": "uint8",
              "name": "number",
              "type": "uint8"
            },
            {
              "internalType": "uint256",
              "name": "roundNumber",
              "type": "uint256"
            },
            {
              "internalType": "bool",
              "name": "win",
              "type": "bool"
            }
          ],
          "internalType": "struct LotteryFactory.Ticket[]",
          "name": "",
          "type": "tuple[]"
        }
      ],
      "stateMutability": "view",
      "type": "function"
    },
    {
      "inputs": [
        {
          "internalType": "uint256",
          "name": "roomId",
          "type": "uint256"
        },
        {
          "internalType": "uint256",
          "name": "roundNumber",
          "type": "uint256"
        }
      ],
      "name": "getTicketsForRound",
      "outputs": [
        {
          "components": [
            {
              "internalType": "uint256",
              "name": "id",
              "type": "uint256"
            },
            {
              "internalType": "uint256",
              "name": "roomId",
              "type": "uint256"
            },
            {
              "internalType": "address",
              "name": "player",
              "type": "address"
            },
            {
              "internalType": "uint8",
              "name": "number",
              "type": "uint8"
            },
            {
              "internalType": "uint256",
              "name": "roundNumber",
              "type": "uint256"
            },
            {
              "internalType": "bool",
              "name": "win",
              "type": "bool"
            }
          ],
          "internalType": "struct LotteryFactory.Ticket[]",
          "name": "",
          "type": "tuple[]"
        }
      ],
      "stateMutability": "view",
      "type": "function"
    },
    {
      "inputs": [],
      "name": "getTotalCollectedFees",
      "outputs": [
        {
          "internalType": "uint256",
          "name": "",
          "type": "uint256"
        }
      ],
      "stateMutability": "view",
      "type": "function"
    },
    {
      "inputs": [
        {
          "internalType": "address",
          "name": "player",
          "type": "address"
        }
      ],
      "name": "getTotalPlayerTickets",
      "outputs": [
        {
          "internalType": "uint256",
          "name": "",
          "type": "uint256"
        }
      ],
      "stateMutability": "view",
      "type": "function"
    },
    {
      "inputs": [
        {
          "internalType": "address",
          "name": "player",
          "type": "address"
        }
      ],
      "name": "getTotalPlayerWins",
      "outputs": [
        {
          "internalType": "uint256",
          "name": "",
          "type": "uint256"
        }
      ],
      "stateMutability": "view",
      "type": "function"
    },
    {
      "inputs": [
        {
          "internalType": "uint256",
          "name": "roomId",
          "type": "uint256"
        }
      ],
      "name": "getWinningNumber",
      "outputs": [
        {
          "internalType": "uint8",
          "name": "",
          "type": "uint8"
        }
      ],
      "stateMutability": "view",
      "type": "function"
    },
    {
      "inputs": [],
      "name": "isPaused",
      "outputs": [
        {
          "internalType": "bool",
          "name": "",
          "type": "bool"
        }
      ],
      "stateMutability": "view",
      "type": "function"
    },
    {
      "inputs": [
        {
          "internalType": "uint256",
          "name": "roomId",
          "type": "uint256"
        },
        {
          "internalType": "uint256",
          "name": "roundNumber",
          "type": "uint256"
        },
        {
          "internalType": "uint256",
          "name": "ticketId",
          "type": "uint256"
        }
      ],
      "name": "isTicketClaimed",
      "outputs": [
        {
          "internalType": "bool",
          "name": "",
          "type": "bool"
        }
      ],
      "stateMutability": "view",
      "type": "function"
    },
    {
      "inputs": [],
      "name": "listActiveRooms",
      "outputs": [
        {
          "internalType": "uint256[]",
          "name": "",
          "type": "uint256[]"
        }
      ],
      "stateMutability": "view",
      "type": "function"
    },
    {
      "inputs": [],
      "name": "owner",
      "outputs": [
        {
          "internalType": "address",
          "name": "",
          "type": "address"
        }
      ],
      "stateMutability": "view",
      "type": "function"
    },
    {
      "inputs": [],
      "name": "paused",
      "outputs": [
        {
          "internalType": "bool",
          "name": "",
          "type": "bool"
        }
      ],
      "stateMutability": "view",
      "type": "function"
    },
    {
      "inputs": [
        {
          "internalType": "uint256",
          "name": "",
          "type": "uint256"
        },
        {
          "internalType": "address",
          "name": "",
          "type": "address"
        },
        {
          "internalType": "uint256",
          "name": "",
          "type": "uint256"
        }
      ],
      "name": "playerTicketIds",
      "outputs": [
        {
          "internalType": "uint256",
          "name": "",
          "type": "uint256"
        }
      ],
      "stateMutability": "view",
      "type": "function"
    },
    {
      "inputs": [],
      "name": "renounceOwnership",
      "outputs": [],
      "stateMutability": "nonpayable",
      "type": "function"
    },
    {
      "inputs": [
        {
          "internalType": "uint256",
          "name": "roomId",
          "type": "uint256"
        },
        {
          "internalType": "uint256",
          "name": "drawTime",
          "type": "uint256"
        },
        {
          "internalType": "bytes32",
          "name": "encryptedWinningNumber",
          "type": "bytes32"
        }
      ],
      "name": "resetRoom",
      "outputs": [],
      "stateMutability": "nonpayable",
      "type": "function"
    },
    {
      "inputs": [],
      "name": "resumeOperations",
      "outputs": [],
      "stateMutability": "nonpayable",
      "type": "function"
    },
    {
      "inputs": [
        {
          "internalType": "uint256",
          "name": "roomId",
          "type": "uint256"
        },
        {
          "internalType": "bytes32",
          "name": "privateKey",
          "type": "bytes32"
        },
        {
          "internalType": "uint8",
          "name": "winningNumber",
          "type": "uint8"
        }
      ],
      "name": "revealWinningNumber",
      "outputs": [],
      "stateMutability": "nonpayable",
      "type": "function"
    },
    {
      "inputs": [],
      "name": "roomCount",
      "outputs": [
        {
          "internalType": "uint256",
          "name": "",
          "type": "uint256"
        }
      ],
      "stateMutability": "view",
      "type": "function"
    },
    {
      "inputs": [
        {
          "internalType": "uint256",
          "name": "",
          "type": "uint256"
        },
        {
          "internalType": "uint256",
          "name": "",
          "type": "uint256"
        },
        {
          "internalType": "uint256",
          "name": "",
          "type": "uint256"
        }
      ],
      "name": "roomTicketsByRound",
      "outputs": [
        {
          "internalType": "uint256",
          "name": "id",
          "type": "uint256"
        },
        {
          "internalType": "uint256",
          "name": "roomId",
          "type": "uint256"
        },
        {
          "internalType": "address",
          "name": "player",
          "type": "address"
        },
        {
          "internalType": "uint8",
          "name": "number",
          "type": "uint8"
        },
        {
          "internalType": "uint256",
          "name": "roundNumber",
          "type": "uint256"
        },
        {
          "internalType": "bool",
          "name": "win",
          "type": "bool"
        }
      ],
      "stateMutability": "view",
      "type": "function"
    },
    {
      "inputs": [
        {
          "internalType": "uint256",
          "name": "",
          "type": "uint256"
        }
      ],
      "name": "rooms",
      "outputs": [
        {
          "internalType": "uint256",
          "name": "id",
          "type": "uint256"
        },
        {
          "internalType": "string",
          "name": "name",
          "type": "string"
        },
        {
          "internalType": "string",
          "name": "description",
          "type": "string"
        },
        {
          "internalType": "uint256",
          "name": "entryFee",
          "type": "uint256"
        },
        {
          "internalType": "uint256",
          "name": "drawTime",
          "type": "uint256"
        },
        {
          "internalType": "uint256",
          "name": "prizePool",
          "type": "uint256"
        },
        {
          "internalType": "bytes32",
          "name": "encryptedWinningNumber",
          "type": "bytes32"
        },
        {
          "internalType": "uint8",
          "name": "winningNumber",
          "type": "uint8"
        },
        {
          "internalType": "bool",
          "name": "revealed",
          "type": "bool"
        },
        {
          "internalType": "enum LotteryFactory.RoomState",
          "name": "state",
          "type": "uint8"
        },
        {
          "internalType": "uint256",
          "name": "carryOverAmount",
          "type": "uint256"
        },
        {
          "internalType": "uint256",
          "name": "roundNumber",
          "type": "uint256"
        },
        {
          "internalType": "bool",
          "name": "feesCollected",
          "type": "bool"
        },
        {
          "internalType": "uint256",
          "name": "revealTime",
          "type": "uint256"
        }
      ],
      "stateMutability": "view",
      "type": "function"
    },
    {
      "inputs": [
        {
          "internalType": "uint256",
          "name": "",
          "type": "uint256"
        },
        {
          "internalType": "uint256",
          "name": "",
          "type": "uint256"
        },
        {
          "internalType": "uint256",
          "name": "",
          "type": "uint256"
        }
      ],
      "name": "ticketClaimed",
      "outputs": [
        {
          "internalType": "bool",
          "name": "",
          "type": "bool"
        }
      ],
      "stateMutability": "view",
      "type": "function"
    },
    {
      "inputs": [
        {
          "internalType": "address",
          "name": "newOwner",
          "type": "address"
        }
      ],
      "name": "transferOwnership",
      "outputs": [],
      "stateMutability": "nonpayable",
      "type": "function"
    },
    {
      "inputs": [
        {
          "internalType": "uint256",
          "name": "amount",
          "type": "uint256"
        }
      ],
      "name": "withdrawFees",
      "outputs": [],
      "stateMutability": "nonpayable",
      "type": "function"
    }
  ],
  "bytecode": "0x6080346100cc57601f620029ab38819003918201601f19168301916001600160401b038311848410176100d1578084926020946040528339810103126100cc57516001600160a01b0390818116908190036100cc5733156100b35760005460018060a01b0319903382821617600055604051933391167f8be0079c531659141344cd1fd0a4f28419497f9722a3daafe3b4186f6b6457e0600080a360018055600b541617600b556128c39081620000e88239f35b604051631e4fbdf760e01b815260006004820152602490fd5b600080fd5b634e487b7160e01b600052604160045260246000fdfe6080604052600436101561001257600080fd5b60003560e01c80630ca057be14611f675780630ea86ad814611f3e578063148b02c514611f025780631bae0ac814611e045780632270726514611ddb5780632909591114611d9e578063294550de14611b7657806334fbc9a114611b5a5780633e6df50414611a5f5780634531c22c14611a2b5780634ba83893146119f157806351858e2714611997578063546b6fc91461193c57806355ca6758146118a25780635c975abb146108b15780635e318e07146117af5780636912cbb0146115c85780636aa15f841461141d5780636cb4eb4b14611096578063715018a61461103d57806374ecf4b514610ff15780637822be4a14610fb55780637b15414014610bc05780637d4c12bb14610b9f5780637d58f1ab14610b505780638da5cb5b14610b275780639003adfe14610811578063986c302f14610aaf5780639f11b148146109c9578063a6e1d0161461095f578063b0b3945f146108d4578063b187bd26146108b1578063b4bb477d1461084d578063c1a287e21461082f578063c7a84ed714610811578063d5e6c6fa146107cd578063d778199b146107cd578063df93a4e3146107af578063ea8dc8d01461036f578063f2fde38b146102e1578063fd28c7ec146102a55763fef59b95146101ea57600080fd5b346102a05760003660031901126102a057604051806009548083526020809301809160096000527f6e1540171b6c0c960b71a7020d9f60077f6af931a8bbf590da0223dacf75c7af9060005b8682821061028c57868661024c82880383612298565b604051928392818401908285525180915260408401929160005b82811061027557505050500390f35b835185528695509381019392810192600101610266565b835485529093019260019283019201610236565b600080fd5b346102a05760203660031901126102a0576004356102c66008548210612561565b60005260036020526020600860406000200154604051908152f35b346102a05760203660031901126102a0576102fa612411565b610302612800565b6001600160a01b0390811690811561035657600054826bffffffffffffffffffffffff60a01b821617600055167f8be0079c531659141344cd1fd0a4f28419497f9722a3daafe3b4186f6b6457e0600080a3005b604051631e4fbdf760e01b815260006004820152602490fd5b346102a05760403660031901126102a05760243560ff811681036102a05761039561284a565b61039d61282c565b6103ac60085460043510612561565b60043560005260036020526040600020600481015442101561077657606360ff83161161076457600b54604051636eb1769f60e11b8152336004820152306024820152906001600160a01b0316602082604481845afa91821561071257600092610730575b506003830191825480911061071e57600091606460209260405194859384926323b872dd60e01b845233600485015230602485015260448401525af1908115610712576000916106e3575b50156106d157549060043560005260056020526040600020916009820154928360005260205260406000205492604051906104968261227c565b848252600435602083015233604083015260ff86166060830152806080830152600060a0830152600435600052600560205260406000209060005260205260406000208054600160401b8110156106a5576104f691600182018155612545565b6106bb57600460a091835181556020840151600182015560028101600180851b0360408601511681549060ff861b6060880151871b16916affffffffffffffffffffff60a81b1617179055608084015160038201550191015115159060ff199160ff838354169116179055600435600052600460205260406000203360005260205260406000208054600160401b8110156106a55761059f816105b893600189940181556123f9565b90919082549060031b91821b91600019901b1916179055565b60043560005260076020526040600020600984015460005260205260406000208460005260205260406000209081541690556105f96005830191825461259f565b905533600052600660205260406000208054906001820180921161068f5755336000526006602052600360406000200160043560005260205260406000209081546001810180911161068f576009925501549060ff604051931683526020830152604082015233907f1175289cd9fa17f9b8d37c83f3842a72f5418831c6b5bd6df64fc96bdf3e2bba606060043592a360018055005b634e487b7160e01b600052601160045260246000fd5b634e487b7160e01b600052604160045260246000fd5b634e487b7160e01b600052600060045260246000fd5b6040516312171d8360e31b8152600490fd5b610705915060203d60201161070b575b6106fd8183612298565b8101906125ac565b8461045c565b503d6106f3565b6040513d6000823e3d90fd5b6040516313be252b60e01b8152600490fd5b9091506020813d60201161075c575b8161074c60209383612298565b810103126102a057519084610411565b3d915061073f565b6040516374cbd35f60e01b8152600490fd5b600901546040519060018252602082015260008051602061286e833981519152604060043592a260405163dcf14c8f60e01b8152600490fd5b346102a05760003660031901126102a0576020600854604051908152f35b346102a0576107db3661252b565b916000526007602052604060002090600052602052604060002090600052602052602060ff604060002054166040519015158152f35b346102a05760003660031901126102a0576020600a54604051908152f35b346102a05760003660031901126102a0576020604051620151808152f35b346102a05760603660031901126102a057610866612427565b60443590600435600052600460205260406000209060018060a01b0316600052602052604060002080548210156102a0576020916108a3916123f9565b90546040519160031b1c8152f35b346102a05760003660031901126102a057602060ff600254166040519015158152f35b346102a0576108e23661252b565b916000526005602052604060002090600052602052604060002080548210156102a05760c09161091191612545565b5080549060018101549060ff600282015481600460038501549401541693604051958652602086015260018060a01b038116604086015260a01c1660608401526080830152151560a0820152f35b346102a05760003660031901126102a057610978612800565b60025460ff8116156109b75760ff19166002557f5db9ee0a495bf2e6ff9c91a7834c1ba4fdd244a5e8aa4e537bd38aeae4b073aa6020604051338152a1005b604051638dfc202b60e01b8152600490fd5b346102a05760203660031901126102a0576004356109e5612800565b6109ed61284a565b6109fa6008548210612561565b806000526003602052604060002060078101805460ff8160101c166004811015610a9957600203610a8757600b83015462015180810180911161068f574210610a755762ff0000191662030000179055600901546040805160038152602081019290925260008051602061286e83398151915291a260018055005b60405163450c8b7b60e11b8152600490fd5b60405163baf3f0f760e01b8152600490fd5b634e487b7160e01b600052602160045260246000fd5b346102a05760403660031901126102a0576040600435610acd612427565b610ada6008548310612561565b60018060a01b031690816000526006602052600383600020018160005260205282600020549160005260066020526004836000200190600052602052816000205482519182526020820152f35b346102a05760003660031901126102a0576000546040516001600160a01b039091168152602090f35b346102a05760203660031901126102a0576020610b97600435600854811090610b7882612561565b8060005260038452610b9260096040600020015492612561565b612719565b604051908152f35b346102a0576020610b97610bb23661243d565b90610b926008548210612561565b346102a057610bce3661243d565b610bd661284a565b610bde61282c565b610beb6008548310612561565b8160005260036020526040600020906005602052604060002060098301549081600052602052604060002054821015610f9157836000526005602052604060002081600052602052610c41826040600020612545565b5081600382015403610f915760020154336001600160a01b03821603610fa35760ff806007860154169160a01c1603610f915783600052600760205260406000208160005260205260406000208260005260205260ff60406000205416610f91578360005260076020526040600020906000526020526040600020816000526020526040600020600160ff198254161790553360005260066020526002604060002001805460018101811161068f576001019055600083600052600560205260406000206009840154600052602052604060002091600083549060ff600787015416905b828110610f595750505081610e3f575b5060016000928054906007860154945b828110610dd0575b505050610d5b575b60018055005b60008051602061286e83398151915292604092600992610da457506203000062ff0000196007830154161760078201550154815190600382526020820152a25b80808080610d55565b62030000906000600584015562ff000019161760078201550154815190600382526020820152a2610d9b565b610dda8183612545565b5060ff600281891692015460a01c161480610e0a575b610dfc57600101610d45565b505050506000858080610d4d565b508760005260076020526040600020600988015460005260205260406000208160005260205260ff6040600020541615610df0565b600584015480600a810204600a148115171561068f578281610e6b6064600a610e8395020480926126c6565b90600a88019060ff82541615610f38575b50506125c4565b600b5460405163a9059cbb60e01b81523360048201526024810183905291929190602090829060449082906000906001600160a01b03165af190811561071257600091610f19575b50156106d157600985015460408051938452602084019290925290820152339085907f785817d289e9ce1881ef42379ab98f4f7513f0d3bb1f9a9e060afb4cd2b67eab90606090a384610d35565b610f32915060203d60201161070b576106fd8183612298565b87610ecb565b610f4490600a5461259f565b600a55805460ff191660011790558880610e7c565b8160ff6002610f68848a612545565b50015460a01c1614610f7d575b600101610d25565b93610f8960019161270a565b949050610f75565b6040516319a1b6d960e21b8152600490fd5b6040516349e27cff60e01b8152600490fd5b346102a05760203660031901126102a057600435610fd66008548210612561565b60005260036020526020600560406000200154604051908152f35b346102a05760203660031901126102a0576004356110126008548210612561565b600052600360205260076040600020015460ff8160081c1615610a875760209060ff60405191168152f35b346102a05760003660031901126102a057611056612800565b600080546001600160a01b0319811682556001600160a01b03167f8be0079c531659141344cd1fd0a4f28419497f9722a3daafe3b4186f6b6457e08280a3005b346102a05760a03660031901126102a05760043567ffffffffffffffff81116102a0576110c79036906004016124d4565b60243567ffffffffffffffff81116102a0576110e79036906004016124d4565b906110f0612800565b6110f861282c565b6044351561140b576008548060005260036020526040600020818155825167ffffffffffffffff81116106a5576111326001830154612225565b601f81116113c4575b506020601f821160011461135757908060019260009161134c575b50600019600383901b1c191690821b179101555b8060005260036020526002604060002001835167ffffffffffffffff81116106a5576111968254612225565b601f8111611304575b506020601f821160011461129b578192939495600092611290575b50508160011b916000199060031b1c19161790555b8060005260036020526000600b604082206044356003820155606435600482015582600582015560843560068201556007810162ffff0019815416905582600882015560016009820155600a810160ff1981541690550155611230816126e7565b7f7881671893dfe704dd6a454d81b4be972b60a6fa6ffcbf34b4f833e0b0367a156112666040519360608552606085019061235f565b92604435602082015260643560408201528033940390a36008546001810180911161068f57600855005b0151905085806111ba565b8260005260206000209060005b601f19841681106112ec575060019394959683601f198116106112d3575b505050811b0190556111cf565b015160001960f88460031b161c191690558580806112c6565b9091602060018192858b0151815501930191016112a8565b826000526020600020601f830160051c81019160208410611342575b601f0160051c01905b818110611336575061119f565b60008155600101611329565b9091508190611320565b905085015187611156565b6001830160005260206000209060005b601f19841681106113ac57509160019291839282601f19811610611393575b5050811b0191015561116a565b87015160001960f88460031b161c191690558780611386565b9091602060018192858a015181550193019101611367565b600183016000526020600020601f830160051c810160208410611404575b601f830160051c820181106113f857505061113b565b600081556001016113e2565b50806113e2565b60405163162908e360e11b8152600490fd5b346102a05760603660031901126102a05760043560243561143c612800565b61144461282c565b6114516008548310612561565b8160005260038060205260406000209060078201805460ff8160101c166004811015610a9957600381141590816115bc575b506115aa57846004850155604435600685015562ffffff1916905560098201918254906001916001810180911161068f57600b85949392600092899755600a810160ff1981541690550155600091600090600954915b82811061154d575b50505050917f64848abd03b4d0ea767a60ba27508c8e64d53388d6dfd9c1b8a8b0c262b034e3604060008051602061286e833981519152959381951561153f575b54938151908582526020820152a2815190600082526020820152a2005b611548846126e7565b611522565b9091929394958061155d836123ac565b905490851b1c1461157757508301908795949392916114d9565b9594507f64848abd03b4d0ea767a60ba27508c8e64d53388d6dfd9c1b8a8b0c262b034e3925060409150849050816114e1565b6040516308f3594160e21b8152600490fd5b60029150141587611483565b346102a05760403660031901126102a0576004356115e4612427565b6115f16008548310612561565b8160005260206004815260406000209160018060a01b0380911692836000528252604060002092604051808585829754938481520190600052856000209260005b878282106117995750505061164992500385612298565b8351926116558461265c565b936116636040519586612298565b808552611672601f199161265c565b018160005b8281106117595750505085600052600381526009604060002001549560005b8651811015611747576116a981886126d3565b5188805b6116bc575b5050600101611696565b836000526005808652604060002082600052865260406000205483106116ee575b50801561068f5760001901806116ad565b8460005285526040600020816000528552611716611710836040600020612545565b50612674565b8688604083015116036116dd579050829150611734600193896126d3565b5261173f81886126d3565b5090896116b2565b604051806117558882612453565b0390f35b6040516117658161227c565b60008152600083820152600060408201526000606082015260006080820152600060a0820152828289010152018290611677565b855484526001958601958a955093019201611632565b346102a05760203660031901126102a0576004356117cb612800565b6117d361284a565b8015611899575b600a5480821161140b57816117ee916126c6565b600a55600b546000805460405163a9059cbb60e01b81526001600160a01b0391821660048201526024810185905290929091602091839160449183919087165af19081156107125760009161187a575b50156106d15760207fc0819c13be868895eb93e40eaceb96de976442fa1d404e5c55f14bb65a8c489a916000541692604051908152a260018055005b611893915060203d60201161070b576106fd8183612298565b8361183e565b50600a546117da565b346102a0576118b03661243d565b906118be6008548210612561565b600052600560209160056020526040600020906000526020526040600020908154916118e98361265c565b936118f76040519586612298565b838552602085019160005260206000206000925b85841061192057604051806117558982612453565b848360019261192e85612674565b81520192019301929061190b565b346102a05760203660031901126102a0576001600160a01b0361195d612411565b1660005260066020526040600020805461175560026001840154930154604051938493846040919493926060820195825260208201520152565b346102a05760003660031901126102a0576119b0612800565b6119b861282c565b600160ff1960025416176002557f62e78cea01bee320cd4e420270b5ea74000d11b0c9f74754ebdbfc544b05a2586020604051338152a1005b346102a05760203660031901126102a0576001600160a01b03611a12612411565b1660005260066020526020604060002054604051908152f35b346102a05760403660031901126102a0576020610b97600435611a4c612427565b90611a5a6008548210612561565b6125e4565b346102a0576020806003193601126102a057600435611a7c612800565b600b546040516370a0823160e01b81523060048201526001600160a01b0391821692908481602481875afa90811561071257600091611b2d575b50811161140b576000805460405163a9059cbb60e01b815293166001600160a01b031660048401526024830191909152909183918391908290816044810103925af191821561071257600092611b10575b5050156106d157005b611b269250803d1061070b576106fd8183612298565b8180611b07565b90508481813d8311611b53575b611b448183612298565b810103126102a0575185611ab6565b503d611b3a565b346102a05760003660031901126102a0576020604051600a8152f35b346102a05760203660031901126102a05760043560006101a0604051611b9b8161225f565b82815260606020820152606060408201528260608201528260808201528260a08201528260c08201528260e082015282610100820152826101208201528261014082015282610160820152826101808201520152611bfc6008548210612561565b6000526003602052604060002060405190611c168261225f565b80548252611c26600182016122ba565b6020830152611c37600282016122ba565b60408301526003810154606083015260048101546080830152600581015460a0830152600681015460c083015260078101549060ff821660e084015260ff8260081c161515610100840152600460ff8360101c161015610a995760ff600b9260101c166101208401526008810154610140840152600981015461016084015260ff600a82015416151561018084015201546101a0820152604051809160208252805160208301526101a0611d15611cff60208401516101c060408701526101e086019061235f565b6040840151858203601f1901606087015261235f565b9160608101516080850152608081015160a085015260a081015160c085015260c081015160e085015260ff60e0820151166101008501526101008101511515610120850152611d6e61012082015161014086019061239f565b61014081015161016085015261016081015161018085015261018081015115158285015201516101c08301520390f35b346102a05760203660031901126102a0576001600160a01b03611dbf612411565b1660005260066020526020600160406000200154604051908152f35b346102a05760203660031901126102a0576004356009548110156102a0576108a36020916123ac565b346102a05760203660031901126102a057600435600052600360205260406000208054611e33600183016122ba565b91611e40600282016122ba565b60038201549160048101546005820154611ee46006840154600785015490600886015493600987015495611ea6600b60ff600a8b01541699015499611e986040519e8f9e8f6101c0918152816020820152019061235f565b8d810360408f01529061235f565b9960608c015260808b015260a08a015260c089015260ff811660e089015260ff8160081c16151561010089015260ff61012089019160101c1661239f565b61014086015261016085015215156101808401526101a08301520390f35b346102a05760203660031901126102a057600435611f236008548210612561565b60005260036020526020600960406000200154604051908152f35b346102a05760003660031901126102a057600b546040516001600160a01b039091168152602090f35b346102a05760603660031901126102a057600435602460443560ff9160ff8216918281036102a057611f97612800565b611f9f61282c565b611fac6008548610612561565b8460005260209160038352604060002091600783019081549160ff8360081c166122135788600052600386526040600020926000546009850154604051918983019560ff60f81b9060f81b16865260243560218401528c60418401526bffffffffffffffffffffffff199060601b16606183015260758201526075815260a09360a082019180831067ffffffffffffffff8411176106a557826040525190206006809601541480612208575b156121f9575061ffff191687176101001762ff000019166202000017905542600b8501556000888152600586526040808220600990960180548352958752812096905b8988548210156121a857506120b08189612545565b50828a600280930154861c16146120cb575b5060010161209b565b60046120d7838b612545565b5001906001918260ff198254161790556120f1838b612545565b5001546001600160a01b03166000818152868a52604090208201805480840191908210612193575560005284885260046040600020018b6000528852604060002080549082820180921161217e577f1cacd2738bce911ff086ce575cf93941d384839fddf18240cf1043902c744ad2604085948f939460019795558b5482519182528d820152a3906120c2565b87634e487b7160e01b60005260116004526000fd5b88634e487b7160e01b60005260116004526000fd5b60008051602061286e83398151915260408985847f8bfa46b879d2dfdb649ace427170adf3799f490b448d5b3a7fd3507b13ef7241848d549381519081528486820152a282519160028352820152a2005b6304bc4ab760e31b8152600490fd5b506063891115612058565b60405163a89ac15160e01b8152600490fd5b90600182811c92168015612255575b602083101461223f57565b634e487b7160e01b600052602260045260246000fd5b91607f1691612234565b6101c0810190811067ffffffffffffffff8211176106a557604052565b60c0810190811067ffffffffffffffff8211176106a557604052565b90601f8019910116810190811067ffffffffffffffff8211176106a557604052565b906040519182600082546122cd81612225565b9081845260209460019160018116908160001461233d57506001146122fe575b5050506122fc92500383612298565b565b600090815285812095935091905b8183106123255750506122fc93508201013880806122ed565b8554888401850152948501948794509183019161230c565b925050506122fc94925060ff191682840152151560051b8201013880806122ed565b919082519283825260005b84811061238b575050826000602080949584010152601f8019910116010190565b60208183018101518483018201520161236a565b906004821015610a995752565b6009548110156123e35760096000527f6e1540171b6c0c960b71a7020d9f60077f6af931a8bbf590da0223dacf75c7af0190600090565b634e487b7160e01b600052603260045260246000fd5b80548210156123e35760005260206000200190600090565b600435906001600160a01b03821682036102a057565b602435906001600160a01b03821682036102a057565b60409060031901126102a0576004359060243590565b60208082019080835283518092528060408094019401926000905b83821061247d57505050505090565b8451805187528084015187850152808201516001600160a01b03168783015260608082015160ff16908801526080808201519088015260a09081015115159087015260c0909501949382019360019091019061246e565b81601f820112156102a05780359067ffffffffffffffff82116106a55760405192612509601f8401601f191660200185612298565b828452602083830101116102a057816000926020809301838601378301015290565b60609060031901126102a057600435906024359060443590565b80548210156123e3576000526005602060002091020190600090565b1561256857565b60405162461bcd60e51b815260206004820152600f60248201526e125b9d985b1a59081c9bdbdb481251608a1b6044820152606490fd5b9190820180921161068f57565b908160209103126102a0575180151581036102a05790565b81156125ce570490565b634e487b7160e01b600052601260045260246000fd5b6001600160a01b0390911660009081526006602090815260408083208484526003810183528184205494845260040190915281205490929190811561265857606481029080820460641490151715612644576126419293506125c4565b90565b634e487b7160e01b84526011600452602484fd5b5050565b67ffffffffffffffff81116106a55760051b60200190565b906040516126818161227c565b60a060ff600483958054855260018101546020860152826002820154600180871b0381166040880152851c166060860152600381015460808601520154161515910152565b9190820391821161068f57565b80518210156123e35760209160051b010190565b60095490600160401b8210156106a55761059f8260016122fc94016009556123ac565b600019811461068f5760010190565b91906000928352600560205260408320908352602052604082209182549081156127fb576127468261265c565b916127546040519384612298565b808352601f196127638261265c565b013660208501378192825b82811061277e5750929450505050565b600261278a8289612545565b5001546001600160a01b0390811690600190865b8881106127d5575b50506127b6575b5060010161276e565b856127ce916127c860019498866126d3565b5261270a565b94906127ad565b83826127e183896126d3565b5116146127f05760010161279e565b5050508438806127a6565b925050565b6000546001600160a01b0316330361281457565b60405163118cdaa760e01b8152336004820152602490fd5b60ff6002541661283857565b60405163d93c066560e01b8152600490fd5b60026001541461285b576002600155565b604051633ee5aeb560e01b8152600490fdfedb735d484b3c25915b6d87b2d2e96d3380352e63c1c335a534ca1c90201c53b7a26469706673582212200911bb183769770c1d3bbaa6277838f70337ecb85a559f2bb5a7475a2ea0f63464736f6c63430008180033",
  "linkReferences": {},
  "deployedLinkReferences": {}
}