{
  "contracts/LotteryFactory.sol": {
    "LotteryFactory": {
      "abi": [
        {
          "inputs": [
            {
              "internalType": "address",
              "name": "_cUSDToken",
              "type": "address"
            }
          ],
          "stateMutability": "nonpayable",
          "type": "constructor"
        },
        {
          "inputs": [],
          "name": "AlreadyRevealed",
          "type": "error"
        },
        {
          "inputs": [],
          "name": "BuyTicketAfterDrawTime",
          "type": "error"
        },
        {
          "inputs": [],
          "name": "EnforcedPause",
          "type": "error"
        },
        {
          "inputs": [],
          "name": "ExpectedPause",
          "type": "error"
        },
        {
          "inputs": [],
          "name": "GracePeriodNotPassed",
          "type": "error"
        },
        {
          "inputs": [],
          "name": "InsufficientAllowance",
          "type": "error"
        },
        {
          "inputs": [],
          "name": "InvalidAddress",
          "type": "error"
        },
        {
          "inputs": [],
          "name": "InvalidAmount",
          "type": "error"
        },
        {
          "inputs": [],
          "name": "InvalidNumber",
          "type": "error"
        },
        {
          "inputs": [],
          "name": "InvalidOwner",
          "type": "error"
        },
        {
          "inputs": [],
          "name": "InvalidRoom",
          "type": "error"
        },
        {
          "inputs": [],
          "name": "InvalidState",
          "type": "error"
        },
        {
          "inputs": [],
          "name": "InvalidTicket",
          "type": "error"
        },
        {
          "inputs": [],
          "name": "InvalidVerification",
          "type": "error"
        },
        {
          "inputs": [
            {
              "internalType": "address",
              "name": "owner",
              "type": "address"
            }
          ],
          "name": "OwnableInvalidOwner",
          "type": "error"
        },
        {
          "inputs": [
            {
              "internalType": "address",
              "name": "account",
              "type": "address"
            }
          ],
          "name": "OwnableUnauthorizedAccount",
          "type": "error"
        },
        {
          "inputs": [],
          "name": "ReentrancyGuardReentrantCall",
          "type": "error"
        },
        {
          "inputs": [],
          "name": "RoomNotResettable",
          "type": "error"
        },
        {
          "inputs": [],
          "name": "TransferFailed",
          "type": "error"
        },
        {
          "anonymous": false,
          "inputs": [
            {
              "indexed": true,
              "internalType": "address",
              "name": "owner",
              "type": "address"
            },
            {
              "indexed": false,
              "internalType": "uint256",
              "name": "amount",
              "type": "uint256"
            }
          ],
          "name": "FeesWithdrawn",
          "type": "event"
        },
        {
          "anonymous": false,
          "inputs": [
            {
              "indexed": true,
              "internalType": "address",
              "name": "previousOwner",
              "type": "address"
            },
            {
              "indexed": true,
              "internalType": "address",
              "name": "newOwner",
              "type": "address"
            }
          ],
          "name": "OwnershipTransferred",
          "type": "event"
        },
        {
          "anonymous": false,
          "inputs": [
            {
              "indexed": false,
              "internalType": "address",
              "name": "account",
              "type": "address"
            }
          ],
          "name": "Paused",
          "type": "event"
        },
        {
          "anonymous": false,
          "inputs": [
            {
              "indexed": true,
              "internalType": "uint256",
              "name": "fromRoomId",
              "type": "uint256"
            },
            {
              "indexed": true,
              "internalType": "uint256",
              "name": "toRoomId",
              "type": "uint256"
            },
            {
              "indexed": false,
              "internalType": "uint256",
              "name": "amount",
              "type": "uint256"
            }
          ],
          "name": "PrizeCarriedOver",
          "type": "event"
        },
        {
          "anonymous": false,
          "inputs": [
            {
              "indexed": true,
              "internalType": "uint256",
              "name": "roomId",
              "type": "uint256"
            },
            {
              "indexed": true,
              "internalType": "address",
              "name": "winner",
              "type": "address"
            },
            {
              "indexed": false,
              "internalType": "uint256",
              "name": "amount",
              "type": "uint256"
            },
            {
              "indexed": false,
              "internalType": "uint256",
              "name": "ticketId",
              "type": "uint256"
            },
            {
              "indexed": false,
              "internalType": "uint256",
              "name": "roundNumber",
              "type": "uint256"
            }
          ],
          "name": "PrizeClaimed",
          "type": "event"
        },
        {
          "anonymous": false,
          "inputs": [
            {
              "indexed": true,
              "internalType": "uint256",
              "name": "roomId",
              "type": "uint256"
            },
            {
              "indexed": false,
              "internalType": "string",
              "name": "name",
              "type": "string"
            },
            {
              "indexed": false,
              "internalType": "uint256",
              "name": "entryFee",
              "type": "uint256"
            },
            {
              "indexed": false,
              "internalType": "uint256",
              "name": "drawTime",
              "type": "uint256"
            },
            {
              "indexed": true,
              "internalType": "address",
              "name": "owner",
              "type": "address"
            }
          ],
          "name": "RoomCreated",
          "type": "event"
        },
        {
          "anonymous": false,
          "inputs": [
            {
              "indexed": true,
              "internalType": "uint256",
              "name": "roomId",
              "type": "uint256"
            },
            {
              "indexed": false,
              "internalType": "uint256",
              "name": "newRoundNumber",
              "type": "uint256"
            },
            {
              "indexed": false,
              "internalType": "uint256",
              "name": "newDrawTime",
              "type": "uint256"
            }
          ],
          "name": "RoomReset",
          "type": "event"
        },
        {
          "anonymous": false,
          "inputs": [
            {
              "indexed": true,
              "internalType": "uint256",
              "name": "roomId",
              "type": "uint256"
            },
            {
              "indexed": false,
              "internalType": "enum LotteryFactory.RoomState",
              "name": "newState",
              "type": "uint8"
            },
            {
              "indexed": false,
              "internalType": "uint256",
              "name": "roundNumber",
              "type": "uint256"
            }
          ],
          "name": "RoomStateUpdated",
          "type": "event"
        },
        {
          "anonymous": false,
          "inputs": [
            {
              "indexed": true,
              "internalType": "uint256",
              "name": "roomId",
              "type": "uint256"
            },
            {
              "indexed": true,
              "internalType": "address",
              "name": "player",
              "type": "address"
            },
            {
              "indexed": false,
              "internalType": "uint8",
              "name": "number",
              "type": "uint8"
            },
            {
              "indexed": false,
              "internalType": "uint256",
              "name": "ticketId",
              "type": "uint256"
            },
            {
              "indexed": false,
              "internalType": "uint256",
              "name": "roundNumber",
              "type": "uint256"
            }
          ],
          "name": "TicketPurchased",
          "type": "event"
        },
        {
          "anonymous": false,
          "inputs": [
            {
              "indexed": false,
              "internalType": "address",
              "name": "account",
              "type": "address"
            }
          ],
          "name": "Unpaused",
          "type": "event"
        },
        {
          "anonymous": false,
          "inputs": [
            {
              "indexed": true,
              "internalType": "uint256",
              "name": "roomId",
              "type": "uint256"
            },
            {
              "indexed": false,
              "internalType": "uint8",
              "name": "winningNumber",
              "type": "uint8"
            },
            {
              "indexed": false,
              "internalType": "uint256",
              "name": "roundNumber",
              "type": "uint256"
            }
          ],
          "name": "WinningNumberRevealed",
          "type": "event"
        },
        {
          "inputs": [],
          "name": "GRACE_PERIOD",
          "outputs": [
            {
              "internalType": "uint256",
              "name": "",
              "type": "uint256"
            }
          ],
          "stateMutability": "view",
          "type": "function"
        },
        {
          "inputs": [],
          "name": "PLATFORM_FEE",
          "outputs": [
            {
              "internalType": "uint256",
              "name": "",
              "type": "uint256"
            }
          ],
          "stateMutability": "view",
          "type": "function"
        },
        {
          "inputs": [
            {
              "internalType": "uint256",
              "name": "",
              "type": "uint256"
            }
          ],
          "name": "activeRoomIds",
          "outputs": [
            {
              "internalType": "uint256",
              "name": "",
              "type": "uint256"
            }
          ],
          "stateMutability": "view",
          "type": "function"
        },
        {
          "inputs": [
            {
              "internalType": "uint256",
              "name": "roomId",
              "type": "uint256"
            },
            {
              "internalType": "uint8",
              "name": "number",
              "type": "uint8"
            }
          ],
          "name": "buyTicket",
          "outputs": [],
          "stateMutability": "nonpayable",
          "type": "function"
        },
        {
          "inputs": [],
          "name": "cUSDToken",
          "outputs": [
            {
              "internalType": "contract IERC20",
              "name": "",
              "type": "address"
            }
          ],
          "stateMutability": "view",
          "type": "function"
        },
        {
          "inputs": [
            {
              "internalType": "uint256",
              "name": "roomId",
              "type": "uint256"
            },
            {
              "internalType": "uint256",
              "name": "ticketId",
              "type": "uint256"
            }
          ],
          "name": "claimPrize",
          "outputs": [],
          "stateMutability": "nonpayable",
          "type": "function"
        },
        {
          "inputs": [],
          "name": "collectedFees",
          "outputs": [
            {
              "internalType": "uint256",
              "name": "",
              "type": "uint256"
            }
          ],
          "stateMutability": "view",
          "type": "function"
        },
        {
          "inputs": [
            {
              "internalType": "string",
              "name": "name",
              "type": "string"
            },
            {
              "internalType": "string",
              "name": "description",
              "type": "string"
            },
            {
              "internalType": "uint256",
              "name": "entryFee",
              "type": "uint256"
            },
            {
              "internalType": "uint256",
              "name": "drawTime",
              "type": "uint256"
            },
            {
              "internalType": "bytes32",
              "name": "encryptedWinningNumber",
              "type": "bytes32"
            }
          ],
          "name": "createRoom",
          "outputs": [],
          "stateMutability": "nonpayable",
          "type": "function"
        },
        {
          "inputs": [],
          "name": "emergencyPause",
          "outputs": [],
          "stateMutability": "nonpayable",
          "type": "function"
        },
        {
          "inputs": [
            {
              "internalType": "uint256",
              "name": "amount",
              "type": "uint256"
            }
          ],
          "name": "emergencyWithdrawTokens",
          "outputs": [],
          "stateMutability": "nonpayable",
          "type": "function"
        },
        {
          "inputs": [
            {
              "internalType": "uint256",
              "name": "roomId",
              "type": "uint256"
            }
          ],
          "name": "forceCloseRoom",
          "outputs": [],
          "stateMutability": "nonpayable",
          "type": "function"
        },
        {
          "inputs": [
            {
              "internalType": "uint256",
              "name": "roomId",
              "type": "uint256"
            }
          ],
          "name": "getCarryOverAmount",
          "outputs": [
            {
              "internalType": "uint256",
              "name": "",
              "type": "uint256"
            }
          ],
          "stateMutability": "view",
          "type": "function"
        },
        {
          "inputs": [
            {
              "internalType": "uint256",
              "name": "roomId",
              "type": "uint256"
            }
          ],
          "name": "getCurrentRound",
          "outputs": [
            {
              "internalType": "uint256",
              "name": "",
              "type": "uint256"
            }
          ],
          "stateMutability": "view",
          "type": "function"
        },
        {
          "inputs": [
            {
              "internalType": "uint256",
              "name": "roomId",
              "type": "uint256"
            }
          ],
          "name": "getCurrentRoundPlayerCount",
          "outputs": [
            {
              "internalType": "uint256",
              "name": "",
              "type": "uint256"
            }
          ],
          "stateMutability": "view",
          "type": "function"
        },
        {
          "inputs": [
            {
              "internalType": "uint256",
              "name": "roomId",
              "type": "uint256"
            },
            {
              "internalType": "uint256",
              "name": "roundNumber",
              "type": "uint256"
            }
          ],
          "name": "getPlayerCount",
          "outputs": [
            {
              "internalType": "uint256",
              "name": "",
              "type": "uint256"
            }
          ],
          "stateMutability": "view",
          "type": "function"
        },
        {
          "inputs": [
            {
              "internalType": "uint256",
              "name": "roomId",
              "type": "uint256"
            }
          ],
          "name": "getPrizePool",
          "outputs": [
            {
              "internalType": "uint256",
              "name": "",
              "type": "uint256"
            }
          ],
          "stateMutability": "view",
          "type": "function"
        },
        {
          "inputs": [
            {
              "internalType": "uint256",
              "name": "roomId",
              "type": "uint256"
            }
          ],
          "name": "getRoomDetails",
          "outputs": [
            {
              "components": [
                {
                  "internalType": "uint256",
                  "name": "id",
                  "type": "uint256"
                },
                {
                  "internalType": "string",
                  "name": "name",
                  "type": "string"
                },
                {
                  "internalType": "string",
                  "name": "description",
                  "type": "string"
                },
                {
                  "internalType": "uint256",
                  "name": "entryFee",
                  "type": "uint256"
                },
                {
                  "internalType": "uint256",
                  "name": "drawTime",
                  "type": "uint256"
                },
                {
                  "internalType": "uint256",
                  "name": "prizePool",
                  "type": "uint256"
                },
                {
                  "internalType": "bytes32",
                  "name": "encryptedWinningNumber",
                  "type": "bytes32"
                },
                {
                  "internalType": "uint8",
                  "name": "winningNumber",
                  "type": "uint8"
                },
                {
                  "internalType": "bool",
                  "name": "revealed",
                  "type": "bool"
                },
                {
                  "internalType": "enum LotteryFactory.RoomState",
                  "name": "state",
                  "type": "uint8"
                },
                {
                  "internalType": "uint256",
                  "name": "carryOverAmount",
                  "type": "uint256"
                },
                {
                  "internalType": "uint256",
                  "name": "roundNumber",
                  "type": "uint256"
                },
                {
                  "internalType": "bool",
                  "name": "feesCollected",
                  "type": "bool"
                },
                {
                  "internalType": "uint256",
                  "name": "revealTime",
                  "type": "uint256"
                }
              ],
              "internalType": "struct LotteryFactory.Room",
              "name": "",
              "type": "tuple"
            }
          ],
          "stateMutability": "view",
          "type": "function"
        },
        {
          "inputs": [
            {
              "internalType": "uint256",
              "name": "roomId",
              "type": "uint256"
            },
            {
              "internalType": "address",
              "name": "player",
              "type": "address"
            }
          ],
          "name": "getTicketsForAddress",
          "outputs": [
            {
              "components": [
                {
                  "internalType": "uint256",
                  "name": "id",
                  "type": "uint256"
                },
                {
                  "internalType": "uint256",
                  "name": "roomId",
                  "type": "uint256"
                },
                {
                  "internalType": "address",
                  "name": "player",
                  "type": "address"
                },
                {
                  "internalType": "uint8",
                  "name": "number",
                  "type": "uint8"
                },
                {
                  "internalType": "uint256",
                  "name": "roundNumber",
                  "type": "uint256"
                }
              ],
              "internalType": "struct LotteryFactory.Ticket[]",
              "name": "",
              "type": "tuple[]"
            }
          ],
          "stateMutability": "view",
          "type": "function"
        },
        {
          "inputs": [
            {
              "internalType": "uint256",
              "name": "roomId",
              "type": "uint256"
            },
            {
              "internalType": "uint256",
              "name": "roundNumber",
              "type": "uint256"
            }
          ],
          "name": "getTicketsForRound",
          "outputs": [
            {
              "components": [
                {
                  "internalType": "uint256",
                  "name": "id",
                  "type": "uint256"
                },
                {
                  "internalType": "uint256",
                  "name": "roomId",
                  "type": "uint256"
                },
                {
                  "internalType": "address",
                  "name": "player",
                  "type": "address"
                },
                {
                  "internalType": "uint8",
                  "name": "number",
                  "type": "uint8"
                },
                {
                  "internalType": "uint256",
                  "name": "roundNumber",
                  "type": "uint256"
                }
              ],
              "internalType": "struct LotteryFactory.Ticket[]",
              "name": "",
              "type": "tuple[]"
            }
          ],
          "stateMutability": "view",
          "type": "function"
        },
        {
          "inputs": [],
          "name": "getTotalCollectedFees",
          "outputs": [
            {
              "internalType": "uint256",
              "name": "",
              "type": "uint256"
            }
          ],
          "stateMutability": "view",
          "type": "function"
        },
        {
          "inputs": [
            {
              "internalType": "uint256",
              "name": "roomId",
              "type": "uint256"
            }
          ],
          "name": "getWinningNumber",
          "outputs": [
            {
              "internalType": "uint8",
              "name": "",
              "type": "uint8"
            }
          ],
          "stateMutability": "view",
          "type": "function"
        },
        {
          "inputs": [],
          "name": "isPaused",
          "outputs": [
            {
              "internalType": "bool",
              "name": "",
              "type": "bool"
            }
          ],
          "stateMutability": "view",
          "type": "function"
        },
        {
          "inputs": [
            {
              "internalType": "uint256",
              "name": "roomId",
              "type": "uint256"
            },
            {
              "internalType": "uint256",
              "name": "roundNumber",
              "type": "uint256"
            },
            {
              "internalType": "uint256",
              "name": "ticketId",
              "type": "uint256"
            }
          ],
          "name": "isTicketClaimed",
          "outputs": [
            {
              "internalType": "bool",
              "name": "",
              "type": "bool"
            }
          ],
          "stateMutability": "view",
          "type": "function"
        },
        {
          "inputs": [],
          "name": "listActiveRooms",
          "outputs": [
            {
              "internalType": "uint256[]",
              "name": "",
              "type": "uint256[]"
            }
          ],
          "stateMutability": "view",
          "type": "function"
        },
        {
          "inputs": [],
          "name": "owner",
          "outputs": [
            {
              "internalType": "address",
              "name": "",
              "type": "address"
            }
          ],
          "stateMutability": "view",
          "type": "function"
        },
        {
          "inputs": [],
          "name": "paused",
          "outputs": [
            {
              "internalType": "bool",
              "name": "",
              "type": "bool"
            }
          ],
          "stateMutability": "view",
          "type": "function"
        },
        {
          "inputs": [
            {
              "internalType": "uint256",
              "name": "",
              "type": "uint256"
            },
            {
              "internalType": "address",
              "name": "",
              "type": "address"
            },
            {
              "internalType": "uint256",
              "name": "",
              "type": "uint256"
            }
          ],
          "name": "playerTicketIds",
          "outputs": [
            {
              "internalType": "uint256",
              "name": "",
              "type": "uint256"
            }
          ],
          "stateMutability": "view",
          "type": "function"
        },
        {
          "inputs": [],
          "name": "renounceOwnership",
          "outputs": [],
          "stateMutability": "nonpayable",
          "type": "function"
        },
        {
          "inputs": [
            {
              "internalType": "uint256",
              "name": "roomId",
              "type": "uint256"
            },
            {
              "internalType": "uint256",
              "name": "drawTime",
              "type": "uint256"
            },
            {
              "internalType": "bytes32",
              "name": "encryptedWinningNumber",
              "type": "bytes32"
            }
          ],
          "name": "resetRoom",
          "outputs": [],
          "stateMutability": "nonpayable",
          "type": "function"
        },
        {
          "inputs": [],
          "name": "resumeOperations",
          "outputs": [],
          "stateMutability": "nonpayable",
          "type": "function"
        },
        {
          "inputs": [
            {
              "internalType": "uint256",
              "name": "roomId",
              "type": "uint256"
            },
            {
              "internalType": "bytes32",
              "name": "privateKey",
              "type": "bytes32"
            },
            {
              "internalType": "uint8",
              "name": "winningNumber",
              "type": "uint8"
            }
          ],
          "name": "revealWinningNumber",
          "outputs": [],
          "stateMutability": "nonpayable",
          "type": "function"
        },
        {
          "inputs": [],
          "name": "roomCount",
          "outputs": [
            {
              "internalType": "uint256",
              "name": "",
              "type": "uint256"
            }
          ],
          "stateMutability": "view",
          "type": "function"
        },
        {
          "inputs": [
            {
              "internalType": "uint256",
              "name": "",
              "type": "uint256"
            },
            {
              "internalType": "uint256",
              "name": "",
              "type": "uint256"
            },
            {
              "internalType": "uint256",
              "name": "",
              "type": "uint256"
            }
          ],
          "name": "roomTicketsByRound",
          "outputs": [
            {
              "internalType": "uint256",
              "name": "id",
              "type": "uint256"
            },
            {
              "internalType": "uint256",
              "name": "roomId",
              "type": "uint256"
            },
            {
              "internalType": "address",
              "name": "player",
              "type": "address"
            },
            {
              "internalType": "uint8",
              "name": "number",
              "type": "uint8"
            },
            {
              "internalType": "uint256",
              "name": "roundNumber",
              "type": "uint256"
            }
          ],
          "stateMutability": "view",
          "type": "function"
        },
        {
          "inputs": [
            {
              "internalType": "uint256",
              "name": "",
              "type": "uint256"
            }
          ],
          "name": "rooms",
          "outputs": [
            {
              "internalType": "uint256",
              "name": "id",
              "type": "uint256"
            },
            {
              "internalType": "string",
              "name": "name",
              "type": "string"
            },
            {
              "internalType": "string",
              "name": "description",
              "type": "string"
            },
            {
              "internalType": "uint256",
              "name": "entryFee",
              "type": "uint256"
            },
            {
              "internalType": "uint256",
              "name": "drawTime",
              "type": "uint256"
            },
            {
              "internalType": "uint256",
              "name": "prizePool",
              "type": "uint256"
            },
            {
              "internalType": "bytes32",
              "name": "encryptedWinningNumber",
              "type": "bytes32"
            },
            {
              "internalType": "uint8",
              "name": "winningNumber",
              "type": "uint8"
            },
            {
              "internalType": "bool",
              "name": "revealed",
              "type": "bool"
            },
            {
              "internalType": "enum LotteryFactory.RoomState",
              "name": "state",
              "type": "uint8"
            },
            {
              "internalType": "uint256",
              "name": "carryOverAmount",
              "type": "uint256"
            },
            {
              "internalType": "uint256",
              "name": "roundNumber",
              "type": "uint256"
            },
            {
              "internalType": "bool",
              "name": "feesCollected",
              "type": "bool"
            },
            {
              "internalType": "uint256",
              "name": "revealTime",
              "type": "uint256"
            }
          ],
          "stateMutability": "view",
          "type": "function"
        },
        {
          "inputs": [
            {
              "internalType": "uint256",
              "name": "",
              "type": "uint256"
            },
            {
              "internalType": "uint256",
              "name": "",
              "type": "uint256"
            },
            {
              "internalType": "uint256",
              "name": "",
              "type": "uint256"
            }
          ],
          "name": "ticketClaimed",
          "outputs": [
            {
              "internalType": "bool",
              "name": "",
              "type": "bool"
            }
          ],
          "stateMutability": "view",
          "type": "function"
        },
        {
          "inputs": [
            {
              "internalType": "address",
              "name": "newOwner",
              "type": "address"
            }
          ],
          "name": "transferOwnership",
          "outputs": [],
          "stateMutability": "nonpayable",
          "type": "function"
        },
        {
          "inputs": [
            {
              "internalType": "uint256",
              "name": "amount",
              "type": "uint256"
            }
          ],
          "name": "withdrawFees",
          "outputs": [],
          "stateMutability": "nonpayable",
          "type": "function"
        }
      ],
      "evm": {
        "bytecode": {
          "linkReferences": {},
          "object": "6080346100ca57601f61255438819003918201601f19168301916001600160401b038311848410176100cf578084926020946040528339810103126100ca57516001600160a01b0390818116908190036100ca5733156100b15760005460018060a01b0319903382821617600055604051933391167f8be0079c531659141344cd1fd0a4f28419497f9722a3daafe3b4186f6b6457e0600080a360018055600a541617600a5561246e90816100e68239f35b604051631e4fbdf760e01b815260006004820152602490fd5b600080fd5b634e487b7160e01b600052604160045260246000fdfe6080604052600436101561001257600080fd5b60003560e01c80630ca057be14611d155780630ea86ad814611cec578063148b02c514611cb05780631bae0ac814611bb25780632270726514611b89578063294550de1461196157806334fbc9a1146119455780633e6df5041461184a57806351858e27146117f057806355ca6758146117585780635c975abb146107de5780635e318e07146116655780636912cbb0146114855780636aa15f84146112da5780636cb4eb4b14610f3d578063715018a614610ee457806374ecf4b514610e985780637822be4a14610e5c5780637b15414014610a7b5780637d4c12bb14610a5a5780637d58f1ab14610a0b5780638da5cb5b146109e25780639003adfe1461073e5780639f11b148146108e6578063a6e1d0161461087c578063b0b3945f14610801578063b187bd26146107de578063b4bb477d1461077a578063c1a287e21461075c578063c7a84ed71461073e578063d5e6c6fa146106fa578063d778199b146106fa578063df93a4e3146106dc578063ea8dc8d01461033a578063f2fde38b146102aa578063fd28c7ec1461026e5763fef59b95146101b357600080fd5b3461026957600036600319011261026957604051806008548083526020809301809160086000527ff3f7a9fe364faab93b216da50a3214154f22a0a2b415b23a84c8169e8b636ee39060005b8682821061025557868661021582880383611f07565b604051928392818401908285525180915260408401929160005b82811061023e57505050500390f35b83518552869550938101939281019260010161022f565b8354855290930192600192830192016101ff565b600080fd5b346102695760203660031901126102695760043561028f60075482106121ae565b60005260036020526020600860406000200154604051908152f35b34610269576020366003190112610269576004356001600160a01b0381811691829003610269576102d96123ab565b811561032157600054826bffffffffffffffffffffffff60a01b821617600055167f8be0079c531659141344cd1fd0a4f28419497f9722a3daafe3b4186f6b6457e0600080a3005b604051631e4fbdf760e01b815260006004820152602490fd5b346102695760403660031901126102695760043560249081359160ff8316809303610269576103676123f5565b61036f6123d7565b61037c60075483106121ae565b816000526020906003825260406000209060048201544210156106a7576063851161069557600a54604051636eb1769f60e11b815233600482015230838201526001600160a01b03939184168582604481845afa91821561064857600092610666575b5060038301918254809110610654576000916064889260405194859384926323b872dd60e01b8452336004850152308b85015260448401525af19081156106485760009161061b575b501561060957549085600052600585526040600020936009820193845495866000528752604060002054956040519061046082611eeb565b878252888201938a8552604083019033825260608401908d825260808501938085528d60005260058d526040600020906000528c526040600020968754600160401b98898210156105f457906104bb91600182018155612192565b9690966105df5790600395949392915187555160018701556002860192511682549160ff60a01b905160a01b16916affffffffffffffffffffff60a81b161717905551910155876000526004875260406000203360005287526040600020908154928310156105cb5750916105588661053f8461058d966001600597018155612068565b90919082549060031b91821b91600019901b1916179055565b87600052600687526040600020855460005287526040600020866000528752604060002060ff19815416905501918254612285565b9055549160405194855284015260408301527f1175289cd9fa17f9b8d37c83f3842a72f5418831c6b5bd6df64fc96bdf3e2bba60603393a360018055005b634e487b7160e01b60009081526041600452fd5b87634e487b7160e01b60005260006004526000fd5b88634e487b7160e01b60005260416004526000fd5b6040516312171d8360e31b8152600490fd5b61063b9150863d8811610641575b6106338183611f07565b8101906121ec565b88610428565b503d610629565b6040513d6000823e3d90fd5b6040516313be252b60e01b8152600490fd5b9091508581813d831161068e575b61067e8183611f07565b81010312610269575190886103df565b503d610674565b6040516374cbd35f60e01b8152600490fd5b50600080516020612419833981519152916009604092015482519160018352820152a260405163dcf14c8f60e01b8152600490fd5b34610269576000366003190112610269576020600754604051908152f35b346102695761070836612178565b916000526006602052604060002090600052602052604060002090600052602052602060ff604060002054166040519015158152f35b34610269576000366003190112610269576020600954604051908152f35b34610269576000366003190112610269576020604051620151808152f35b346102695760603660031901126102695761079361210b565b60443590600435600052600460205260406000209060018060a01b031660005260205260406000208054821015610269576020916107d091612068565b90546040519160031b1c8152f35b3461026957600036600319011261026957602060ff600254166040519015158152f35b346102695761080f36612178565b916000526005602052604060002090600052602052604060002080548210156102695760a09161083e91612192565b5080549060ff60018201549160036002820154910154926040519485526020850152600180861b0381166040850152841c1660608301526080820152f35b34610269576000366003190112610269576108956123ab565b60025460ff8116156108d45760ff19166002557f5db9ee0a495bf2e6ff9c91a7834c1ba4fdd244a5e8aa4e537bd38aeae4b073aa6020604051338152a1005b604051638dfc202b60e01b8152600490fd5b34610269576020366003190112610269576004356109026123ab565b61090a6123f5565b61091760075482106121ae565b806000526003602052604060002060078101805460ff8160101c1660048110156109cc576002036109ba57600b8301546201518081018091116109a45742106109925762ff0000191662030000179055600901546040805160038152602081019290925260008051602061241983398151915291a260018055005b60405163450c8b7b60e11b8152600490fd5b634e487b7160e01b600052601160045260246000fd5b60405163baf3f0f760e01b8152600490fd5b634e487b7160e01b600052602160045260246000fd5b34610269576000366003190112610269576000546040516001600160a01b039091168152602090f35b34610269576020366003190112610269576020610a52600435600754811090610a33826121ae565b8060005260038452610a4d600960406000200154926121ae565b6122c4565b604051908152f35b34610269576020610a52610a6d36612080565b90610a4d60075482106121ae565b3461026957610a8936612080565b610a916123f5565b610a996123d7565b610aa660075483106121ae565b8160005260036020526040600020906005602052604060002060098301549081600052602052604060002054821015610e3857836000526005602052604060002081600052602052610afc826040600020612192565b5081600382015403610e385760020154336001600160a01b03821603610e4a5760ff806007860154169160a01c1603610e385783600052600660205260406000208160005260205260406000208260005260205260ff60406000205416610e38578360005260066020526040600020906000526020526040600020816000526020526040600020600160ff19825416179055600083600052600560205260406000206009840154600052602052604060002091600083549060ff600787015416905b828110610e005750505081610cd8575b5060016000928054906007860154945b828110610c69575b505050610bf4575b60018055005b60008051602061241983398151915292604092600992610c3d57506203000062ff0000196007830154161760078201550154815190600382526020820152a25b80808080610bee565b62030000906000600584015562ff000019161760078201550154815190600382526020820152a2610c34565b610c738183612192565b5060ff600281891692015460a01c161480610ca3575b610c9557600101610bde565b505050506000858080610be6565b508760005260066020526040600020600988015460005260205260406000208160005260205260ff6040600020541615610c89565b60058401549081600a810204600a14821517156109a457610d006064600a8402048093612264565b91600a86019060ff82541615610ddf575b50508215610dc957600a5460405163a9059cbb60e01b8152336004820152848404602482015290602090829060449082906000906001600160a01b03165af190811561064857600091610daa575b501561060957600985015490836040519304835260208301526040820152847f785817d289e9ce1881ef42379ab98f4f7513f0d3bb1f9a9e060afb4cd2b67eab60603393a384610bce565b610dc3915060203d602011610641576106338183611f07565b87610d5f565b634e487b7160e01b600052601260045260246000fd5b610deb90600954612285565b600955805460ff191660011790558680610d11565b8160ff6002610e0f848a612192565b50015460a01c1614610e24575b600101610bbe565b93610e306001916122b5565b949050610e1c565b6040516319a1b6d960e21b8152600490fd5b6040516349e27cff60e01b8152600490fd5b3461026957602036600319011261026957600435610e7d60075482106121ae565b60005260036020526020600560406000200154604051908152f35b3461026957602036600319011261026957600435610eb960075482106121ae565b600052600360205260076040600020015460ff8160081c16156109ba5760209060ff60405191168152f35b3461026957600036600319011261026957610efd6123ab565b600080546001600160a01b0319811682556001600160a01b03167f8be0079c531659141344cd1fd0a4f28419497f9722a3daafe3b4186f6b6457e08280a3005b346102695760a03660031901126102695760043567ffffffffffffffff811161026957610f6e903690600401612121565b60243567ffffffffffffffff811161026957610f8e903690600401612121565b90610f976123ab565b610f9f6123d7565b604435156112c8576007548060005260036020526040600020818155825167ffffffffffffffff81116111f357610fd96001830154611e94565b601f8111611281575b506020601f8211600114611214579080600192600091611209575b50600019600383901b1c191690821b179101555b8060005260036020526002604060002001835167ffffffffffffffff81116111f35761103d8254611e94565b601f81116111ab575b506020601f8211600114611142578192939495600092611137575b50508160011b916000199060031b1c19161790555b8060005260036020526000600b604082206044356003820155606435600482015582600582015560843560068201556007810162ffff0019815416905582600882015560016009820155600a810160ff19815416905501556110d781612292565b7f7881671893dfe704dd6a454d81b4be972b60a6fa6ffcbf34b4f833e0b0367a1561110d60405193606085526060850190611fce565b92604435602082015260643560408201528033940390a3600754600181018091116109a457600755005b015190508580611061565b8260005260206000209060005b601f1984168110611193575060019394959683601f1981161061117a575b505050811b019055611076565b015160001960f88460031b161c1916905585808061116d565b9091602060018192858b01518155019301910161114f565b826000526020600020601f830160051c810191602084106111e9575b601f0160051c01905b8181106111dd5750611046565b600081556001016111d0565b90915081906111c7565b634e487b7160e01b600052604160045260246000fd5b905085015187610ffd565b6001830160005260206000209060005b601f198416811061126957509160019291839282601f19811610611250575b5050811b01910155611011565b87015160001960f88460031b161c191690558780611243565b9091602060018192858a015181550193019101611224565b600183016000526020600020601f830160051c8101602084106112c1575b601f830160051c820181106112b5575050610fe2565b6000815560010161129f565b508061129f565b60405163162908e360e11b8152600490fd5b34610269576060366003190112610269576004356024356112f96123ab565b6113016123d7565b61130e60075483106121ae565b8160005260038060205260406000209060078201805460ff8160101c1660048110156109cc5760038114159081611479575b5061146757846004850155604435600685015562ffffff191690556009820191825490600191600181018091116109a457600b85949392600092899755600a810160ff1981541690550155600091600090600854915b82811061140a575b50505050917f64848abd03b4d0ea767a60ba27508c8e64d53388d6dfd9c1b8a8b0c262b034e3604060008051602061241983398151915295938195156113fc575b54938151908582526020820152a2815190600082526020820152a2005b61140584612292565b6113df565b9091929394958061141a8361201b565b905490851b1c146114345750830190879594939291611396565b9594507f64848abd03b4d0ea767a60ba27508c8e64d53388d6dfd9c1b8a8b0c262b034e39250604091508490508161139e565b6040516308f3594160e21b8152600490fd5b60029150141587611340565b34610269576040366003190112610269576004356114a161210b565b6114ae60075483106121ae565b8160005260206004815260406000209160018060a01b0380911692836000528252604060002092604051808585829754938481520190600052856000209260005b8782821061164f5750505061150692500385611f07565b83519261151284612204565b936115206040519586611f07565b80855261152f601f1991612204565b018160005b8281106116165750505085600052600381526009604060002001549560005b8651811015611604576115668188612271565b5188805b611579575b5050600101611553565b836000526005808652604060002082600052865260406000205483106115ab575b5080156109a457600019018061156a565b84600052855260406000208160005285526115d36115cd836040600020612192565b5061221c565b86886040830151160361159a5790508291506115f160019389612271565b526115fc8188612271565b50908961156f565b604051806116128882612096565b0390f35b60405161162281611eeb565b60008152600083820152600060408201526000606082015260006080820152828289010152018290611534565b855484526001958601958a9550930192016114ef565b34610269576020366003190112610269576004356116816123ab565b6116896123f5565b801561174f575b6009548082116112c857816116a491612264565b600955600a546000805460405163a9059cbb60e01b81526001600160a01b0391821660048201526024810185905290929091602091839160449183919087165af190811561064857600091611730575b50156106095760207fc0819c13be868895eb93e40eaceb96de976442fa1d404e5c55f14bb65a8c489a916000541692604051908152a260018055005b611749915060203d602011610641576106338183611f07565b836116f4565b50600954611690565b346102695761176636612080565b9061177460075482106121ae565b60005260209060056020526040600020906000526020526040600020805461179b81612204565b916117a96040519384611f07565b81835260208301906000526020600020936000915b8383106117d357604051806116128782612096565b6004826001926117e28961221c565b8152019601920191946117be565b34610269576000366003190112610269576118096123ab565b6118116123d7565b600160ff1960025416176002557f62e78cea01bee320cd4e420270b5ea74000d11b0c9f74754ebdbfc544b05a2586020604051338152a1005b3461026957602080600319360112610269576004356118676123ab565b600a546040516370a0823160e01b81523060048201526001600160a01b0391821692908481602481875afa90811561064857600091611918575b5081116112c8576000805460405163a9059cbb60e01b815293166001600160a01b031660048401526024830191909152909183918391908290816044810103925af1918215610648576000926118fb575b50501561060957005b6119119250803d10610641576106338183611f07565b81806118f2565b90508481813d831161193e575b61192f8183611f07565b810103126102695751856118a1565b503d611925565b34610269576000366003190112610269576020604051600a8152f35b346102695760203660031901126102695760043560006101a060405161198681611ece565b82815260606020820152606060408201528260608201528260808201528260a08201528260c08201528260e0820152826101008201528261012082015282610140820152826101608201528261018082015201526119e760075482106121ae565b6000526003602052604060002060405190611a0182611ece565b80548252611a1160018201611f29565b6020830152611a2260028201611f29565b60408301526003810154606083015260048101546080830152600581015460a0830152600681015460c083015260078101549060ff821660e084015260ff8260081c161515610100840152600460ff8360101c1610156109cc5760ff600b9260101c166101208401526008810154610140840152600981015461016084015260ff600a82015416151561018084015201546101a0820152604051809160208252805160208301526101a0611b00611aea60208401516101c060408701526101e0860190611fce565b6040840151858203601f19016060870152611fce565b9160608101516080850152608081015160a085015260a081015160c085015260c081015160e085015260ff60e0820151166101008501526101008101511515610120850152611b5961012082015161014086019061200e565b61014081015161016085015261016081015161018085015261018081015115158285015201516101c08301520390f35b3461026957602036600319011261026957600435600854811015610269576107d060209161201b565b3461026957602036600319011261026957600435600052600360205260406000208054611be160018301611f29565b91611bee60028201611f29565b60038201549160048101546005820154611c926006840154600785015490600886015493600987015495611c54600b60ff600a8b01541699015499611c466040519e8f9e8f6101c09181528160208201520190611fce565b8d810360408f015290611fce565b9960608c015260808b015260a08a015260c089015260ff811660e089015260ff8160081c16151561010089015260ff61012089019160101c1661200e565b61014086015261016085015215156101808401526101a08301520390f35b3461026957602036600319011261026957600435611cd160075482106121ae565b60005260036020526020600960406000200154604051908152f35b3461026957600036600319011261026957600a546040516001600160a01b039091168152602090f35b346102695760603660031901126102695760043560443560ff81169081810361026957611d406123ab565b611d486123d7565b611d5560075484106121ae565b826000526003602052604060002091600783019182549060ff8260081c16611e82578560005260036020526006604060002091600054600984015460405191602083019360ff60f81b9060f81b16845260243560218401528a60418401526bffffffffffffffffffffffff199060601b166061830152607582015260758152611ddd81611eeb565b5190209101541480611e77575b15611e65577f8bfa46b879d2dfdb649ace427170adf3799f490b448d5b3a7fd3507b13ef724160406009600080516020612419833981519152968296620200008a966101008962ff0000199261ffff191617171617905542600b8201550154938151908152846020820152a2815190600282526020820152a2005b6040516304bc4ab760e31b8152600490fd5b506063821115611dea565b60405163a89ac15160e01b8152600490fd5b90600182811c92168015611ec4575b6020831014611eae57565b634e487b7160e01b600052602260045260246000fd5b91607f1691611ea3565b6101c0810190811067ffffffffffffffff8211176111f357604052565b60a0810190811067ffffffffffffffff8211176111f357604052565b90601f8019910116810190811067ffffffffffffffff8211176111f357604052565b90604051918260008254611f3c81611e94565b90818452602094600191600181169081600014611fac5750600114611f6d575b505050611f6b92500383611f07565b565b600090815285812095935091905b818310611f94575050611f6b9350820101388080611f5c565b85548884018501529485019487945091830191611f7b565b92505050611f6b94925060ff191682840152151560051b820101388080611f5c565b919082519283825260005b848110611ffa575050826000602080949584010152601f8019910116010190565b602081830181015184830182015201611fd9565b9060048210156109cc5752565b6008548110156120525760086000527ff3f7a9fe364faab93b216da50a3214154f22a0a2b415b23a84c8169e8b636ee30190600090565b634e487b7160e01b600052603260045260246000fd5b80548210156120525760005260206000200190600090565b6040906003190112610269576004359060243590565b60208082019080835283518092528060408094019401926000905b8382106120c057505050505090565b8451805187528084015187850152808201516001600160a01b03168783015260608082015160ff16908801526080908101519087015260a090950194938201936001909101906120b1565b602435906001600160a01b038216820361026957565b81601f820112156102695780359067ffffffffffffffff82116111f35760405192612156601f8401601f191660200185611f07565b8284526020838301011161026957816000926020809301838601378301015290565b606090600319011261026957600435906024359060443590565b80548210156120525760005260206000209060021b0190600090565b156121b557565b60405162461bcd60e51b815260206004820152600f60248201526e125b9d985b1a59081c9bdbdb481251608a1b6044820152606490fd5b90816020910312610269575180151581036102695790565b67ffffffffffffffff81116111f35760051b60200190565b9060405161222981611eeb565b825481526001830154602082015260028301546001600160a01b038116604083015260a01c60ff166060820152600392909201546080830152565b919082039182116109a457565b80518210156120525760209160051b010190565b919082018092116109a457565b60085490600160401b8210156111f35761053f826001611f6b940160085561201b565b60001981146109a45760010190565b91906000928352600560205260408320908352602052604082209182549081156123a6576122f182612204565b916122ff6040519384611f07565b808352601f1961230e82612204565b013660208501378192825b8281106123295750929450505050565b60026123358289612192565b5001546001600160a01b0390811690600190865b888110612380575b5050612361575b50600101612319565b85612379916123736001949886612271565b526122b5565b9490612358565b838261238c8389612271565b51161461239b57600101612349565b505050843880612351565b925050565b6000546001600160a01b031633036123bf57565b60405163118cdaa760e01b8152336004820152602490fd5b60ff600254166123e357565b60405163d93c066560e01b8152600490fd5b600260015414612406576002600155565b604051633ee5aeb560e01b8152600490fdfedb735d484b3c25915b6d87b2d2e96d3380352e63c1c335a534ca1c90201c53b7a2646970667358221220f881657df3435dc2f5e8d7b72608e9a7bed2d284aef312cc8a323ce88dff626964736f6c63430008180033",
          "opcodes": "PUSH1 0x80 CALLVALUE PUSH2 0xCA JUMPI PUSH1 0x1F PUSH2 0x2554 CODESIZE DUP2 SWAP1 SUB SWAP2 DUP3 ADD PUSH1 0x1F NOT AND DUP4 ADD SWAP2 PUSH1 0x1 PUSH1 0x1 PUSH1 0x40 SHL SUB DUP4 GT DUP5 DUP5 LT OR PUSH2 0xCF JUMPI DUP1 DUP5 SWAP3 PUSH1 0x20 SWAP5 PUSH1 0x40 MSTORE DUP4 CODECOPY DUP2 ADD SUB SLT PUSH2 0xCA JUMPI MLOAD PUSH1 0x1 PUSH1 0x1 PUSH1 0xA0 SHL SUB SWAP1 DUP2 DUP2 AND SWAP1 DUP2 SWAP1 SUB PUSH2 0xCA JUMPI CALLER ISZERO PUSH2 0xB1 JUMPI PUSH1 0x0 SLOAD PUSH1 0x1 DUP1 PUSH1 0xA0 SHL SUB NOT SWAP1 CALLER DUP3 DUP3 AND OR PUSH1 0x0 SSTORE PUSH1 0x40 MLOAD SWAP4 CALLER SWAP2 AND PUSH32 0x8BE0079C531659141344CD1FD0A4F28419497F9722A3DAAFE3B4186F6B6457E0 PUSH1 0x0 DUP1 LOG3 PUSH1 0x1 DUP1 SSTORE PUSH1 0xA SLOAD AND OR PUSH1 0xA SSTORE PUSH2 0x246E SWAP1 DUP2 PUSH2 0xE6 DUP3 CODECOPY RETURN JUMPDEST PUSH1 0x40 MLOAD PUSH4 0x1E4FBDF7 PUSH1 0xE0 SHL DUP2 MSTORE PUSH1 0x0 PUSH1 0x4 DUP3 ADD MSTORE PUSH1 0x24 SWAP1 REVERT JUMPDEST PUSH1 0x0 DUP1 REVERT JUMPDEST PUSH4 0x4E487B71 PUSH1 0xE0 SHL PUSH1 0x0 MSTORE PUSH1 0x41 PUSH1 0x4 MSTORE PUSH1 0x24 PUSH1 0x0 REVERT INVALID PUSH1 0x80 PUSH1 0x40 MSTORE PUSH1 0x4 CALLDATASIZE LT ISZERO PUSH2 0x12 JUMPI PUSH1 0x0 DUP1 REVERT JUMPDEST PUSH1 0x0 CALLDATALOAD PUSH1 0xE0 SHR DUP1 PUSH4 0xCA057BE EQ PUSH2 0x1D15 JUMPI DUP1 PUSH4 0xEA86AD8 EQ PUSH2 0x1CEC JUMPI DUP1 PUSH4 0x148B02C5 EQ PUSH2 0x1CB0 JUMPI DUP1 PUSH4 0x1BAE0AC8 EQ PUSH2 0x1BB2 JUMPI DUP1 PUSH4 0x22707265 EQ PUSH2 0x1B89 JUMPI DUP1 PUSH4 0x294550DE EQ PUSH2 0x1961 JUMPI DUP1 PUSH4 0x34FBC9A1 EQ PUSH2 0x1945 JUMPI DUP1 PUSH4 0x3E6DF504 EQ PUSH2 0x184A JUMPI DUP1 PUSH4 0x51858E27 EQ PUSH2 0x17F0 JUMPI DUP1 PUSH4 0x55CA6758 EQ PUSH2 0x1758 JUMPI DUP1 PUSH4 0x5C975ABB EQ PUSH2 0x7DE JUMPI DUP1 PUSH4 0x5E318E07 EQ PUSH2 0x1665 JUMPI DUP1 PUSH4 0x6912CBB0 EQ PUSH2 0x1485 JUMPI DUP1 PUSH4 0x6AA15F84 EQ PUSH2 0x12DA JUMPI DUP1 PUSH4 0x6CB4EB4B EQ PUSH2 0xF3D JUMPI DUP1 PUSH4 0x715018A6 EQ PUSH2 0xEE4 JUMPI DUP1 PUSH4 0x74ECF4B5 EQ PUSH2 0xE98 JUMPI DUP1 PUSH4 0x7822BE4A EQ PUSH2 0xE5C JUMPI DUP1 PUSH4 0x7B154140 EQ PUSH2 0xA7B JUMPI DUP1 PUSH4 0x7D4C12BB EQ PUSH2 0xA5A JUMPI DUP1 PUSH4 0x7D58F1AB EQ PUSH2 0xA0B JUMPI DUP1 PUSH4 0x8DA5CB5B EQ PUSH2 0x9E2 JUMPI DUP1 PUSH4 0x9003ADFE EQ PUSH2 0x73E JUMPI DUP1 PUSH4 0x9F11B148 EQ PUSH2 0x8E6 JUMPI DUP1 PUSH4 0xA6E1D016 EQ PUSH2 0x87C JUMPI DUP1 PUSH4 0xB0B3945F EQ PUSH2 0x801 JUMPI DUP1 PUSH4 0xB187BD26 EQ PUSH2 0x7DE JUMPI DUP1 PUSH4 0xB4BB477D EQ PUSH2 0x77A JUMPI DUP1 PUSH4 0xC1A287E2 EQ PUSH2 0x75C JUMPI DUP1 PUSH4 0xC7A84ED7 EQ PUSH2 0x73E JUMPI DUP1 PUSH4 0xD5E6C6FA EQ PUSH2 0x6FA JUMPI DUP1 PUSH4 0xD778199B EQ PUSH2 0x6FA JUMPI DUP1 PUSH4 0xDF93A4E3 EQ PUSH2 0x6DC JUMPI DUP1 PUSH4 0xEA8DC8D0 EQ PUSH2 0x33A JUMPI DUP1 PUSH4 0xF2FDE38B EQ PUSH2 0x2AA JUMPI DUP1 PUSH4 0xFD28C7EC EQ PUSH2 0x26E JUMPI PUSH4 0xFEF59B95 EQ PUSH2 0x1B3 JUMPI PUSH1 0x0 DUP1 REVERT JUMPDEST CALLVALUE PUSH2 0x269 JUMPI PUSH1 0x0 CALLDATASIZE PUSH1 0x3 NOT ADD SLT PUSH2 0x269 JUMPI PUSH1 0x40 MLOAD DUP1 PUSH1 0x8 SLOAD DUP1 DUP4 MSTORE PUSH1 0x20 DUP1 SWAP4 ADD DUP1 SWAP2 PUSH1 0x8 PUSH1 0x0 MSTORE PUSH32 0xF3F7A9FE364FAAB93B216DA50A3214154F22A0A2B415B23A84C8169E8B636EE3 SWAP1 PUSH1 0x0 JUMPDEST DUP7 DUP3 DUP3 LT PUSH2 0x255 JUMPI DUP7 DUP7 PUSH2 0x215 DUP3 DUP9 SUB DUP4 PUSH2 0x1F07 JUMP JUMPDEST PUSH1 0x40 MLOAD SWAP3 DUP4 SWAP3 DUP2 DUP5 ADD SWAP1 DUP3 DUP6 MSTORE MLOAD DUP1 SWAP2 MSTORE PUSH1 0x40 DUP5 ADD SWAP3 SWAP2 PUSH1 0x0 JUMPDEST DUP3 DUP2 LT PUSH2 0x23E JUMPI POP POP POP POP SUB SWAP1 RETURN JUMPDEST DUP4 MLOAD DUP6 MSTORE DUP7 SWAP6 POP SWAP4 DUP2 ADD SWAP4 SWAP3 DUP2 ADD SWAP3 PUSH1 0x1 ADD PUSH2 0x22F JUMP JUMPDEST DUP4 SLOAD DUP6 MSTORE SWAP1 SWAP4 ADD SWAP3 PUSH1 0x1 SWAP3 DUP4 ADD SWAP3 ADD PUSH2 0x1FF JUMP JUMPDEST PUSH1 0x0 DUP1 REVERT JUMPDEST CALLVALUE PUSH2 0x269 JUMPI PUSH1 0x20 CALLDATASIZE PUSH1 0x3 NOT ADD SLT PUSH2 0x269 JUMPI PUSH1 0x4 CALLDATALOAD PUSH2 0x28F PUSH1 0x7 SLOAD DUP3 LT PUSH2 0x21AE JUMP JUMPDEST PUSH1 0x0 MSTORE PUSH1 0x3 PUSH1 0x20 MSTORE PUSH1 0x20 PUSH1 0x8 PUSH1 0x40 PUSH1 0x0 KECCAK256 ADD SLOAD PUSH1 0x40 MLOAD SWAP1 DUP2 MSTORE RETURN JUMPDEST CALLVALUE PUSH2 0x269 JUMPI PUSH1 0x20 CALLDATASIZE PUSH1 0x3 NOT ADD SLT PUSH2 0x269 JUMPI PUSH1 0x4 CALLDATALOAD PUSH1 0x1 PUSH1 0x1 PUSH1 0xA0 SHL SUB DUP2 DUP2 AND SWAP2 DUP3 SWAP1 SUB PUSH2 0x269 JUMPI PUSH2 0x2D9 PUSH2 0x23AB JUMP JUMPDEST DUP2 ISZERO PUSH2 0x321 JUMPI PUSH1 0x0 SLOAD DUP3 PUSH12 0xFFFFFFFFFFFFFFFFFFFFFFFF PUSH1 0xA0 SHL DUP3 AND OR PUSH1 0x0 SSTORE AND PUSH32 0x8BE0079C531659141344CD1FD0A4F28419497F9722A3DAAFE3B4186F6B6457E0 PUSH1 0x0 DUP1 LOG3 STOP JUMPDEST PUSH1 0x40 MLOAD PUSH4 0x1E4FBDF7 PUSH1 0xE0 SHL DUP2 MSTORE PUSH1 0x0 PUSH1 0x4 DUP3 ADD MSTORE PUSH1 0x24 SWAP1 REVERT JUMPDEST CALLVALUE PUSH2 0x269 JUMPI PUSH1 0x40 CALLDATASIZE PUSH1 0x3 NOT ADD SLT PUSH2 0x269 JUMPI PUSH1 0x4 CALLDATALOAD PUSH1 0x24 SWAP1 DUP2 CALLDATALOAD SWAP2 PUSH1 0xFF DUP4 AND DUP1 SWAP4 SUB PUSH2 0x269 JUMPI PUSH2 0x367 PUSH2 0x23F5 JUMP JUMPDEST PUSH2 0x36F PUSH2 0x23D7 JUMP JUMPDEST PUSH2 0x37C PUSH1 0x7 SLOAD DUP4 LT PUSH2 0x21AE JUMP JUMPDEST DUP2 PUSH1 0x0 MSTORE PUSH1 0x20 SWAP1 PUSH1 0x3 DUP3 MSTORE PUSH1 0x40 PUSH1 0x0 KECCAK256 SWAP1 PUSH1 0x4 DUP3 ADD SLOAD TIMESTAMP LT ISZERO PUSH2 0x6A7 JUMPI PUSH1 0x63 DUP6 GT PUSH2 0x695 JUMPI PUSH1 0xA SLOAD PUSH1 0x40 MLOAD PUSH4 0x6EB1769F PUSH1 0xE1 SHL DUP2 MSTORE CALLER PUSH1 0x4 DUP3 ADD MSTORE ADDRESS DUP4 DUP3 ADD MSTORE PUSH1 0x1 PUSH1 0x1 PUSH1 0xA0 SHL SUB SWAP4 SWAP2 DUP5 AND DUP6 DUP3 PUSH1 0x44 DUP2 DUP5 GAS STATICCALL SWAP2 DUP3 ISZERO PUSH2 0x648 JUMPI PUSH1 0x0 SWAP3 PUSH2 0x666 JUMPI JUMPDEST POP PUSH1 0x3 DUP4 ADD SWAP2 DUP3 SLOAD DUP1 SWAP2 LT PUSH2 0x654 JUMPI PUSH1 0x0 SWAP2 PUSH1 0x64 DUP9 SWAP3 PUSH1 0x40 MLOAD SWAP5 DUP6 SWAP4 DUP5 SWAP3 PUSH4 0x23B872DD PUSH1 0xE0 SHL DUP5 MSTORE CALLER PUSH1 0x4 DUP6 ADD MSTORE ADDRESS DUP12 DUP6 ADD MSTORE PUSH1 0x44 DUP5 ADD MSTORE GAS CALL SWAP1 DUP2 ISZERO PUSH2 0x648 JUMPI PUSH1 0x0 SWAP2 PUSH2 0x61B JUMPI JUMPDEST POP ISZERO PUSH2 0x609 JUMPI SLOAD SWAP1 DUP6 PUSH1 0x0 MSTORE PUSH1 0x5 DUP6 MSTORE PUSH1 0x40 PUSH1 0x0 KECCAK256 SWAP4 PUSH1 0x9 DUP3 ADD SWAP4 DUP5 SLOAD SWAP6 DUP7 PUSH1 0x0 MSTORE DUP8 MSTORE PUSH1 0x40 PUSH1 0x0 KECCAK256 SLOAD SWAP6 PUSH1 0x40 MLOAD SWAP1 PUSH2 0x460 DUP3 PUSH2 0x1EEB JUMP JUMPDEST DUP8 DUP3 MSTORE DUP9 DUP3 ADD SWAP4 DUP11 DUP6 MSTORE PUSH1 0x40 DUP4 ADD SWAP1 CALLER DUP3 MSTORE PUSH1 0x60 DUP5 ADD SWAP1 DUP14 DUP3 MSTORE PUSH1 0x80 DUP6 ADD SWAP4 DUP1 DUP6 MSTORE DUP14 PUSH1 0x0 MSTORE PUSH1 0x5 DUP14 MSTORE PUSH1 0x40 PUSH1 0x0 KECCAK256 SWAP1 PUSH1 0x0 MSTORE DUP13 MSTORE PUSH1 0x40 PUSH1 0x0 KECCAK256 SWAP7 DUP8 SLOAD PUSH1 0x1 PUSH1 0x40 SHL SWAP9 DUP10 DUP3 LT ISZERO PUSH2 0x5F4 JUMPI SWAP1 PUSH2 0x4BB SWAP2 PUSH1 0x1 DUP3 ADD DUP2 SSTORE PUSH2 0x2192 JUMP JUMPDEST SWAP7 SWAP1 SWAP7 PUSH2 0x5DF JUMPI SWAP1 PUSH1 0x3 SWAP6 SWAP5 SWAP4 SWAP3 SWAP2 MLOAD DUP8 SSTORE MLOAD PUSH1 0x1 DUP8 ADD SSTORE PUSH1 0x2 DUP7 ADD SWAP3 MLOAD AND DUP3 SLOAD SWAP2 PUSH1 0xFF PUSH1 0xA0 SHL SWAP1 MLOAD PUSH1 0xA0 SHL AND SWAP2 PUSH11 0xFFFFFFFFFFFFFFFFFFFFFF PUSH1 0xA8 SHL AND OR OR SWAP1 SSTORE MLOAD SWAP2 ADD SSTORE DUP8 PUSH1 0x0 MSTORE PUSH1 0x4 DUP8 MSTORE PUSH1 0x40 PUSH1 0x0 KECCAK256 CALLER PUSH1 0x0 MSTORE DUP8 MSTORE PUSH1 0x40 PUSH1 0x0 KECCAK256 SWAP1 DUP2 SLOAD SWAP3 DUP4 LT ISZERO PUSH2 0x5CB JUMPI POP SWAP2 PUSH2 0x558 DUP7 PUSH2 0x53F DUP5 PUSH2 0x58D SWAP7 PUSH1 0x1 PUSH1 0x5 SWAP8 ADD DUP2 SSTORE PUSH2 0x2068 JUMP JUMPDEST SWAP1 SWAP2 SWAP1 DUP3 SLOAD SWAP1 PUSH1 0x3 SHL SWAP2 DUP3 SHL SWAP2 PUSH1 0x0 NOT SWAP1 SHL NOT AND OR SWAP1 SSTORE JUMP JUMPDEST DUP8 PUSH1 0x0 MSTORE PUSH1 0x6 DUP8 MSTORE PUSH1 0x40 PUSH1 0x0 KECCAK256 DUP6 SLOAD PUSH1 0x0 MSTORE DUP8 MSTORE PUSH1 0x40 PUSH1 0x0 KECCAK256 DUP7 PUSH1 0x0 MSTORE DUP8 MSTORE PUSH1 0x40 PUSH1 0x0 KECCAK256 PUSH1 0xFF NOT DUP2 SLOAD AND SWAP1 SSTORE ADD SWAP2 DUP3 SLOAD PUSH2 0x2285 JUMP JUMPDEST SWAP1 SSTORE SLOAD SWAP2 PUSH1 0x40 MLOAD SWAP5 DUP6 MSTORE DUP5 ADD MSTORE PUSH1 0x40 DUP4 ADD MSTORE PUSH32 0x1175289CD9FA17F9B8D37C83F3842A72F5418831C6B5BD6DF64FC96BDF3E2BBA PUSH1 0x60 CALLER SWAP4 LOG3 PUSH1 0x1 DUP1 SSTORE STOP JUMPDEST PUSH4 0x4E487B71 PUSH1 0xE0 SHL PUSH1 0x0 SWAP1 DUP2 MSTORE PUSH1 0x41 PUSH1 0x4 MSTORE REVERT JUMPDEST DUP8 PUSH4 0x4E487B71 PUSH1 0xE0 SHL PUSH1 0x0 MSTORE PUSH1 0x0 PUSH1 0x4 MSTORE PUSH1 0x0 REVERT JUMPDEST DUP9 PUSH4 0x4E487B71 PUSH1 0xE0 SHL PUSH1 0x0 MSTORE PUSH1 0x41 PUSH1 0x4 MSTORE PUSH1 0x0 REVERT JUMPDEST PUSH1 0x40 MLOAD PUSH4 0x12171D83 PUSH1 0xE3 SHL DUP2 MSTORE PUSH1 0x4 SWAP1 REVERT JUMPDEST PUSH2 0x63B SWAP2 POP DUP7 RETURNDATASIZE DUP9 GT PUSH2 0x641 JUMPI JUMPDEST PUSH2 0x633 DUP2 DUP4 PUSH2 0x1F07 JUMP JUMPDEST DUP2 ADD SWAP1 PUSH2 0x21EC JUMP JUMPDEST DUP9 PUSH2 0x428 JUMP JUMPDEST POP RETURNDATASIZE PUSH2 0x629 JUMP JUMPDEST PUSH1 0x40 MLOAD RETURNDATASIZE PUSH1 0x0 DUP3 RETURNDATACOPY RETURNDATASIZE SWAP1 REVERT JUMPDEST PUSH1 0x40 MLOAD PUSH4 0x13BE252B PUSH1 0xE0 SHL DUP2 MSTORE PUSH1 0x4 SWAP1 REVERT JUMPDEST SWAP1 SWAP2 POP DUP6 DUP2 DUP2 RETURNDATASIZE DUP4 GT PUSH2 0x68E JUMPI JUMPDEST PUSH2 0x67E DUP2 DUP4 PUSH2 0x1F07 JUMP JUMPDEST DUP2 ADD SUB SLT PUSH2 0x269 JUMPI MLOAD SWAP1 DUP9 PUSH2 0x3DF JUMP JUMPDEST POP RETURNDATASIZE PUSH2 0x674 JUMP JUMPDEST PUSH1 0x40 MLOAD PUSH4 0x74CBD35F PUSH1 0xE0 SHL DUP2 MSTORE PUSH1 0x4 SWAP1 REVERT JUMPDEST POP PUSH1 0x0 DUP1 MLOAD PUSH1 0x20 PUSH2 0x2419 DUP4 CODECOPY DUP2 MLOAD SWAP2 MSTORE SWAP2 PUSH1 0x9 PUSH1 0x40 SWAP3 ADD SLOAD DUP3 MLOAD SWAP2 PUSH1 0x1 DUP4 MSTORE DUP3 ADD MSTORE LOG2 PUSH1 0x40 MLOAD PUSH4 0xDCF14C8F PUSH1 0xE0 SHL DUP2 MSTORE PUSH1 0x4 SWAP1 REVERT JUMPDEST CALLVALUE PUSH2 0x269 JUMPI PUSH1 0x0 CALLDATASIZE PUSH1 0x3 NOT ADD SLT PUSH2 0x269 JUMPI PUSH1 0x20 PUSH1 0x7 SLOAD PUSH1 0x40 MLOAD SWAP1 DUP2 MSTORE RETURN JUMPDEST CALLVALUE PUSH2 0x269 JUMPI PUSH2 0x708 CALLDATASIZE PUSH2 0x2178 JUMP JUMPDEST SWAP2 PUSH1 0x0 MSTORE PUSH1 0x6 PUSH1 0x20 MSTORE PUSH1 0x40 PUSH1 0x0 KECCAK256 SWAP1 PUSH1 0x0 MSTORE PUSH1 0x20 MSTORE PUSH1 0x40 PUSH1 0x0 KECCAK256 SWAP1 PUSH1 0x0 MSTORE PUSH1 0x20 MSTORE PUSH1 0x20 PUSH1 0xFF PUSH1 0x40 PUSH1 0x0 KECCAK256 SLOAD AND PUSH1 0x40 MLOAD SWAP1 ISZERO ISZERO DUP2 MSTORE RETURN JUMPDEST CALLVALUE PUSH2 0x269 JUMPI PUSH1 0x0 CALLDATASIZE PUSH1 0x3 NOT ADD SLT PUSH2 0x269 JUMPI PUSH1 0x20 PUSH1 0x9 SLOAD PUSH1 0x40 MLOAD SWAP1 DUP2 MSTORE RETURN JUMPDEST CALLVALUE PUSH2 0x269 JUMPI PUSH1 0x0 CALLDATASIZE PUSH1 0x3 NOT ADD SLT PUSH2 0x269 JUMPI PUSH1 0x20 PUSH1 0x40 MLOAD PUSH3 0x15180 DUP2 MSTORE RETURN JUMPDEST CALLVALUE PUSH2 0x269 JUMPI PUSH1 0x60 CALLDATASIZE PUSH1 0x3 NOT ADD SLT PUSH2 0x269 JUMPI PUSH2 0x793 PUSH2 0x210B JUMP JUMPDEST PUSH1 0x44 CALLDATALOAD SWAP1 PUSH1 0x4 CALLDATALOAD PUSH1 0x0 MSTORE PUSH1 0x4 PUSH1 0x20 MSTORE PUSH1 0x40 PUSH1 0x0 KECCAK256 SWAP1 PUSH1 0x1 DUP1 PUSH1 0xA0 SHL SUB AND PUSH1 0x0 MSTORE PUSH1 0x20 MSTORE PUSH1 0x40 PUSH1 0x0 KECCAK256 DUP1 SLOAD DUP3 LT ISZERO PUSH2 0x269 JUMPI PUSH1 0x20 SWAP2 PUSH2 0x7D0 SWAP2 PUSH2 0x2068 JUMP JUMPDEST SWAP1 SLOAD PUSH1 0x40 MLOAD SWAP2 PUSH1 0x3 SHL SHR DUP2 MSTORE RETURN JUMPDEST CALLVALUE PUSH2 0x269 JUMPI PUSH1 0x0 CALLDATASIZE PUSH1 0x3 NOT ADD SLT PUSH2 0x269 JUMPI PUSH1 0x20 PUSH1 0xFF PUSH1 0x2 SLOAD AND PUSH1 0x40 MLOAD SWAP1 ISZERO ISZERO DUP2 MSTORE RETURN JUMPDEST CALLVALUE PUSH2 0x269 JUMPI PUSH2 0x80F CALLDATASIZE PUSH2 0x2178 JUMP JUMPDEST SWAP2 PUSH1 0x0 MSTORE PUSH1 0x5 PUSH1 0x20 MSTORE PUSH1 0x40 PUSH1 0x0 KECCAK256 SWAP1 PUSH1 0x0 MSTORE PUSH1 0x20 MSTORE PUSH1 0x40 PUSH1 0x0 KECCAK256 DUP1 SLOAD DUP3 LT ISZERO PUSH2 0x269 JUMPI PUSH1 0xA0 SWAP2 PUSH2 0x83E SWAP2 PUSH2 0x2192 JUMP JUMPDEST POP DUP1 SLOAD SWAP1 PUSH1 0xFF PUSH1 0x1 DUP3 ADD SLOAD SWAP2 PUSH1 0x3 PUSH1 0x2 DUP3 ADD SLOAD SWAP2 ADD SLOAD SWAP3 PUSH1 0x40 MLOAD SWAP5 DUP6 MSTORE PUSH1 0x20 DUP6 ADD MSTORE PUSH1 0x1 DUP1 DUP7 SHL SUB DUP2 AND PUSH1 0x40 DUP6 ADD MSTORE DUP5 SHR AND PUSH1 0x60 DUP4 ADD MSTORE PUSH1 0x80 DUP3 ADD MSTORE RETURN JUMPDEST CALLVALUE PUSH2 0x269 JUMPI PUSH1 0x0 CALLDATASIZE PUSH1 0x3 NOT ADD SLT PUSH2 0x269 JUMPI PUSH2 0x895 PUSH2 0x23AB JUMP JUMPDEST PUSH1 0x2 SLOAD PUSH1 0xFF DUP2 AND ISZERO PUSH2 0x8D4 JUMPI PUSH1 0xFF NOT AND PUSH1 0x2 SSTORE PUSH32 0x5DB9EE0A495BF2E6FF9C91A7834C1BA4FDD244A5E8AA4E537BD38AEAE4B073AA PUSH1 0x20 PUSH1 0x40 MLOAD CALLER DUP2 MSTORE LOG1 STOP JUMPDEST PUSH1 0x40 MLOAD PUSH4 0x8DFC202B PUSH1 0xE0 SHL DUP2 MSTORE PUSH1 0x4 SWAP1 REVERT JUMPDEST CALLVALUE PUSH2 0x269 JUMPI PUSH1 0x20 CALLDATASIZE PUSH1 0x3 NOT ADD SLT PUSH2 0x269 JUMPI PUSH1 0x4 CALLDATALOAD PUSH2 0x902 PUSH2 0x23AB JUMP JUMPDEST PUSH2 0x90A PUSH2 0x23F5 JUMP JUMPDEST PUSH2 0x917 PUSH1 0x7 SLOAD DUP3 LT PUSH2 0x21AE JUMP JUMPDEST DUP1 PUSH1 0x0 MSTORE PUSH1 0x3 PUSH1 0x20 MSTORE PUSH1 0x40 PUSH1 0x0 KECCAK256 PUSH1 0x7 DUP2 ADD DUP1 SLOAD PUSH1 0xFF DUP2 PUSH1 0x10 SHR AND PUSH1 0x4 DUP2 LT ISZERO PUSH2 0x9CC JUMPI PUSH1 0x2 SUB PUSH2 0x9BA JUMPI PUSH1 0xB DUP4 ADD SLOAD PUSH3 0x15180 DUP2 ADD DUP1 SWAP2 GT PUSH2 0x9A4 JUMPI TIMESTAMP LT PUSH2 0x992 JUMPI PUSH3 0xFF0000 NOT AND PUSH3 0x30000 OR SWAP1 SSTORE PUSH1 0x9 ADD SLOAD PUSH1 0x40 DUP1 MLOAD PUSH1 0x3 DUP2 MSTORE PUSH1 0x20 DUP2 ADD SWAP3 SWAP1 SWAP3 MSTORE PUSH1 0x0 DUP1 MLOAD PUSH1 0x20 PUSH2 0x2419 DUP4 CODECOPY DUP2 MLOAD SWAP2 MSTORE SWAP2 LOG2 PUSH1 0x1 DUP1 SSTORE STOP JUMPDEST PUSH1 0x40 MLOAD PUSH4 0x450C8B7B PUSH1 0xE1 SHL DUP2 MSTORE PUSH1 0x4 SWAP1 REVERT JUMPDEST PUSH4 0x4E487B71 PUSH1 0xE0 SHL PUSH1 0x0 MSTORE PUSH1 0x11 PUSH1 0x4 MSTORE PUSH1 0x24 PUSH1 0x0 REVERT JUMPDEST PUSH1 0x40 MLOAD PUSH4 0xBAF3F0F7 PUSH1 0xE0 SHL DUP2 MSTORE PUSH1 0x4 SWAP1 REVERT JUMPDEST PUSH4 0x4E487B71 PUSH1 0xE0 SHL PUSH1 0x0 MSTORE PUSH1 0x21 PUSH1 0x4 MSTORE PUSH1 0x24 PUSH1 0x0 REVERT JUMPDEST CALLVALUE PUSH2 0x269 JUMPI PUSH1 0x0 CALLDATASIZE PUSH1 0x3 NOT ADD SLT PUSH2 0x269 JUMPI PUSH1 0x0 SLOAD PUSH1 0x40 MLOAD PUSH1 0x1 PUSH1 0x1 PUSH1 0xA0 SHL SUB SWAP1 SWAP2 AND DUP2 MSTORE PUSH1 0x20 SWAP1 RETURN JUMPDEST CALLVALUE PUSH2 0x269 JUMPI PUSH1 0x20 CALLDATASIZE PUSH1 0x3 NOT ADD SLT PUSH2 0x269 JUMPI PUSH1 0x20 PUSH2 0xA52 PUSH1 0x4 CALLDATALOAD PUSH1 0x7 SLOAD DUP2 LT SWAP1 PUSH2 0xA33 DUP3 PUSH2 0x21AE JUMP JUMPDEST DUP1 PUSH1 0x0 MSTORE PUSH1 0x3 DUP5 MSTORE PUSH2 0xA4D PUSH1 0x9 PUSH1 0x40 PUSH1 0x0 KECCAK256 ADD SLOAD SWAP3 PUSH2 0x21AE JUMP JUMPDEST PUSH2 0x22C4 JUMP JUMPDEST PUSH1 0x40 MLOAD SWAP1 DUP2 MSTORE RETURN JUMPDEST CALLVALUE PUSH2 0x269 JUMPI PUSH1 0x20 PUSH2 0xA52 PUSH2 0xA6D CALLDATASIZE PUSH2 0x2080 JUMP JUMPDEST SWAP1 PUSH2 0xA4D PUSH1 0x7 SLOAD DUP3 LT PUSH2 0x21AE JUMP JUMPDEST CALLVALUE PUSH2 0x269 JUMPI PUSH2 0xA89 CALLDATASIZE PUSH2 0x2080 JUMP JUMPDEST PUSH2 0xA91 PUSH2 0x23F5 JUMP JUMPDEST PUSH2 0xA99 PUSH2 0x23D7 JUMP JUMPDEST PUSH2 0xAA6 PUSH1 0x7 SLOAD DUP4 LT PUSH2 0x21AE JUMP JUMPDEST DUP2 PUSH1 0x0 MSTORE PUSH1 0x3 PUSH1 0x20 MSTORE PUSH1 0x40 PUSH1 0x0 KECCAK256 SWAP1 PUSH1 0x5 PUSH1 0x20 MSTORE PUSH1 0x40 PUSH1 0x0 KECCAK256 PUSH1 0x9 DUP4 ADD SLOAD SWAP1 DUP2 PUSH1 0x0 MSTORE PUSH1 0x20 MSTORE PUSH1 0x40 PUSH1 0x0 KECCAK256 SLOAD DUP3 LT ISZERO PUSH2 0xE38 JUMPI DUP4 PUSH1 0x0 MSTORE PUSH1 0x5 PUSH1 0x20 MSTORE PUSH1 0x40 PUSH1 0x0 KECCAK256 DUP2 PUSH1 0x0 MSTORE PUSH1 0x20 MSTORE PUSH2 0xAFC DUP3 PUSH1 0x40 PUSH1 0x0 KECCAK256 PUSH2 0x2192 JUMP JUMPDEST POP DUP2 PUSH1 0x3 DUP3 ADD SLOAD SUB PUSH2 0xE38 JUMPI PUSH1 0x2 ADD SLOAD CALLER PUSH1 0x1 PUSH1 0x1 PUSH1 0xA0 SHL SUB DUP3 AND SUB PUSH2 0xE4A JUMPI PUSH1 0xFF DUP1 PUSH1 0x7 DUP7 ADD SLOAD AND SWAP2 PUSH1 0xA0 SHR AND SUB PUSH2 0xE38 JUMPI DUP4 PUSH1 0x0 MSTORE PUSH1 0x6 PUSH1 0x20 MSTORE PUSH1 0x40 PUSH1 0x0 KECCAK256 DUP2 PUSH1 0x0 MSTORE PUSH1 0x20 MSTORE PUSH1 0x40 PUSH1 0x0 KECCAK256 DUP3 PUSH1 0x0 MSTORE PUSH1 0x20 MSTORE PUSH1 0xFF PUSH1 0x40 PUSH1 0x0 KECCAK256 SLOAD AND PUSH2 0xE38 JUMPI DUP4 PUSH1 0x0 MSTORE PUSH1 0x6 PUSH1 0x20 MSTORE PUSH1 0x40 PUSH1 0x0 KECCAK256 SWAP1 PUSH1 0x0 MSTORE PUSH1 0x20 MSTORE PUSH1 0x40 PUSH1 0x0 KECCAK256 DUP2 PUSH1 0x0 MSTORE PUSH1 0x20 MSTORE PUSH1 0x40 PUSH1 0x0 KECCAK256 PUSH1 0x1 PUSH1 0xFF NOT DUP3 SLOAD AND OR SWAP1 SSTORE PUSH1 0x0 DUP4 PUSH1 0x0 MSTORE PUSH1 0x5 PUSH1 0x20 MSTORE PUSH1 0x40 PUSH1 0x0 KECCAK256 PUSH1 0x9 DUP5 ADD SLOAD PUSH1 0x0 MSTORE PUSH1 0x20 MSTORE PUSH1 0x40 PUSH1 0x0 KECCAK256 SWAP2 PUSH1 0x0 DUP4 SLOAD SWAP1 PUSH1 0xFF PUSH1 0x7 DUP8 ADD SLOAD AND SWAP1 JUMPDEST DUP3 DUP2 LT PUSH2 0xE00 JUMPI POP POP POP DUP2 PUSH2 0xCD8 JUMPI JUMPDEST POP PUSH1 0x1 PUSH1 0x0 SWAP3 DUP1 SLOAD SWAP1 PUSH1 0x7 DUP7 ADD SLOAD SWAP5 JUMPDEST DUP3 DUP2 LT PUSH2 0xC69 JUMPI JUMPDEST POP POP POP PUSH2 0xBF4 JUMPI JUMPDEST PUSH1 0x1 DUP1 SSTORE STOP JUMPDEST PUSH1 0x0 DUP1 MLOAD PUSH1 0x20 PUSH2 0x2419 DUP4 CODECOPY DUP2 MLOAD SWAP2 MSTORE SWAP3 PUSH1 0x40 SWAP3 PUSH1 0x9 SWAP3 PUSH2 0xC3D JUMPI POP PUSH3 0x30000 PUSH3 0xFF0000 NOT PUSH1 0x7 DUP4 ADD SLOAD AND OR PUSH1 0x7 DUP3 ADD SSTORE ADD SLOAD DUP2 MLOAD SWAP1 PUSH1 0x3 DUP3 MSTORE PUSH1 0x20 DUP3 ADD MSTORE LOG2 JUMPDEST DUP1 DUP1 DUP1 DUP1 PUSH2 0xBEE JUMP JUMPDEST PUSH3 0x30000 SWAP1 PUSH1 0x0 PUSH1 0x5 DUP5 ADD SSTORE PUSH3 0xFF0000 NOT AND OR PUSH1 0x7 DUP3 ADD SSTORE ADD SLOAD DUP2 MLOAD SWAP1 PUSH1 0x3 DUP3 MSTORE PUSH1 0x20 DUP3 ADD MSTORE LOG2 PUSH2 0xC34 JUMP JUMPDEST PUSH2 0xC73 DUP2 DUP4 PUSH2 0x2192 JUMP JUMPDEST POP PUSH1 0xFF PUSH1 0x2 DUP2 DUP10 AND SWAP3 ADD SLOAD PUSH1 0xA0 SHR AND EQ DUP1 PUSH2 0xCA3 JUMPI JUMPDEST PUSH2 0xC95 JUMPI PUSH1 0x1 ADD PUSH2 0xBDE JUMP JUMPDEST POP POP POP POP PUSH1 0x0 DUP6 DUP1 DUP1 PUSH2 0xBE6 JUMP JUMPDEST POP DUP8 PUSH1 0x0 MSTORE PUSH1 0x6 PUSH1 0x20 MSTORE PUSH1 0x40 PUSH1 0x0 KECCAK256 PUSH1 0x9 DUP9 ADD SLOAD PUSH1 0x0 MSTORE PUSH1 0x20 MSTORE PUSH1 0x40 PUSH1 0x0 KECCAK256 DUP2 PUSH1 0x0 MSTORE PUSH1 0x20 MSTORE PUSH1 0xFF PUSH1 0x40 PUSH1 0x0 KECCAK256 SLOAD AND ISZERO PUSH2 0xC89 JUMP JUMPDEST PUSH1 0x5 DUP5 ADD SLOAD SWAP1 DUP2 PUSH1 0xA DUP2 MUL DIV PUSH1 0xA EQ DUP3 ISZERO OR ISZERO PUSH2 0x9A4 JUMPI PUSH2 0xD00 PUSH1 0x64 PUSH1 0xA DUP5 MUL DIV DUP1 SWAP4 PUSH2 0x2264 JUMP JUMPDEST SWAP2 PUSH1 0xA DUP7 ADD SWAP1 PUSH1 0xFF DUP3 SLOAD AND ISZERO PUSH2 0xDDF JUMPI JUMPDEST POP POP DUP3 ISZERO PUSH2 0xDC9 JUMPI PUSH1 0xA SLOAD PUSH1 0x40 MLOAD PUSH4 0xA9059CBB PUSH1 0xE0 SHL DUP2 MSTORE CALLER PUSH1 0x4 DUP3 ADD MSTORE DUP5 DUP5 DIV PUSH1 0x24 DUP3 ADD MSTORE SWAP1 PUSH1 0x20 SWAP1 DUP3 SWAP1 PUSH1 0x44 SWAP1 DUP3 SWAP1 PUSH1 0x0 SWAP1 PUSH1 0x1 PUSH1 0x1 PUSH1 0xA0 SHL SUB AND GAS CALL SWAP1 DUP2 ISZERO PUSH2 0x648 JUMPI PUSH1 0x0 SWAP2 PUSH2 0xDAA JUMPI JUMPDEST POP ISZERO PUSH2 0x609 JUMPI PUSH1 0x9 DUP6 ADD SLOAD SWAP1 DUP4 PUSH1 0x40 MLOAD SWAP4 DIV DUP4 MSTORE PUSH1 0x20 DUP4 ADD MSTORE PUSH1 0x40 DUP3 ADD MSTORE DUP5 PUSH32 0x785817D289E9CE1881EF42379AB98F4F7513F0D3BB1F9A9E060AFB4CD2B67EAB PUSH1 0x60 CALLER SWAP4 LOG3 DUP5 PUSH2 0xBCE JUMP JUMPDEST PUSH2 0xDC3 SWAP2 POP PUSH1 0x20 RETURNDATASIZE PUSH1 0x20 GT PUSH2 0x641 JUMPI PUSH2 0x633 DUP2 DUP4 PUSH2 0x1F07 JUMP JUMPDEST DUP8 PUSH2 0xD5F JUMP JUMPDEST PUSH4 0x4E487B71 PUSH1 0xE0 SHL PUSH1 0x0 MSTORE PUSH1 0x12 PUSH1 0x4 MSTORE PUSH1 0x24 PUSH1 0x0 REVERT JUMPDEST PUSH2 0xDEB SWAP1 PUSH1 0x9 SLOAD PUSH2 0x2285 JUMP JUMPDEST PUSH1 0x9 SSTORE DUP1 SLOAD PUSH1 0xFF NOT AND PUSH1 0x1 OR SWAP1 SSTORE DUP7 DUP1 PUSH2 0xD11 JUMP JUMPDEST DUP2 PUSH1 0xFF PUSH1 0x2 PUSH2 0xE0F DUP5 DUP11 PUSH2 0x2192 JUMP JUMPDEST POP ADD SLOAD PUSH1 0xA0 SHR AND EQ PUSH2 0xE24 JUMPI JUMPDEST PUSH1 0x1 ADD PUSH2 0xBBE JUMP JUMPDEST SWAP4 PUSH2 0xE30 PUSH1 0x1 SWAP2 PUSH2 0x22B5 JUMP JUMPDEST SWAP5 SWAP1 POP PUSH2 0xE1C JUMP JUMPDEST PUSH1 0x40 MLOAD PUSH4 0x19A1B6D9 PUSH1 0xE2 SHL DUP2 MSTORE PUSH1 0x4 SWAP1 REVERT JUMPDEST PUSH1 0x40 MLOAD PUSH4 0x49E27CFF PUSH1 0xE0 SHL DUP2 MSTORE PUSH1 0x4 SWAP1 REVERT JUMPDEST CALLVALUE PUSH2 0x269 JUMPI PUSH1 0x20 CALLDATASIZE PUSH1 0x3 NOT ADD SLT PUSH2 0x269 JUMPI PUSH1 0x4 CALLDATALOAD PUSH2 0xE7D PUSH1 0x7 SLOAD DUP3 LT PUSH2 0x21AE JUMP JUMPDEST PUSH1 0x0 MSTORE PUSH1 0x3 PUSH1 0x20 MSTORE PUSH1 0x20 PUSH1 0x5 PUSH1 0x40 PUSH1 0x0 KECCAK256 ADD SLOAD PUSH1 0x40 MLOAD SWAP1 DUP2 MSTORE RETURN JUMPDEST CALLVALUE PUSH2 0x269 JUMPI PUSH1 0x20 CALLDATASIZE PUSH1 0x3 NOT ADD SLT PUSH2 0x269 JUMPI PUSH1 0x4 CALLDATALOAD PUSH2 0xEB9 PUSH1 0x7 SLOAD DUP3 LT PUSH2 0x21AE JUMP JUMPDEST PUSH1 0x0 MSTORE PUSH1 0x3 PUSH1 0x20 MSTORE PUSH1 0x7 PUSH1 0x40 PUSH1 0x0 KECCAK256 ADD SLOAD PUSH1 0xFF DUP2 PUSH1 0x8 SHR AND ISZERO PUSH2 0x9BA JUMPI PUSH1 0x20 SWAP1 PUSH1 0xFF PUSH1 0x40 MLOAD SWAP2 AND DUP2 MSTORE RETURN JUMPDEST CALLVALUE PUSH2 0x269 JUMPI PUSH1 0x0 CALLDATASIZE PUSH1 0x3 NOT ADD SLT PUSH2 0x269 JUMPI PUSH2 0xEFD PUSH2 0x23AB JUMP JUMPDEST PUSH1 0x0 DUP1 SLOAD PUSH1 0x1 PUSH1 0x1 PUSH1 0xA0 SHL SUB NOT DUP2 AND DUP3 SSTORE PUSH1 0x1 PUSH1 0x1 PUSH1 0xA0 SHL SUB AND PUSH32 0x8BE0079C531659141344CD1FD0A4F28419497F9722A3DAAFE3B4186F6B6457E0 DUP3 DUP1 LOG3 STOP JUMPDEST CALLVALUE PUSH2 0x269 JUMPI PUSH1 0xA0 CALLDATASIZE PUSH1 0x3 NOT ADD SLT PUSH2 0x269 JUMPI PUSH1 0x4 CALLDATALOAD PUSH8 0xFFFFFFFFFFFFFFFF DUP2 GT PUSH2 0x269 JUMPI PUSH2 0xF6E SWAP1 CALLDATASIZE SWAP1 PUSH1 0x4 ADD PUSH2 0x2121 JUMP JUMPDEST PUSH1 0x24 CALLDATALOAD PUSH8 0xFFFFFFFFFFFFFFFF DUP2 GT PUSH2 0x269 JUMPI PUSH2 0xF8E SWAP1 CALLDATASIZE SWAP1 PUSH1 0x4 ADD PUSH2 0x2121 JUMP JUMPDEST SWAP1 PUSH2 0xF97 PUSH2 0x23AB JUMP JUMPDEST PUSH2 0xF9F PUSH2 0x23D7 JUMP JUMPDEST PUSH1 0x44 CALLDATALOAD ISZERO PUSH2 0x12C8 JUMPI PUSH1 0x7 SLOAD DUP1 PUSH1 0x0 MSTORE PUSH1 0x3 PUSH1 0x20 MSTORE PUSH1 0x40 PUSH1 0x0 KECCAK256 DUP2 DUP2 SSTORE DUP3 MLOAD PUSH8 0xFFFFFFFFFFFFFFFF DUP2 GT PUSH2 0x11F3 JUMPI PUSH2 0xFD9 PUSH1 0x1 DUP4 ADD SLOAD PUSH2 0x1E94 JUMP JUMPDEST PUSH1 0x1F DUP2 GT PUSH2 0x1281 JUMPI JUMPDEST POP PUSH1 0x20 PUSH1 0x1F DUP3 GT PUSH1 0x1 EQ PUSH2 0x1214 JUMPI SWAP1 DUP1 PUSH1 0x1 SWAP3 PUSH1 0x0 SWAP2 PUSH2 0x1209 JUMPI JUMPDEST POP PUSH1 0x0 NOT PUSH1 0x3 DUP4 SWAP1 SHL SHR NOT AND SWAP1 DUP3 SHL OR SWAP2 ADD SSTORE JUMPDEST DUP1 PUSH1 0x0 MSTORE PUSH1 0x3 PUSH1 0x20 MSTORE PUSH1 0x2 PUSH1 0x40 PUSH1 0x0 KECCAK256 ADD DUP4 MLOAD PUSH8 0xFFFFFFFFFFFFFFFF DUP2 GT PUSH2 0x11F3 JUMPI PUSH2 0x103D DUP3 SLOAD PUSH2 0x1E94 JUMP JUMPDEST PUSH1 0x1F DUP2 GT PUSH2 0x11AB JUMPI JUMPDEST POP PUSH1 0x20 PUSH1 0x1F DUP3 GT PUSH1 0x1 EQ PUSH2 0x1142 JUMPI DUP2 SWAP3 SWAP4 SWAP5 SWAP6 PUSH1 0x0 SWAP3 PUSH2 0x1137 JUMPI JUMPDEST POP POP DUP2 PUSH1 0x1 SHL SWAP2 PUSH1 0x0 NOT SWAP1 PUSH1 0x3 SHL SHR NOT AND OR SWAP1 SSTORE JUMPDEST DUP1 PUSH1 0x0 MSTORE PUSH1 0x3 PUSH1 0x20 MSTORE PUSH1 0x0 PUSH1 0xB PUSH1 0x40 DUP3 KECCAK256 PUSH1 0x44 CALLDATALOAD PUSH1 0x3 DUP3 ADD SSTORE PUSH1 0x64 CALLDATALOAD PUSH1 0x4 DUP3 ADD SSTORE DUP3 PUSH1 0x5 DUP3 ADD SSTORE PUSH1 0x84 CALLDATALOAD PUSH1 0x6 DUP3 ADD SSTORE PUSH1 0x7 DUP2 ADD PUSH3 0xFFFF00 NOT DUP2 SLOAD AND SWAP1 SSTORE DUP3 PUSH1 0x8 DUP3 ADD SSTORE PUSH1 0x1 PUSH1 0x9 DUP3 ADD SSTORE PUSH1 0xA DUP2 ADD PUSH1 0xFF NOT DUP2 SLOAD AND SWAP1 SSTORE ADD SSTORE PUSH2 0x10D7 DUP2 PUSH2 0x2292 JUMP JUMPDEST PUSH32 0x7881671893DFE704DD6A454D81B4BE972B60A6FA6FFCBF34B4F833E0B0367A15 PUSH2 0x110D PUSH1 0x40 MLOAD SWAP4 PUSH1 0x60 DUP6 MSTORE PUSH1 0x60 DUP6 ADD SWAP1 PUSH2 0x1FCE JUMP JUMPDEST SWAP3 PUSH1 0x44 CALLDATALOAD PUSH1 0x20 DUP3 ADD MSTORE PUSH1 0x64 CALLDATALOAD PUSH1 0x40 DUP3 ADD MSTORE DUP1 CALLER SWAP5 SUB SWAP1 LOG3 PUSH1 0x7 SLOAD PUSH1 0x1 DUP2 ADD DUP1 SWAP2 GT PUSH2 0x9A4 JUMPI PUSH1 0x7 SSTORE STOP JUMPDEST ADD MLOAD SWAP1 POP DUP6 DUP1 PUSH2 0x1061 JUMP JUMPDEST DUP3 PUSH1 0x0 MSTORE PUSH1 0x20 PUSH1 0x0 KECCAK256 SWAP1 PUSH1 0x0 JUMPDEST PUSH1 0x1F NOT DUP5 AND DUP2 LT PUSH2 0x1193 JUMPI POP PUSH1 0x1 SWAP4 SWAP5 SWAP6 SWAP7 DUP4 PUSH1 0x1F NOT DUP2 AND LT PUSH2 0x117A JUMPI JUMPDEST POP POP POP DUP2 SHL ADD SWAP1 SSTORE PUSH2 0x1076 JUMP JUMPDEST ADD MLOAD PUSH1 0x0 NOT PUSH1 0xF8 DUP5 PUSH1 0x3 SHL AND SHR NOT AND SWAP1 SSTORE DUP6 DUP1 DUP1 PUSH2 0x116D JUMP JUMPDEST SWAP1 SWAP2 PUSH1 0x20 PUSH1 0x1 DUP2 SWAP3 DUP6 DUP12 ADD MLOAD DUP2 SSTORE ADD SWAP4 ADD SWAP2 ADD PUSH2 0x114F JUMP JUMPDEST DUP3 PUSH1 0x0 MSTORE PUSH1 0x20 PUSH1 0x0 KECCAK256 PUSH1 0x1F DUP4 ADD PUSH1 0x5 SHR DUP2 ADD SWAP2 PUSH1 0x20 DUP5 LT PUSH2 0x11E9 JUMPI JUMPDEST PUSH1 0x1F ADD PUSH1 0x5 SHR ADD SWAP1 JUMPDEST DUP2 DUP2 LT PUSH2 0x11DD JUMPI POP PUSH2 0x1046 JUMP JUMPDEST PUSH1 0x0 DUP2 SSTORE PUSH1 0x1 ADD PUSH2 0x11D0 JUMP JUMPDEST SWAP1 SWAP2 POP DUP2 SWAP1 PUSH2 0x11C7 JUMP JUMPDEST PUSH4 0x4E487B71 PUSH1 0xE0 SHL PUSH1 0x0 MSTORE PUSH1 0x41 PUSH1 0x4 MSTORE PUSH1 0x24 PUSH1 0x0 REVERT JUMPDEST SWAP1 POP DUP6 ADD MLOAD DUP8 PUSH2 0xFFD JUMP JUMPDEST PUSH1 0x1 DUP4 ADD PUSH1 0x0 MSTORE PUSH1 0x20 PUSH1 0x0 KECCAK256 SWAP1 PUSH1 0x0 JUMPDEST PUSH1 0x1F NOT DUP5 AND DUP2 LT PUSH2 0x1269 JUMPI POP SWAP2 PUSH1 0x1 SWAP3 SWAP2 DUP4 SWAP3 DUP3 PUSH1 0x1F NOT DUP2 AND LT PUSH2 0x1250 JUMPI JUMPDEST POP POP DUP2 SHL ADD SWAP2 ADD SSTORE PUSH2 0x1011 JUMP JUMPDEST DUP8 ADD MLOAD PUSH1 0x0 NOT PUSH1 0xF8 DUP5 PUSH1 0x3 SHL AND SHR NOT AND SWAP1 SSTORE DUP8 DUP1 PUSH2 0x1243 JUMP JUMPDEST SWAP1 SWAP2 PUSH1 0x20 PUSH1 0x1 DUP2 SWAP3 DUP6 DUP11 ADD MLOAD DUP2 SSTORE ADD SWAP4 ADD SWAP2 ADD PUSH2 0x1224 JUMP JUMPDEST PUSH1 0x1 DUP4 ADD PUSH1 0x0 MSTORE PUSH1 0x20 PUSH1 0x0 KECCAK256 PUSH1 0x1F DUP4 ADD PUSH1 0x5 SHR DUP2 ADD PUSH1 0x20 DUP5 LT PUSH2 0x12C1 JUMPI JUMPDEST PUSH1 0x1F DUP4 ADD PUSH1 0x5 SHR DUP3 ADD DUP2 LT PUSH2 0x12B5 JUMPI POP POP PUSH2 0xFE2 JUMP JUMPDEST PUSH1 0x0 DUP2 SSTORE PUSH1 0x1 ADD PUSH2 0x129F JUMP JUMPDEST POP DUP1 PUSH2 0x129F JUMP JUMPDEST PUSH1 0x40 MLOAD PUSH4 0x162908E3 PUSH1 0xE1 SHL DUP2 MSTORE PUSH1 0x4 SWAP1 REVERT JUMPDEST CALLVALUE PUSH2 0x269 JUMPI PUSH1 0x60 CALLDATASIZE PUSH1 0x3 NOT ADD SLT PUSH2 0x269 JUMPI PUSH1 0x4 CALLDATALOAD PUSH1 0x24 CALLDATALOAD PUSH2 0x12F9 PUSH2 0x23AB JUMP JUMPDEST PUSH2 0x1301 PUSH2 0x23D7 JUMP JUMPDEST PUSH2 0x130E PUSH1 0x7 SLOAD DUP4 LT PUSH2 0x21AE JUMP JUMPDEST DUP2 PUSH1 0x0 MSTORE PUSH1 0x3 DUP1 PUSH1 0x20 MSTORE PUSH1 0x40 PUSH1 0x0 KECCAK256 SWAP1 PUSH1 0x7 DUP3 ADD DUP1 SLOAD PUSH1 0xFF DUP2 PUSH1 0x10 SHR AND PUSH1 0x4 DUP2 LT ISZERO PUSH2 0x9CC JUMPI PUSH1 0x3 DUP2 EQ ISZERO SWAP1 DUP2 PUSH2 0x1479 JUMPI JUMPDEST POP PUSH2 0x1467 JUMPI DUP5 PUSH1 0x4 DUP6 ADD SSTORE PUSH1 0x44 CALLDATALOAD PUSH1 0x6 DUP6 ADD SSTORE PUSH3 0xFFFFFF NOT AND SWAP1 SSTORE PUSH1 0x9 DUP3 ADD SWAP2 DUP3 SLOAD SWAP1 PUSH1 0x1 SWAP2 PUSH1 0x1 DUP2 ADD DUP1 SWAP2 GT PUSH2 0x9A4 JUMPI PUSH1 0xB DUP6 SWAP5 SWAP4 SWAP3 PUSH1 0x0 SWAP3 DUP10 SWAP8 SSTORE PUSH1 0xA DUP2 ADD PUSH1 0xFF NOT DUP2 SLOAD AND SWAP1 SSTORE ADD SSTORE PUSH1 0x0 SWAP2 PUSH1 0x0 SWAP1 PUSH1 0x8 SLOAD SWAP2 JUMPDEST DUP3 DUP2 LT PUSH2 0x140A JUMPI JUMPDEST POP POP POP POP SWAP2 PUSH32 0x64848ABD03B4D0EA767A60BA27508C8E64D53388D6DFD9C1B8A8B0C262B034E3 PUSH1 0x40 PUSH1 0x0 DUP1 MLOAD PUSH1 0x20 PUSH2 0x2419 DUP4 CODECOPY DUP2 MLOAD SWAP2 MSTORE SWAP6 SWAP4 DUP2 SWAP6 ISZERO PUSH2 0x13FC JUMPI JUMPDEST SLOAD SWAP4 DUP2 MLOAD SWAP1 DUP6 DUP3 MSTORE PUSH1 0x20 DUP3 ADD MSTORE LOG2 DUP2 MLOAD SWAP1 PUSH1 0x0 DUP3 MSTORE PUSH1 0x20 DUP3 ADD MSTORE LOG2 STOP JUMPDEST PUSH2 0x1405 DUP5 PUSH2 0x2292 JUMP JUMPDEST PUSH2 0x13DF JUMP JUMPDEST SWAP1 SWAP2 SWAP3 SWAP4 SWAP5 SWAP6 DUP1 PUSH2 0x141A DUP4 PUSH2 0x201B JUMP JUMPDEST SWAP1 SLOAD SWAP1 DUP6 SHL SHR EQ PUSH2 0x1434 JUMPI POP DUP4 ADD SWAP1 DUP8 SWAP6 SWAP5 SWAP4 SWAP3 SWAP2 PUSH2 0x1396 JUMP JUMPDEST SWAP6 SWAP5 POP PUSH32 0x64848ABD03B4D0EA767A60BA27508C8E64D53388D6DFD9C1B8A8B0C262B034E3 SWAP3 POP PUSH1 0x40 SWAP2 POP DUP5 SWAP1 POP DUP2 PUSH2 0x139E JUMP JUMPDEST PUSH1 0x40 MLOAD PUSH4 0x8F35941 PUSH1 0xE2 SHL DUP2 MSTORE PUSH1 0x4 SWAP1 REVERT JUMPDEST PUSH1 0x2 SWAP2 POP EQ ISZERO DUP8 PUSH2 0x1340 JUMP JUMPDEST CALLVALUE PUSH2 0x269 JUMPI PUSH1 0x40 CALLDATASIZE PUSH1 0x3 NOT ADD SLT PUSH2 0x269 JUMPI PUSH1 0x4 CALLDATALOAD PUSH2 0x14A1 PUSH2 0x210B JUMP JUMPDEST PUSH2 0x14AE PUSH1 0x7 SLOAD DUP4 LT PUSH2 0x21AE JUMP JUMPDEST DUP2 PUSH1 0x0 MSTORE PUSH1 0x20 PUSH1 0x4 DUP2 MSTORE PUSH1 0x40 PUSH1 0x0 KECCAK256 SWAP2 PUSH1 0x1 DUP1 PUSH1 0xA0 SHL SUB DUP1 SWAP2 AND SWAP3 DUP4 PUSH1 0x0 MSTORE DUP3 MSTORE PUSH1 0x40 PUSH1 0x0 KECCAK256 SWAP3 PUSH1 0x40 MLOAD DUP1 DUP6 DUP6 DUP3 SWAP8 SLOAD SWAP4 DUP5 DUP2 MSTORE ADD SWAP1 PUSH1 0x0 MSTORE DUP6 PUSH1 0x0 KECCAK256 SWAP3 PUSH1 0x0 JUMPDEST DUP8 DUP3 DUP3 LT PUSH2 0x164F JUMPI POP POP POP PUSH2 0x1506 SWAP3 POP SUB DUP6 PUSH2 0x1F07 JUMP JUMPDEST DUP4 MLOAD SWAP3 PUSH2 0x1512 DUP5 PUSH2 0x2204 JUMP JUMPDEST SWAP4 PUSH2 0x1520 PUSH1 0x40 MLOAD SWAP6 DUP7 PUSH2 0x1F07 JUMP JUMPDEST DUP1 DUP6 MSTORE PUSH2 0x152F PUSH1 0x1F NOT SWAP2 PUSH2 0x2204 JUMP JUMPDEST ADD DUP2 PUSH1 0x0 JUMPDEST DUP3 DUP2 LT PUSH2 0x1616 JUMPI POP POP POP DUP6 PUSH1 0x0 MSTORE PUSH1 0x3 DUP2 MSTORE PUSH1 0x9 PUSH1 0x40 PUSH1 0x0 KECCAK256 ADD SLOAD SWAP6 PUSH1 0x0 JUMPDEST DUP7 MLOAD DUP2 LT ISZERO PUSH2 0x1604 JUMPI PUSH2 0x1566 DUP2 DUP9 PUSH2 0x2271 JUMP JUMPDEST MLOAD DUP9 DUP1 JUMPDEST PUSH2 0x1579 JUMPI JUMPDEST POP POP PUSH1 0x1 ADD PUSH2 0x1553 JUMP JUMPDEST DUP4 PUSH1 0x0 MSTORE PUSH1 0x5 DUP1 DUP7 MSTORE PUSH1 0x40 PUSH1 0x0 KECCAK256 DUP3 PUSH1 0x0 MSTORE DUP7 MSTORE PUSH1 0x40 PUSH1 0x0 KECCAK256 SLOAD DUP4 LT PUSH2 0x15AB JUMPI JUMPDEST POP DUP1 ISZERO PUSH2 0x9A4 JUMPI PUSH1 0x0 NOT ADD DUP1 PUSH2 0x156A JUMP JUMPDEST DUP5 PUSH1 0x0 MSTORE DUP6 MSTORE PUSH1 0x40 PUSH1 0x0 KECCAK256 DUP2 PUSH1 0x0 MSTORE DUP6 MSTORE PUSH2 0x15D3 PUSH2 0x15CD DUP4 PUSH1 0x40 PUSH1 0x0 KECCAK256 PUSH2 0x2192 JUMP JUMPDEST POP PUSH2 0x221C JUMP JUMPDEST DUP7 DUP9 PUSH1 0x40 DUP4 ADD MLOAD AND SUB PUSH2 0x159A JUMPI SWAP1 POP DUP3 SWAP2 POP PUSH2 0x15F1 PUSH1 0x1 SWAP4 DUP10 PUSH2 0x2271 JUMP JUMPDEST MSTORE PUSH2 0x15FC DUP2 DUP9 PUSH2 0x2271 JUMP JUMPDEST POP SWAP1 DUP10 PUSH2 0x156F JUMP JUMPDEST PUSH1 0x40 MLOAD DUP1 PUSH2 0x1612 DUP9 DUP3 PUSH2 0x2096 JUMP JUMPDEST SUB SWAP1 RETURN JUMPDEST PUSH1 0x40 MLOAD PUSH2 0x1622 DUP2 PUSH2 0x1EEB JUMP JUMPDEST PUSH1 0x0 DUP2 MSTORE PUSH1 0x0 DUP4 DUP3 ADD MSTORE PUSH1 0x0 PUSH1 0x40 DUP3 ADD MSTORE PUSH1 0x0 PUSH1 0x60 DUP3 ADD MSTORE PUSH1 0x0 PUSH1 0x80 DUP3 ADD MSTORE DUP3 DUP3 DUP10 ADD ADD MSTORE ADD DUP3 SWAP1 PUSH2 0x1534 JUMP JUMPDEST DUP6 SLOAD DUP5 MSTORE PUSH1 0x1 SWAP6 DUP7 ADD SWAP6 DUP11 SWAP6 POP SWAP4 ADD SWAP3 ADD PUSH2 0x14EF JUMP JUMPDEST CALLVALUE PUSH2 0x269 JUMPI PUSH1 0x20 CALLDATASIZE PUSH1 0x3 NOT ADD SLT PUSH2 0x269 JUMPI PUSH1 0x4 CALLDATALOAD PUSH2 0x1681 PUSH2 0x23AB JUMP JUMPDEST PUSH2 0x1689 PUSH2 0x23F5 JUMP JUMPDEST DUP1 ISZERO PUSH2 0x174F JUMPI JUMPDEST PUSH1 0x9 SLOAD DUP1 DUP3 GT PUSH2 0x12C8 JUMPI DUP2 PUSH2 0x16A4 SWAP2 PUSH2 0x2264 JUMP JUMPDEST PUSH1 0x9 SSTORE PUSH1 0xA SLOAD PUSH1 0x0 DUP1 SLOAD PUSH1 0x40 MLOAD PUSH4 0xA9059CBB PUSH1 0xE0 SHL DUP2 MSTORE PUSH1 0x1 PUSH1 0x1 PUSH1 0xA0 SHL SUB SWAP2 DUP3 AND PUSH1 0x4 DUP3 ADD MSTORE PUSH1 0x24 DUP2 ADD DUP6 SWAP1 MSTORE SWAP1 SWAP3 SWAP1 SWAP2 PUSH1 0x20 SWAP2 DUP4 SWAP2 PUSH1 0x44 SWAP2 DUP4 SWAP2 SWAP1 DUP8 AND GAS CALL SWAP1 DUP2 ISZERO PUSH2 0x648 JUMPI PUSH1 0x0 SWAP2 PUSH2 0x1730 JUMPI JUMPDEST POP ISZERO PUSH2 0x609 JUMPI PUSH1 0x20 PUSH32 0xC0819C13BE868895EB93E40EACEB96DE976442FA1D404E5C55F14BB65A8C489A SWAP2 PUSH1 0x0 SLOAD AND SWAP3 PUSH1 0x40 MLOAD SWAP1 DUP2 MSTORE LOG2 PUSH1 0x1 DUP1 SSTORE STOP JUMPDEST PUSH2 0x1749 SWAP2 POP PUSH1 0x20 RETURNDATASIZE PUSH1 0x20 GT PUSH2 0x641 JUMPI PUSH2 0x633 DUP2 DUP4 PUSH2 0x1F07 JUMP JUMPDEST DUP4 PUSH2 0x16F4 JUMP JUMPDEST POP PUSH1 0x9 SLOAD PUSH2 0x1690 JUMP JUMPDEST CALLVALUE PUSH2 0x269 JUMPI PUSH2 0x1766 CALLDATASIZE PUSH2 0x2080 JUMP JUMPDEST SWAP1 PUSH2 0x1774 PUSH1 0x7 SLOAD DUP3 LT PUSH2 0x21AE JUMP JUMPDEST PUSH1 0x0 MSTORE PUSH1 0x20 SWAP1 PUSH1 0x5 PUSH1 0x20 MSTORE PUSH1 0x40 PUSH1 0x0 KECCAK256 SWAP1 PUSH1 0x0 MSTORE PUSH1 0x20 MSTORE PUSH1 0x40 PUSH1 0x0 KECCAK256 DUP1 SLOAD PUSH2 0x179B DUP2 PUSH2 0x2204 JUMP JUMPDEST SWAP2 PUSH2 0x17A9 PUSH1 0x40 MLOAD SWAP4 DUP5 PUSH2 0x1F07 JUMP JUMPDEST DUP2 DUP4 MSTORE PUSH1 0x20 DUP4 ADD SWAP1 PUSH1 0x0 MSTORE PUSH1 0x20 PUSH1 0x0 KECCAK256 SWAP4 PUSH1 0x0 SWAP2 JUMPDEST DUP4 DUP4 LT PUSH2 0x17D3 JUMPI PUSH1 0x40 MLOAD DUP1 PUSH2 0x1612 DUP8 DUP3 PUSH2 0x2096 JUMP JUMPDEST PUSH1 0x4 DUP3 PUSH1 0x1 SWAP3 PUSH2 0x17E2 DUP10 PUSH2 0x221C JUMP JUMPDEST DUP2 MSTORE ADD SWAP7 ADD SWAP3 ADD SWAP2 SWAP5 PUSH2 0x17BE JUMP JUMPDEST CALLVALUE PUSH2 0x269 JUMPI PUSH1 0x0 CALLDATASIZE PUSH1 0x3 NOT ADD SLT PUSH2 0x269 JUMPI PUSH2 0x1809 PUSH2 0x23AB JUMP JUMPDEST PUSH2 0x1811 PUSH2 0x23D7 JUMP JUMPDEST PUSH1 0x1 PUSH1 0xFF NOT PUSH1 0x2 SLOAD AND OR PUSH1 0x2 SSTORE PUSH32 0x62E78CEA01BEE320CD4E420270B5EA74000D11B0C9F74754EBDBFC544B05A258 PUSH1 0x20 PUSH1 0x40 MLOAD CALLER DUP2 MSTORE LOG1 STOP JUMPDEST CALLVALUE PUSH2 0x269 JUMPI PUSH1 0x20 DUP1 PUSH1 0x3 NOT CALLDATASIZE ADD SLT PUSH2 0x269 JUMPI PUSH1 0x4 CALLDATALOAD PUSH2 0x1867 PUSH2 0x23AB JUMP JUMPDEST PUSH1 0xA SLOAD PUSH1 0x40 MLOAD PUSH4 0x70A08231 PUSH1 0xE0 SHL DUP2 MSTORE ADDRESS PUSH1 0x4 DUP3 ADD MSTORE PUSH1 0x1 PUSH1 0x1 PUSH1 0xA0 SHL SUB SWAP2 DUP3 AND SWAP3 SWAP1 DUP5 DUP2 PUSH1 0x24 DUP2 DUP8 GAS STATICCALL SWAP1 DUP2 ISZERO PUSH2 0x648 JUMPI PUSH1 0x0 SWAP2 PUSH2 0x1918 JUMPI JUMPDEST POP DUP2 GT PUSH2 0x12C8 JUMPI PUSH1 0x0 DUP1 SLOAD PUSH1 0x40 MLOAD PUSH4 0xA9059CBB PUSH1 0xE0 SHL DUP2 MSTORE SWAP4 AND PUSH1 0x1 PUSH1 0x1 PUSH1 0xA0 SHL SUB AND PUSH1 0x4 DUP5 ADD MSTORE PUSH1 0x24 DUP4 ADD SWAP2 SWAP1 SWAP2 MSTORE SWAP1 SWAP2 DUP4 SWAP2 DUP4 SWAP2 SWAP1 DUP3 SWAP1 DUP2 PUSH1 0x44 DUP2 ADD SUB SWAP3 GAS CALL SWAP2 DUP3 ISZERO PUSH2 0x648 JUMPI PUSH1 0x0 SWAP3 PUSH2 0x18FB JUMPI JUMPDEST POP POP ISZERO PUSH2 0x609 JUMPI STOP JUMPDEST PUSH2 0x1911 SWAP3 POP DUP1 RETURNDATASIZE LT PUSH2 0x641 JUMPI PUSH2 0x633 DUP2 DUP4 PUSH2 0x1F07 JUMP JUMPDEST DUP2 DUP1 PUSH2 0x18F2 JUMP JUMPDEST SWAP1 POP DUP5 DUP2 DUP2 RETURNDATASIZE DUP4 GT PUSH2 0x193E JUMPI JUMPDEST PUSH2 0x192F DUP2 DUP4 PUSH2 0x1F07 JUMP JUMPDEST DUP2 ADD SUB SLT PUSH2 0x269 JUMPI MLOAD DUP6 PUSH2 0x18A1 JUMP JUMPDEST POP RETURNDATASIZE PUSH2 0x1925 JUMP JUMPDEST CALLVALUE PUSH2 0x269 JUMPI PUSH1 0x0 CALLDATASIZE PUSH1 0x3 NOT ADD SLT PUSH2 0x269 JUMPI PUSH1 0x20 PUSH1 0x40 MLOAD PUSH1 0xA DUP2 MSTORE RETURN JUMPDEST CALLVALUE PUSH2 0x269 JUMPI PUSH1 0x20 CALLDATASIZE PUSH1 0x3 NOT ADD SLT PUSH2 0x269 JUMPI PUSH1 0x4 CALLDATALOAD PUSH1 0x0 PUSH2 0x1A0 PUSH1 0x40 MLOAD PUSH2 0x1986 DUP2 PUSH2 0x1ECE JUMP JUMPDEST DUP3 DUP2 MSTORE PUSH1 0x60 PUSH1 0x20 DUP3 ADD MSTORE PUSH1 0x60 PUSH1 0x40 DUP3 ADD MSTORE DUP3 PUSH1 0x60 DUP3 ADD MSTORE DUP3 PUSH1 0x80 DUP3 ADD MSTORE DUP3 PUSH1 0xA0 DUP3 ADD MSTORE DUP3 PUSH1 0xC0 DUP3 ADD MSTORE DUP3 PUSH1 0xE0 DUP3 ADD MSTORE DUP3 PUSH2 0x100 DUP3 ADD MSTORE DUP3 PUSH2 0x120 DUP3 ADD MSTORE DUP3 PUSH2 0x140 DUP3 ADD MSTORE DUP3 PUSH2 0x160 DUP3 ADD MSTORE DUP3 PUSH2 0x180 DUP3 ADD MSTORE ADD MSTORE PUSH2 0x19E7 PUSH1 0x7 SLOAD DUP3 LT PUSH2 0x21AE JUMP JUMPDEST PUSH1 0x0 MSTORE PUSH1 0x3 PUSH1 0x20 MSTORE PUSH1 0x40 PUSH1 0x0 KECCAK256 PUSH1 0x40 MLOAD SWAP1 PUSH2 0x1A01 DUP3 PUSH2 0x1ECE JUMP JUMPDEST DUP1 SLOAD DUP3 MSTORE PUSH2 0x1A11 PUSH1 0x1 DUP3 ADD PUSH2 0x1F29 JUMP JUMPDEST PUSH1 0x20 DUP4 ADD MSTORE PUSH2 0x1A22 PUSH1 0x2 DUP3 ADD PUSH2 0x1F29 JUMP JUMPDEST PUSH1 0x40 DUP4 ADD MSTORE PUSH1 0x3 DUP2 ADD SLOAD PUSH1 0x60 DUP4 ADD MSTORE PUSH1 0x4 DUP2 ADD SLOAD PUSH1 0x80 DUP4 ADD MSTORE PUSH1 0x5 DUP2 ADD SLOAD PUSH1 0xA0 DUP4 ADD MSTORE PUSH1 0x6 DUP2 ADD SLOAD PUSH1 0xC0 DUP4 ADD MSTORE PUSH1 0x7 DUP2 ADD SLOAD SWAP1 PUSH1 0xFF DUP3 AND PUSH1 0xE0 DUP5 ADD MSTORE PUSH1 0xFF DUP3 PUSH1 0x8 SHR AND ISZERO ISZERO PUSH2 0x100 DUP5 ADD MSTORE PUSH1 0x4 PUSH1 0xFF DUP4 PUSH1 0x10 SHR AND LT ISZERO PUSH2 0x9CC JUMPI PUSH1 0xFF PUSH1 0xB SWAP3 PUSH1 0x10 SHR AND PUSH2 0x120 DUP5 ADD MSTORE PUSH1 0x8 DUP2 ADD SLOAD PUSH2 0x140 DUP5 ADD MSTORE PUSH1 0x9 DUP2 ADD SLOAD PUSH2 0x160 DUP5 ADD MSTORE PUSH1 0xFF PUSH1 0xA DUP3 ADD SLOAD AND ISZERO ISZERO PUSH2 0x180 DUP5 ADD MSTORE ADD SLOAD PUSH2 0x1A0 DUP3 ADD MSTORE PUSH1 0x40 MLOAD DUP1 SWAP2 PUSH1 0x20 DUP3 MSTORE DUP1 MLOAD PUSH1 0x20 DUP4 ADD MSTORE PUSH2 0x1A0 PUSH2 0x1B00 PUSH2 0x1AEA PUSH1 0x20 DUP5 ADD MLOAD PUSH2 0x1C0 PUSH1 0x40 DUP8 ADD MSTORE PUSH2 0x1E0 DUP7 ADD SWAP1 PUSH2 0x1FCE JUMP JUMPDEST PUSH1 0x40 DUP5 ADD MLOAD DUP6 DUP3 SUB PUSH1 0x1F NOT ADD PUSH1 0x60 DUP8 ADD MSTORE PUSH2 0x1FCE JUMP JUMPDEST SWAP2 PUSH1 0x60 DUP2 ADD MLOAD PUSH1 0x80 DUP6 ADD MSTORE PUSH1 0x80 DUP2 ADD MLOAD PUSH1 0xA0 DUP6 ADD MSTORE PUSH1 0xA0 DUP2 ADD MLOAD PUSH1 0xC0 DUP6 ADD MSTORE PUSH1 0xC0 DUP2 ADD MLOAD PUSH1 0xE0 DUP6 ADD MSTORE PUSH1 0xFF PUSH1 0xE0 DUP3 ADD MLOAD AND PUSH2 0x100 DUP6 ADD MSTORE PUSH2 0x100 DUP2 ADD MLOAD ISZERO ISZERO PUSH2 0x120 DUP6 ADD MSTORE PUSH2 0x1B59 PUSH2 0x120 DUP3 ADD MLOAD PUSH2 0x140 DUP7 ADD SWAP1 PUSH2 0x200E JUMP JUMPDEST PUSH2 0x140 DUP2 ADD MLOAD PUSH2 0x160 DUP6 ADD MSTORE PUSH2 0x160 DUP2 ADD MLOAD PUSH2 0x180 DUP6 ADD MSTORE PUSH2 0x180 DUP2 ADD MLOAD ISZERO ISZERO DUP3 DUP6 ADD MSTORE ADD MLOAD PUSH2 0x1C0 DUP4 ADD MSTORE SUB SWAP1 RETURN JUMPDEST CALLVALUE PUSH2 0x269 JUMPI PUSH1 0x20 CALLDATASIZE PUSH1 0x3 NOT ADD SLT PUSH2 0x269 JUMPI PUSH1 0x4 CALLDATALOAD PUSH1 0x8 SLOAD DUP2 LT ISZERO PUSH2 0x269 JUMPI PUSH2 0x7D0 PUSH1 0x20 SWAP2 PUSH2 0x201B JUMP JUMPDEST CALLVALUE PUSH2 0x269 JUMPI PUSH1 0x20 CALLDATASIZE PUSH1 0x3 NOT ADD SLT PUSH2 0x269 JUMPI PUSH1 0x4 CALLDATALOAD PUSH1 0x0 MSTORE PUSH1 0x3 PUSH1 0x20 MSTORE PUSH1 0x40 PUSH1 0x0 KECCAK256 DUP1 SLOAD PUSH2 0x1BE1 PUSH1 0x1 DUP4 ADD PUSH2 0x1F29 JUMP JUMPDEST SWAP2 PUSH2 0x1BEE PUSH1 0x2 DUP3 ADD PUSH2 0x1F29 JUMP JUMPDEST PUSH1 0x3 DUP3 ADD SLOAD SWAP2 PUSH1 0x4 DUP2 ADD SLOAD PUSH1 0x5 DUP3 ADD SLOAD PUSH2 0x1C92 PUSH1 0x6 DUP5 ADD SLOAD PUSH1 0x7 DUP6 ADD SLOAD SWAP1 PUSH1 0x8 DUP7 ADD SLOAD SWAP4 PUSH1 0x9 DUP8 ADD SLOAD SWAP6 PUSH2 0x1C54 PUSH1 0xB PUSH1 0xFF PUSH1 0xA DUP12 ADD SLOAD AND SWAP10 ADD SLOAD SWAP10 PUSH2 0x1C46 PUSH1 0x40 MLOAD SWAP15 DUP16 SWAP15 DUP16 PUSH2 0x1C0 SWAP2 DUP2 MSTORE DUP2 PUSH1 0x20 DUP3 ADD MSTORE ADD SWAP1 PUSH2 0x1FCE JUMP JUMPDEST DUP14 DUP2 SUB PUSH1 0x40 DUP16 ADD MSTORE SWAP1 PUSH2 0x1FCE JUMP JUMPDEST SWAP10 PUSH1 0x60 DUP13 ADD MSTORE PUSH1 0x80 DUP12 ADD MSTORE PUSH1 0xA0 DUP11 ADD MSTORE PUSH1 0xC0 DUP10 ADD MSTORE PUSH1 0xFF DUP2 AND PUSH1 0xE0 DUP10 ADD MSTORE PUSH1 0xFF DUP2 PUSH1 0x8 SHR AND ISZERO ISZERO PUSH2 0x100 DUP10 ADD MSTORE PUSH1 0xFF PUSH2 0x120 DUP10 ADD SWAP2 PUSH1 0x10 SHR AND PUSH2 0x200E JUMP JUMPDEST PUSH2 0x140 DUP7 ADD MSTORE PUSH2 0x160 DUP6 ADD MSTORE ISZERO ISZERO PUSH2 0x180 DUP5 ADD MSTORE PUSH2 0x1A0 DUP4 ADD MSTORE SUB SWAP1 RETURN JUMPDEST CALLVALUE PUSH2 0x269 JUMPI PUSH1 0x20 CALLDATASIZE PUSH1 0x3 NOT ADD SLT PUSH2 0x269 JUMPI PUSH1 0x4 CALLDATALOAD PUSH2 0x1CD1 PUSH1 0x7 SLOAD DUP3 LT PUSH2 0x21AE JUMP JUMPDEST PUSH1 0x0 MSTORE PUSH1 0x3 PUSH1 0x20 MSTORE PUSH1 0x20 PUSH1 0x9 PUSH1 0x40 PUSH1 0x0 KECCAK256 ADD SLOAD PUSH1 0x40 MLOAD SWAP1 DUP2 MSTORE RETURN JUMPDEST CALLVALUE PUSH2 0x269 JUMPI PUSH1 0x0 CALLDATASIZE PUSH1 0x3 NOT ADD SLT PUSH2 0x269 JUMPI PUSH1 0xA SLOAD PUSH1 0x40 MLOAD PUSH1 0x1 PUSH1 0x1 PUSH1 0xA0 SHL SUB SWAP1 SWAP2 AND DUP2 MSTORE PUSH1 0x20 SWAP1 RETURN JUMPDEST CALLVALUE PUSH2 0x269 JUMPI PUSH1 0x60 CALLDATASIZE PUSH1 0x3 NOT ADD SLT PUSH2 0x269 JUMPI PUSH1 0x4 CALLDATALOAD PUSH1 0x44 CALLDATALOAD PUSH1 0xFF DUP2 AND SWAP1 DUP2 DUP2 SUB PUSH2 0x269 JUMPI PUSH2 0x1D40 PUSH2 0x23AB JUMP JUMPDEST PUSH2 0x1D48 PUSH2 0x23D7 JUMP JUMPDEST PUSH2 0x1D55 PUSH1 0x7 SLOAD DUP5 LT PUSH2 0x21AE JUMP JUMPDEST DUP3 PUSH1 0x0 MSTORE PUSH1 0x3 PUSH1 0x20 MSTORE PUSH1 0x40 PUSH1 0x0 KECCAK256 SWAP2 PUSH1 0x7 DUP4 ADD SWAP2 DUP3 SLOAD SWAP1 PUSH1 0xFF DUP3 PUSH1 0x8 SHR AND PUSH2 0x1E82 JUMPI DUP6 PUSH1 0x0 MSTORE PUSH1 0x3 PUSH1 0x20 MSTORE PUSH1 0x6 PUSH1 0x40 PUSH1 0x0 KECCAK256 SWAP2 PUSH1 0x0 SLOAD PUSH1 0x9 DUP5 ADD SLOAD PUSH1 0x40 MLOAD SWAP2 PUSH1 0x20 DUP4 ADD SWAP4 PUSH1 0xFF PUSH1 0xF8 SHL SWAP1 PUSH1 0xF8 SHL AND DUP5 MSTORE PUSH1 0x24 CALLDATALOAD PUSH1 0x21 DUP5 ADD MSTORE DUP11 PUSH1 0x41 DUP5 ADD MSTORE PUSH12 0xFFFFFFFFFFFFFFFFFFFFFFFF NOT SWAP1 PUSH1 0x60 SHL AND PUSH1 0x61 DUP4 ADD MSTORE PUSH1 0x75 DUP3 ADD MSTORE PUSH1 0x75 DUP2 MSTORE PUSH2 0x1DDD DUP2 PUSH2 0x1EEB JUMP JUMPDEST MLOAD SWAP1 KECCAK256 SWAP2 ADD SLOAD EQ DUP1 PUSH2 0x1E77 JUMPI JUMPDEST ISZERO PUSH2 0x1E65 JUMPI PUSH32 0x8BFA46B879D2DFDB649ACE427170ADF3799F490B448D5B3A7FD3507B13EF7241 PUSH1 0x40 PUSH1 0x9 PUSH1 0x0 DUP1 MLOAD PUSH1 0x20 PUSH2 0x2419 DUP4 CODECOPY DUP2 MLOAD SWAP2 MSTORE SWAP7 DUP3 SWAP7 PUSH3 0x20000 DUP11 SWAP7 PUSH2 0x100 DUP10 PUSH3 0xFF0000 NOT SWAP3 PUSH2 0xFFFF NOT AND OR OR AND OR SWAP1 SSTORE TIMESTAMP PUSH1 0xB DUP3 ADD SSTORE ADD SLOAD SWAP4 DUP2 MLOAD SWAP1 DUP2 MSTORE DUP5 PUSH1 0x20 DUP3 ADD MSTORE LOG2 DUP2 MLOAD SWAP1 PUSH1 0x2 DUP3 MSTORE PUSH1 0x20 DUP3 ADD MSTORE LOG2 STOP JUMPDEST PUSH1 0x40 MLOAD PUSH4 0x4BC4AB7 PUSH1 0xE3 SHL DUP2 MSTORE PUSH1 0x4 SWAP1 REVERT JUMPDEST POP PUSH1 0x63 DUP3 GT ISZERO PUSH2 0x1DEA JUMP JUMPDEST PUSH1 0x40 MLOAD PUSH4 0xA89AC151 PUSH1 0xE0 SHL DUP2 MSTORE PUSH1 0x4 SWAP1 REVERT JUMPDEST SWAP1 PUSH1 0x1 DUP3 DUP2 SHR SWAP3 AND DUP1 ISZERO PUSH2 0x1EC4 JUMPI JUMPDEST PUSH1 0x20 DUP4 LT EQ PUSH2 0x1EAE JUMPI JUMP JUMPDEST PUSH4 0x4E487B71 PUSH1 0xE0 SHL PUSH1 0x0 MSTORE PUSH1 0x22 PUSH1 0x4 MSTORE PUSH1 0x24 PUSH1 0x0 REVERT JUMPDEST SWAP2 PUSH1 0x7F AND SWAP2 PUSH2 0x1EA3 JUMP JUMPDEST PUSH2 0x1C0 DUP2 ADD SWAP1 DUP2 LT PUSH8 0xFFFFFFFFFFFFFFFF DUP3 GT OR PUSH2 0x11F3 JUMPI PUSH1 0x40 MSTORE JUMP JUMPDEST PUSH1 0xA0 DUP2 ADD SWAP1 DUP2 LT PUSH8 0xFFFFFFFFFFFFFFFF DUP3 GT OR PUSH2 0x11F3 JUMPI PUSH1 0x40 MSTORE JUMP JUMPDEST SWAP1 PUSH1 0x1F DUP1 NOT SWAP2 ADD AND DUP2 ADD SWAP1 DUP2 LT PUSH8 0xFFFFFFFFFFFFFFFF DUP3 GT OR PUSH2 0x11F3 JUMPI PUSH1 0x40 MSTORE JUMP JUMPDEST SWAP1 PUSH1 0x40 MLOAD SWAP2 DUP3 PUSH1 0x0 DUP3 SLOAD PUSH2 0x1F3C DUP2 PUSH2 0x1E94 JUMP JUMPDEST SWAP1 DUP2 DUP5 MSTORE PUSH1 0x20 SWAP5 PUSH1 0x1 SWAP2 PUSH1 0x1 DUP2 AND SWAP1 DUP2 PUSH1 0x0 EQ PUSH2 0x1FAC JUMPI POP PUSH1 0x1 EQ PUSH2 0x1F6D JUMPI JUMPDEST POP POP POP PUSH2 0x1F6B SWAP3 POP SUB DUP4 PUSH2 0x1F07 JUMP JUMPDEST JUMP JUMPDEST PUSH1 0x0 SWAP1 DUP2 MSTORE DUP6 DUP2 KECCAK256 SWAP6 SWAP4 POP SWAP2 SWAP1 JUMPDEST DUP2 DUP4 LT PUSH2 0x1F94 JUMPI POP POP PUSH2 0x1F6B SWAP4 POP DUP3 ADD ADD CODESIZE DUP1 DUP1 PUSH2 0x1F5C JUMP JUMPDEST DUP6 SLOAD DUP9 DUP5 ADD DUP6 ADD MSTORE SWAP5 DUP6 ADD SWAP5 DUP8 SWAP5 POP SWAP2 DUP4 ADD SWAP2 PUSH2 0x1F7B JUMP JUMPDEST SWAP3 POP POP POP PUSH2 0x1F6B SWAP5 SWAP3 POP PUSH1 0xFF NOT AND DUP3 DUP5 ADD MSTORE ISZERO ISZERO PUSH1 0x5 SHL DUP3 ADD ADD CODESIZE DUP1 DUP1 PUSH2 0x1F5C JUMP JUMPDEST SWAP2 SWAP1 DUP3 MLOAD SWAP3 DUP4 DUP3 MSTORE PUSH1 0x0 JUMPDEST DUP5 DUP2 LT PUSH2 0x1FFA JUMPI POP POP DUP3 PUSH1 0x0 PUSH1 0x20 DUP1 SWAP5 SWAP6 DUP5 ADD ADD MSTORE PUSH1 0x1F DUP1 NOT SWAP2 ADD AND ADD ADD SWAP1 JUMP JUMPDEST PUSH1 0x20 DUP2 DUP4 ADD DUP2 ADD MLOAD DUP5 DUP4 ADD DUP3 ADD MSTORE ADD PUSH2 0x1FD9 JUMP JUMPDEST SWAP1 PUSH1 0x4 DUP3 LT ISZERO PUSH2 0x9CC JUMPI MSTORE JUMP JUMPDEST PUSH1 0x8 SLOAD DUP2 LT ISZERO PUSH2 0x2052 JUMPI PUSH1 0x8 PUSH1 0x0 MSTORE PUSH32 0xF3F7A9FE364FAAB93B216DA50A3214154F22A0A2B415B23A84C8169E8B636EE3 ADD SWAP1 PUSH1 0x0 SWAP1 JUMP JUMPDEST PUSH4 0x4E487B71 PUSH1 0xE0 SHL PUSH1 0x0 MSTORE PUSH1 0x32 PUSH1 0x4 MSTORE PUSH1 0x24 PUSH1 0x0 REVERT JUMPDEST DUP1 SLOAD DUP3 LT ISZERO PUSH2 0x2052 JUMPI PUSH1 0x0 MSTORE PUSH1 0x20 PUSH1 0x0 KECCAK256 ADD SWAP1 PUSH1 0x0 SWAP1 JUMP JUMPDEST PUSH1 0x40 SWAP1 PUSH1 0x3 NOT ADD SLT PUSH2 0x269 JUMPI PUSH1 0x4 CALLDATALOAD SWAP1 PUSH1 0x24 CALLDATALOAD SWAP1 JUMP JUMPDEST PUSH1 0x20 DUP1 DUP3 ADD SWAP1 DUP1 DUP4 MSTORE DUP4 MLOAD DUP1 SWAP3 MSTORE DUP1 PUSH1 0x40 DUP1 SWAP5 ADD SWAP5 ADD SWAP3 PUSH1 0x0 SWAP1 JUMPDEST DUP4 DUP3 LT PUSH2 0x20C0 JUMPI POP POP POP POP POP SWAP1 JUMP JUMPDEST DUP5 MLOAD DUP1 MLOAD DUP8 MSTORE DUP1 DUP5 ADD MLOAD DUP8 DUP6 ADD MSTORE DUP1 DUP3 ADD MLOAD PUSH1 0x1 PUSH1 0x1 PUSH1 0xA0 SHL SUB AND DUP8 DUP4 ADD MSTORE PUSH1 0x60 DUP1 DUP3 ADD MLOAD PUSH1 0xFF AND SWAP1 DUP9 ADD MSTORE PUSH1 0x80 SWAP1 DUP2 ADD MLOAD SWAP1 DUP8 ADD MSTORE PUSH1 0xA0 SWAP1 SWAP6 ADD SWAP5 SWAP4 DUP3 ADD SWAP4 PUSH1 0x1 SWAP1 SWAP2 ADD SWAP1 PUSH2 0x20B1 JUMP JUMPDEST PUSH1 0x24 CALLDATALOAD SWAP1 PUSH1 0x1 PUSH1 0x1 PUSH1 0xA0 SHL SUB DUP3 AND DUP3 SUB PUSH2 0x269 JUMPI JUMP JUMPDEST DUP2 PUSH1 0x1F DUP3 ADD SLT ISZERO PUSH2 0x269 JUMPI DUP1 CALLDATALOAD SWAP1 PUSH8 0xFFFFFFFFFFFFFFFF DUP3 GT PUSH2 0x11F3 JUMPI PUSH1 0x40 MLOAD SWAP3 PUSH2 0x2156 PUSH1 0x1F DUP5 ADD PUSH1 0x1F NOT AND PUSH1 0x20 ADD DUP6 PUSH2 0x1F07 JUMP JUMPDEST DUP3 DUP5 MSTORE PUSH1 0x20 DUP4 DUP4 ADD ADD GT PUSH2 0x269 JUMPI DUP2 PUSH1 0x0 SWAP3 PUSH1 0x20 DUP1 SWAP4 ADD DUP4 DUP7 ADD CALLDATACOPY DUP4 ADD ADD MSTORE SWAP1 JUMP JUMPDEST PUSH1 0x60 SWAP1 PUSH1 0x3 NOT ADD SLT PUSH2 0x269 JUMPI PUSH1 0x4 CALLDATALOAD SWAP1 PUSH1 0x24 CALLDATALOAD SWAP1 PUSH1 0x44 CALLDATALOAD SWAP1 JUMP JUMPDEST DUP1 SLOAD DUP3 LT ISZERO PUSH2 0x2052 JUMPI PUSH1 0x0 MSTORE PUSH1 0x20 PUSH1 0x0 KECCAK256 SWAP1 PUSH1 0x2 SHL ADD SWAP1 PUSH1 0x0 SWAP1 JUMP JUMPDEST ISZERO PUSH2 0x21B5 JUMPI JUMP JUMPDEST PUSH1 0x40 MLOAD PUSH3 0x461BCD PUSH1 0xE5 SHL DUP2 MSTORE PUSH1 0x20 PUSH1 0x4 DUP3 ADD MSTORE PUSH1 0xF PUSH1 0x24 DUP3 ADD MSTORE PUSH15 0x125B9D985B1A59081C9BDBDB481251 PUSH1 0x8A SHL PUSH1 0x44 DUP3 ADD MSTORE PUSH1 0x64 SWAP1 REVERT JUMPDEST SWAP1 DUP2 PUSH1 0x20 SWAP2 SUB SLT PUSH2 0x269 JUMPI MLOAD DUP1 ISZERO ISZERO DUP2 SUB PUSH2 0x269 JUMPI SWAP1 JUMP JUMPDEST PUSH8 0xFFFFFFFFFFFFFFFF DUP2 GT PUSH2 0x11F3 JUMPI PUSH1 0x5 SHL PUSH1 0x20 ADD SWAP1 JUMP JUMPDEST SWAP1 PUSH1 0x40 MLOAD PUSH2 0x2229 DUP2 PUSH2 0x1EEB JUMP JUMPDEST DUP3 SLOAD DUP2 MSTORE PUSH1 0x1 DUP4 ADD SLOAD PUSH1 0x20 DUP3 ADD MSTORE PUSH1 0x2 DUP4 ADD SLOAD PUSH1 0x1 PUSH1 0x1 PUSH1 0xA0 SHL SUB DUP2 AND PUSH1 0x40 DUP4 ADD MSTORE PUSH1 0xA0 SHR PUSH1 0xFF AND PUSH1 0x60 DUP3 ADD MSTORE PUSH1 0x3 SWAP3 SWAP1 SWAP3 ADD SLOAD PUSH1 0x80 DUP4 ADD MSTORE JUMP JUMPDEST SWAP2 SWAP1 DUP3 SUB SWAP2 DUP3 GT PUSH2 0x9A4 JUMPI JUMP JUMPDEST DUP1 MLOAD DUP3 LT ISZERO PUSH2 0x2052 JUMPI PUSH1 0x20 SWAP2 PUSH1 0x5 SHL ADD ADD SWAP1 JUMP JUMPDEST SWAP2 SWAP1 DUP3 ADD DUP1 SWAP3 GT PUSH2 0x9A4 JUMPI JUMP JUMPDEST PUSH1 0x8 SLOAD SWAP1 PUSH1 0x1 PUSH1 0x40 SHL DUP3 LT ISZERO PUSH2 0x11F3 JUMPI PUSH2 0x53F DUP3 PUSH1 0x1 PUSH2 0x1F6B SWAP5 ADD PUSH1 0x8 SSTORE PUSH2 0x201B JUMP JUMPDEST PUSH1 0x0 NOT DUP2 EQ PUSH2 0x9A4 JUMPI PUSH1 0x1 ADD SWAP1 JUMP JUMPDEST SWAP2 SWAP1 PUSH1 0x0 SWAP3 DUP4 MSTORE PUSH1 0x5 PUSH1 0x20 MSTORE PUSH1 0x40 DUP4 KECCAK256 SWAP1 DUP4 MSTORE PUSH1 0x20 MSTORE PUSH1 0x40 DUP3 KECCAK256 SWAP2 DUP3 SLOAD SWAP1 DUP2 ISZERO PUSH2 0x23A6 JUMPI PUSH2 0x22F1 DUP3 PUSH2 0x2204 JUMP JUMPDEST SWAP2 PUSH2 0x22FF PUSH1 0x40 MLOAD SWAP4 DUP5 PUSH2 0x1F07 JUMP JUMPDEST DUP1 DUP4 MSTORE PUSH1 0x1F NOT PUSH2 0x230E DUP3 PUSH2 0x2204 JUMP JUMPDEST ADD CALLDATASIZE PUSH1 0x20 DUP6 ADD CALLDATACOPY DUP2 SWAP3 DUP3 JUMPDEST DUP3 DUP2 LT PUSH2 0x2329 JUMPI POP SWAP3 SWAP5 POP POP POP POP JUMP JUMPDEST PUSH1 0x2 PUSH2 0x2335 DUP3 DUP10 PUSH2 0x2192 JUMP JUMPDEST POP ADD SLOAD PUSH1 0x1 PUSH1 0x1 PUSH1 0xA0 SHL SUB SWAP1 DUP2 AND SWAP1 PUSH1 0x1 SWAP1 DUP7 JUMPDEST DUP9 DUP2 LT PUSH2 0x2380 JUMPI JUMPDEST POP POP PUSH2 0x2361 JUMPI JUMPDEST POP PUSH1 0x1 ADD PUSH2 0x2319 JUMP JUMPDEST DUP6 PUSH2 0x2379 SWAP2 PUSH2 0x2373 PUSH1 0x1 SWAP5 SWAP9 DUP7 PUSH2 0x2271 JUMP JUMPDEST MSTORE PUSH2 0x22B5 JUMP JUMPDEST SWAP5 SWAP1 PUSH2 0x2358 JUMP JUMPDEST DUP4 DUP3 PUSH2 0x238C DUP4 DUP10 PUSH2 0x2271 JUMP JUMPDEST MLOAD AND EQ PUSH2 0x239B JUMPI PUSH1 0x1 ADD PUSH2 0x2349 JUMP JUMPDEST POP POP POP DUP5 CODESIZE DUP1 PUSH2 0x2351 JUMP JUMPDEST SWAP3 POP POP JUMP JUMPDEST PUSH1 0x0 SLOAD PUSH1 0x1 PUSH1 0x1 PUSH1 0xA0 SHL SUB AND CALLER SUB PUSH2 0x23BF JUMPI JUMP JUMPDEST PUSH1 0x40 MLOAD PUSH4 0x118CDAA7 PUSH1 0xE0 SHL DUP2 MSTORE CALLER PUSH1 0x4 DUP3 ADD MSTORE PUSH1 0x24 SWAP1 REVERT JUMPDEST PUSH1 0xFF PUSH1 0x2 SLOAD AND PUSH2 0x23E3 JUMPI JUMP JUMPDEST PUSH1 0x40 MLOAD PUSH4 0xD93C0665 PUSH1 0xE0 SHL DUP2 MSTORE PUSH1 0x4 SWAP1 REVERT JUMPDEST PUSH1 0x2 PUSH1 0x1 SLOAD EQ PUSH2 0x2406 JUMPI PUSH1 0x2 PUSH1 0x1 SSTORE JUMP JUMPDEST PUSH1 0x40 MLOAD PUSH4 0x3EE5AEB5 PUSH1 0xE0 SHL DUP2 MSTORE PUSH1 0x4 SWAP1 REVERT INVALID 0xDB PUSH20 0x5D484B3C25915B6D87B2D2E96D3380352E63C1C3 CALLDATALOAD 0xA5 CALLVALUE 0xCA SHR SWAP1 KECCAK256 SHR MSTORE8 0xB7 LOG2 PUSH5 0x6970667358 0x22 SLT KECCAK256 0xF8 DUP2 PUSH6 0x7DF3435DC2F5 0xE8 0xD7 0xB7 0x26 ADDMOD 0xE9 0xA7 0xBE 0xD2 0xD2 DUP5 0xAE RETURN SLT 0xCC DUP11 ORIGIN EXTCODECOPY 0xE8 DUP14 SELFDESTRUCT PUSH3 0x696473 PUSH16 0x6C634300081800330000000000000000 "
        },
        "methodIdentifiers": {
          "GRACE_PERIOD()": "c1a287e2",
          "PLATFORM_FEE()": "34fbc9a1",
          "activeRoomIds(uint256)": "22707265",
          "buyTicket(uint256,uint8)": "ea8dc8d0",
          "cUSDToken()": "0ea86ad8",
          "claimPrize(uint256,uint256)": "7b154140",
          "collectedFees()": "9003adfe",
          "createRoom(string,string,uint256,uint256,bytes32)": "6cb4eb4b",
          "emergencyPause()": "51858e27",
          "emergencyWithdrawTokens(uint256)": "3e6df504",
          "forceCloseRoom(uint256)": "9f11b148",
          "getCarryOverAmount(uint256)": "fd28c7ec",
          "getCurrentRound(uint256)": "148b02c5",
          "getCurrentRoundPlayerCount(uint256)": "7d58f1ab",
          "getPlayerCount(uint256,uint256)": "7d4c12bb",
          "getPrizePool(uint256)": "7822be4a",
          "getRoomDetails(uint256)": "294550de",
          "getTicketsForAddress(uint256,address)": "6912cbb0",
          "getTicketsForRound(uint256,uint256)": "55ca6758",
          "getTotalCollectedFees()": "c7a84ed7",
          "getWinningNumber(uint256)": "74ecf4b5",
          "isPaused()": "b187bd26",
          "isTicketClaimed(uint256,uint256,uint256)": "d778199b",
          "listActiveRooms()": "fef59b95",
          "owner()": "8da5cb5b",
          "paused()": "5c975abb",
          "playerTicketIds(uint256,address,uint256)": "b4bb477d",
          "renounceOwnership()": "715018a6",
          "resetRoom(uint256,uint256,bytes32)": "6aa15f84",
          "resumeOperations()": "a6e1d016",
          "revealWinningNumber(uint256,bytes32,uint8)": "0ca057be",
          "roomCount()": "df93a4e3",
          "roomTicketsByRound(uint256,uint256,uint256)": "b0b3945f",
          "rooms(uint256)": "1bae0ac8",
          "ticketClaimed(uint256,uint256,uint256)": "d5e6c6fa",
          "transferOwnership(address)": "f2fde38b",
          "withdrawFees(uint256)": "5e318e07"
        }
      }
    }
  }
}